{
  "contractName": "Escrow",
  "abi": [
    {
      "inputs": [],
      "payable": false,
      "stateMutability": "nonpayable",
      "type": "constructor"
    },
    {
      "anonymous": false,
      "inputs": [
        {
          "indexed": true,
          "internalType": "address",
          "name": "_added",
          "type": "address"
        }
      ],
      "name": "AdminAdded",
      "type": "event"
    },
    {
      "anonymous": false,
      "inputs": [
        {
          "indexed": true,
          "internalType": "address",
          "name": "_deviceAddress",
          "type": "address"
        },
        {
          "indexed": false,
          "internalType": "string",
          "name": "_reason",
          "type": "string"
        }
      ],
      "name": "BlackListAddition",
      "type": "event"
    },
    {
      "anonymous": false,
      "inputs": [
        {
          "indexed": true,
          "internalType": "address",
          "name": "oldOwner",
          "type": "address"
        },
        {
          "indexed": true,
          "internalType": "address",
          "name": "newOwner",
          "type": "address"
        }
      ],
      "name": "OwnerSet",
      "type": "event"
    },
    {
      "anonymous": false,
      "inputs": [
        {
          "indexed": true,
          "internalType": "address",
          "name": "_sender",
          "type": "address"
        },
        {
          "indexed": false,
          "internalType": "uint256",
          "name": "_amount",
          "type": "uint256"
        }
      ],
      "name": "Received",
      "type": "event"
    },
    {
      "anonymous": false,
      "inputs": [
        {
          "indexed": true,
          "internalType": "address",
          "name": "_deviceAddress",
          "type": "address"
        },
        {
          "indexed": true,
          "internalType": "address",
          "name": "_approver",
          "type": "address"
        }
      ],
      "name": "WhiteListAddition",
      "type": "event"
    },
    {
      "payable": true,
      "stateMutability": "payable",
      "type": "fallback"
    },
    {
      "constant": true,
      "inputs": [
        {
          "internalType": "uint256",
          "name": "",
          "type": "uint256"
        }
      ],
      "name": "addressesCheck",
      "outputs": [
        {
          "internalType": "address",
          "name": "",
          "type": "address"
        }
      ],
      "payable": false,
      "stateMutability": "view",
      "type": "function"
    },
    {
      "constant": true,
      "inputs": [
        {
          "internalType": "address",
          "name": "",
          "type": "address"
        }
      ],
      "name": "adminMap",
      "outputs": [
        {
          "internalType": "bool",
          "name": "",
          "type": "bool"
        }
      ],
      "payable": false,
      "stateMutability": "view",
      "type": "function"
    },
    {
      "constant": true,
      "inputs": [
        {
          "internalType": "address",
          "name": "",
          "type": "address"
        }
      ],
      "name": "blackList",
      "outputs": [
        {
          "internalType": "bool",
          "name": "",
          "type": "bool"
        }
      ],
      "payable": false,
      "stateMutability": "view",
      "type": "function"
    },
    {
      "constant": false,
      "inputs": [
        {
          "internalType": "address",
          "name": "newOwner",
          "type": "address"
        }
      ],
      "name": "changeOwner",
      "outputs": [],
      "payable": false,
      "stateMutability": "nonpayable",
      "type": "function"
    },
    {
      "constant": true,
      "inputs": [],
      "name": "getOwner",
      "outputs": [
        {
          "internalType": "address",
          "name": "",
          "type": "address"
        }
      ],
      "payable": false,
      "stateMutability": "view",
      "type": "function"
    },
    {
      "constant": true,
      "inputs": [],
      "name": "storageContract",
      "outputs": [
        {
          "internalType": "address",
          "name": "",
          "type": "address"
        }
      ],
      "payable": false,
      "stateMutability": "view",
      "type": "function"
    },
    {
      "constant": true,
      "inputs": [
        {
          "internalType": "bytes32",
          "name": "",
          "type": "bytes32"
        }
      ],
      "name": "verificationInfo",
      "outputs": [
        {
          "internalType": "address payable",
          "name": "companyAddress",
          "type": "address"
        },
        {
          "internalType": "bytes32",
          "name": "UUID",
          "type": "bytes32"
        },
        {
          "internalType": "uint256",
          "name": "dealBalance",
          "type": "uint256"
        },
        {
          "internalType": "bool",
          "name": "paidOut",
          "type": "bool"
        },
        {
          "internalType": "uint48",
          "name": "timeStart",
          "type": "uint48"
        },
        {
          "internalType": "uint48",
          "name": "timeEnd",
          "type": "uint48"
        },
        {
          "internalType": "uint24",
          "name": "failedVerifyCount",
          "type": "uint24"
        },
        {
          "internalType": "uint32",
          "name": "totalCurrentCount",
          "type": "uint32"
        },
        {
          "internalType": "uint32",
          "name": "totalCountsAllowed",
          "type": "uint32"
        },
        {
          "internalType": "uint24",
          "name": "minThreshold",
          "type": "uint24"
        },
        {
          "internalType": "uint32",
          "name": "maxThreshold",
          "type": "uint32"
        },
        {
          "internalType": "uint16",
          "name": "gasResistanceTarget",
          "type": "uint16"
        }
      ],
      "payable": false,
      "stateMutability": "view",
      "type": "function"
    },
    {
      "constant": true,
      "inputs": [
        {
          "internalType": "address",
          "name": "",
          "type": "address"
        }
      ],
      "name": "whiteList",
      "outputs": [
        {
          "internalType": "bool",
          "name": "",
          "type": "bool"
        }
      ],
      "payable": false,
      "stateMutability": "view",
      "type": "function"
    },
    {
      "constant": true,
      "inputs": [],
      "name": "getBalance",
      "outputs": [
        {
          "internalType": "uint256",
          "name": "",
          "type": "uint256"
        }
      ],
      "payable": false,
      "stateMutability": "view",
      "type": "function"
    },
    {
      "constant": false,
      "inputs": [
        {
          "internalType": "address",
          "name": "_storageContract",
          "type": "address"
        }
      ],
      "name": "setStorageContract",
      "outputs": [],
      "payable": false,
      "stateMutability": "nonpayable",
      "type": "function"
    },
    {
      "constant": false,
      "inputs": [
        {
          "internalType": "address",
          "name": "_addedAdmin",
          "type": "address"
        }
      ],
      "name": "addAdmin",
      "outputs": [],
      "payable": false,
      "stateMutability": "nonpayable",
      "type": "function"
    },
    {
      "constant": false,
      "inputs": [
        {
          "internalType": "address",
          "name": "_to",
          "type": "address"
        },
        {
          "internalType": "uint256",
          "name": "_amount",
          "type": "uint256"
        }
      ],
      "name": "triggerPayout",
      "outputs": [],
      "payable": false,
      "stateMutability": "nonpayable",
      "type": "function"
    },
    {
      "constant": false,
      "inputs": [
        {
          "internalType": "address",
          "name": "_deviceAddress",
          "type": "address"
        }
      ],
      "name": "addToWhiteList",
      "outputs": [],
      "payable": false,
      "stateMutability": "nonpayable",
      "type": "function"
    },
    {
      "constant": false,
      "inputs": [
        {
          "internalType": "address",
          "name": "_deviceAddress",
          "type": "address"
        },
        {
          "internalType": "string",
          "name": "_reason",
          "type": "string"
        }
      ],
      "name": "addToBlackList",
      "outputs": [],
      "payable": false,
      "stateMutability": "nonpayable",
      "type": "function"
    },
    {
      "constant": false,
      "inputs": [
        {
          "internalType": "string",
          "name": "jsonString",
          "type": "string"
        },
        {
          "internalType": "bytes32",
          "name": "r",
          "type": "bytes32"
        },
        {
          "internalType": "bytes32",
          "name": "s",
          "type": "bytes32"
        }
      ],
      "name": "checkSimulatorAddress",
      "outputs": [],
      "payable": false,
      "stateMutability": "nonpayable",
      "type": "function"
    },
    {
      "constant": true,
      "inputs": [],
      "name": "returnSimulatorAddresses",
      "outputs": [
        {
          "internalType": "address[2]",
          "name": "",
          "type": "address[2]"
        }
      ],
      "payable": false,
      "stateMutability": "view",
      "type": "function"
    },
    {
      "constant": false,
      "inputs": [
        {
          "internalType": "address payable",
          "name": "_companyAddress",
          "type": "address"
        },
        {
          "internalType": "bytes32",
          "name": "_UUID",
          "type": "bytes32"
        },
        {
          "internalType": "uint256[]",
          "name": "intInfo",
          "type": "uint256[]"
        }
      ],
      "name": "setDealVerify",
      "outputs": [],
      "payable": false,
      "stateMutability": "nonpayable",
      "type": "function"
    }
  ],
  "bytecode": "0x608060405234801561001057600080fd5b50336000806101000a81548173ffffffffffffffffffffffffffffffffffffffff021916908373ffffffffffffffffffffffffffffffffffffffff1602179055506000809054906101000a900473ffffffffffffffffffffffffffffffffffffffff1673ffffffffffffffffffffffffffffffffffffffff16600073ffffffffffffffffffffffffffffffffffffffff167f342827c97908e5e2f71151c08502a66d44b6f758e3ac2f1de95f02eb95f0a73560405160405180910390a36001600660003373ffffffffffffffffffffffffffffffffffffffff1673ffffffffffffffffffffffffffffffffffffffff16815260200190815260200160002060006101000a81548160ff021916908315150217905550611c8a806101346000396000f3fe6080604052600436106100fe5760003560e01c8063893d20e811610095578063b1faff3511610064578063b1faff3514610727578063dbbc830b14610782578063dc38b0a2146107eb578063e1fec7df1461083c578063e55c80bb14610968576100fe565b8063893d20e81461051c578063a6f9dae114610573578063a97eeef8146105c4578063ac277490146106ac576100fe565b8063372c12b1116100d1578063372c12b1146103a857806347ee0394146104115780634838d1651461046257806370480275146104cb576100fe565b80630ec878531461015b57806311ce02671461023757806312065fe01461028e5780632905543c146102b9575b6000341161010b57600080fd5b3373ffffffffffffffffffffffffffffffffffffffff167f88a5966d370b9919b20f3e2c13ff65706f196a4e32cc2c12bf57088f88525874346040518082815260200191505060405180910390a2005b34801561016757600080fd5b506102356004803603606081101561017e57600080fd5b810190808035906020019064010000000081111561019b57600080fd5b8201836020820111156101ad57600080fd5b803590602001918460018302840111640100000000831117156101cf57600080fd5b91908080601f016020809104026020016040519081016040528093929190818152602001838380828437600081840152601f19601f82011690508083019250505050505050919291929080359060200190929190803590602001909291905050506109bb565b005b34801561024357600080fd5b5061024c610b1d565b604051808273ffffffffffffffffffffffffffffffffffffffff1673ffffffffffffffffffffffffffffffffffffffff16815260200191505060405180910390f35b34801561029a57600080fd5b506102a3610b43565b6040518082815260200191505060405180910390f35b3480156102c557600080fd5b506103a6600480360360608110156102dc57600080fd5b81019080803573ffffffffffffffffffffffffffffffffffffffff169060200190929190803590602001909291908035906020019064010000000081111561032357600080fd5b82018360208201111561033557600080fd5b8035906020019184602083028401116401000000008311171561035757600080fd5b919080806020026020016040519081016040528093929190818152602001838360200280828437600081840152601f19601f820116905080830192505050505050509192919290505050610b4b565b005b3480156103b457600080fd5b506103f7600480360360208110156103cb57600080fd5b81019080803573ffffffffffffffffffffffffffffffffffffffff169060200190929190505050610ea0565b604051808215151515815260200191505060405180910390f35b34801561041d57600080fd5b506104606004803603602081101561043457600080fd5b81019080803573ffffffffffffffffffffffffffffffffffffffff169060200190929190505050610ec0565b005b34801561046e57600080fd5b506104b16004803603602081101561048557600080fd5b81019080803573ffffffffffffffffffffffffffffffffffffffff1690602001909291905050506111b4565b604051808215151515815260200191505060405180910390f35b3480156104d757600080fd5b5061051a600480360360208110156104ee57600080fd5b81019080803573ffffffffffffffffffffffffffffffffffffffff1690602001909291905050506111d4565b005b34801561052857600080fd5b506105316112cc565b604051808273ffffffffffffffffffffffffffffffffffffffff1673ffffffffffffffffffffffffffffffffffffffff16815260200191505060405180910390f35b34801561057f57600080fd5b506105c26004803603602081101561059657600080fd5b81019080803573ffffffffffffffffffffffffffffffffffffffff1690602001909291905050506112f5565b005b3480156105d057600080fd5b506106aa600480360360408110156105e757600080fd5b81019080803573ffffffffffffffffffffffffffffffffffffffff1690602001909291908035906020019064010000000081111561062457600080fd5b82018360208201111561063657600080fd5b8035906020019184600183028401116401000000008311171561065857600080fd5b91908080601f016020809104026020016040519081016040528093929190818152602001838380828437600081840152601f19601f820116905080830192505050505050509192919290505050611475565b005b3480156106b857600080fd5b506106e5600480360360208110156106cf57600080fd5b810190808035906020019092919050505061175e565b604051808273ffffffffffffffffffffffffffffffffffffffff1673ffffffffffffffffffffffffffffffffffffffff16815260200191505060405180910390f35b34801561073357600080fd5b506107806004803603604081101561074a57600080fd5b81019080803573ffffffffffffffffffffffffffffffffffffffff16906020019092919080359060200190929190505050611791565b005b34801561078e57600080fd5b506107d1600480360360208110156107a557600080fd5b81019080803573ffffffffffffffffffffffffffffffffffffffff169060200190929190505050611980565b604051808215151515815260200191505060405180910390f35b3480156107f757600080fd5b5061083a6004803603602081101561080e57600080fd5b81019080803573ffffffffffffffffffffffffffffffffffffffff1690602001909291905050506119a0565b005b34801561084857600080fd5b506108756004803603602081101561085f57600080fd5b8101908080359060200190929190505050611aa6565b604051808d73ffffffffffffffffffffffffffffffffffffffff1673ffffffffffffffffffffffffffffffffffffffff1681526020018c81526020018b81526020018a1515151581526020018965ffffffffffff1665ffffffffffff1681526020018865ffffffffffff1665ffffffffffff1681526020018762ffffff1662ffffff1681526020018663ffffffff1663ffffffff1681526020018563ffffffff1663ffffffff1681526020018462ffffff1662ffffff1681526020018363ffffffff1663ffffffff1681526020018261ffff1661ffff1681526020019c5050505050505050505050505060405180910390f35b34801561097457600080fd5b5061097d611bb3565b6040518082600260200280838360005b838110156109a857808201518184015260208101905061098d565b5050505090500191505060405180910390f35b6000836040516020018082805190602001908083835b602083106109f457805182526020820191506020810190506020830392506109d1565b6001836020036101000a038019825116818451168082178552505050505050905001915050604051602081830303815290604052805190602001209050600080600090506000601b90505b601d8160ff161015610b145760018482888860405160008152602001604052604051808581526020018460ff1660ff1681526020018381526020018281526020019450505050506020604051602081039080840390855afa158015610aa8573d6000803e3d6000fd5b505050602060405103519250826002601b830360ff1660028110610ac857fe5b0160006101000a81548173ffffffffffffffffffffffffffffffffffffffff021916908373ffffffffffffffffffffffffffffffffffffffff1602179055508080600101915050610a3f565b50505050505050565b600160009054906101000a900473ffffffffffffffffffffffffffffffffffffffff1681565b600047905090565b600160009054906101000a900473ffffffffffffffffffffffffffffffffffffffff1673ffffffffffffffffffffffffffffffffffffffff163373ffffffffffffffffffffffffffffffffffffffff1614610ba557600080fd5b6040518061018001604052808473ffffffffffffffffffffffffffffffffffffffff16815260200183815260200182600081518110610be057fe5b6020026020010151815260200160001515815260200182600681518110610c0357fe5b602002602001015165ffffffffffff16815260200182600181518110610c2557fe5b602002602001015165ffffffffffff168152602001600062ffffff168152602001600063ffffffff16815260200182600281518110610c6057fe5b602002602001015163ffffffff16815260200182600381518110610c8057fe5b602002602001015162ffffff16815260200182600481518110610c9f57fe5b602002602001015163ffffffff16815260200182600581518110610cbf57fe5b602002602001015161ffff168152506007600084815260200190815260200160002060008201518160000160006101000a81548173ffffffffffffffffffffffffffffffffffffffff021916908373ffffffffffffffffffffffffffffffffffffffff160217905550602082015181600101556040820151816002015560608201518160030160006101000a81548160ff02191690831515021790555060808201518160030160016101000a81548165ffffffffffff021916908365ffffffffffff16021790555060a08201518160030160076101000a81548165ffffffffffff021916908365ffffffffffff16021790555060c082015181600301600d6101000a81548162ffffff021916908362ffffff16021790555060e08201518160030160106101000a81548163ffffffff021916908363ffffffff1602179055506101008201518160030160146101000a81548163ffffffff021916908363ffffffff1602179055506101208201518160030160186101000a81548162ffffff021916908362ffffff16021790555061014082015181600301601b6101000a81548163ffffffff021916908363ffffffff1602179055506101608201518160040160006101000a81548161ffff021916908361ffff160217905550905050505050565b60046020528060005260406000206000915054906101000a900460ff1681565b600660003373ffffffffffffffffffffffffffffffffffffffff1673ffffffffffffffffffffffffffffffffffffffff16815260200190815260200160002060009054906101000a900460ff16610f7f576040517f08c379a000000000000000000000000000000000000000000000000000000000815260040180806020018281038252600a8152602001807f6f6e6c792061646d696e0000000000000000000000000000000000000000000081525060200191505060405180910390fd5b600460008273ffffffffffffffffffffffffffffffffffffffff1673ffffffffffffffffffffffffffffffffffffffff16815260200190815260200160002060009054906101000a900460ff161561103f576040517f08c379a00000000000000000000000000000000000000000000000000000000081526004018080602001828103825260148152602001807f61646472657373206f6e2057686974654c69737400000000000000000000000081525060200191505060405180910390fd5b600560008273ffffffffffffffffffffffffffffffffffffffff1673ffffffffffffffffffffffffffffffffffffffff16815260200190815260200160002060009054906101000a900460ff16156110ff576040517f08c379a000000000000000000000000000000000000000000000000000000000815260040180806020018281038252600e8152602001807f616464726573732062616e6e656400000000000000000000000000000000000081525060200191505060405180910390fd5b6001600460008373ffffffffffffffffffffffffffffffffffffffff1673ffffffffffffffffffffffffffffffffffffffff16815260200190815260200160002060006101000a81548160ff0219169083151502179055503373ffffffffffffffffffffffffffffffffffffffff168173ffffffffffffffffffffffffffffffffffffffff167f591b6624e864e1c34d95f6c5feb870b3a0a3638153b086a1442d725ccf0e5f0f60405160405180910390a350565b60056020528060005260406000206000915054906101000a900460ff1681565b600160009054906101000a900473ffffffffffffffffffffffffffffffffffffffff1673ffffffffffffffffffffffffffffffffffffffff163373ffffffffffffffffffffffffffffffffffffffff161461122e57600080fd5b6001600660008373ffffffffffffffffffffffffffffffffffffffff1673ffffffffffffffffffffffffffffffffffffffff16815260200190815260200160002060006101000a81548160ff0219169083151502179055508073ffffffffffffffffffffffffffffffffffffffff167f44d6d25963f097ad14f29f06854a01f575648a1ef82f30e562ccd3889717e33960405160405180910390a250565b60008060009054906101000a900473ffffffffffffffffffffffffffffffffffffffff16905090565b6000809054906101000a900473ffffffffffffffffffffffffffffffffffffffff1673ffffffffffffffffffffffffffffffffffffffff163373ffffffffffffffffffffffffffffffffffffffff16146113b7576040517f08c379a00000000000000000000000000000000000000000000000000000000081526004018080602001828103825260138152602001807f43616c6c6572206973206e6f74206f776e65720000000000000000000000000081525060200191505060405180910390fd5b8073ffffffffffffffffffffffffffffffffffffffff166000809054906101000a900473ffffffffffffffffffffffffffffffffffffffff1673ffffffffffffffffffffffffffffffffffffffff167f342827c97908e5e2f71151c08502a66d44b6f758e3ac2f1de95f02eb95f0a73560405160405180910390a3806000806101000a81548173ffffffffffffffffffffffffffffffffffffffff021916908373ffffffffffffffffffffffffffffffffffffffff16021790555050565b6000809054906101000a900473ffffffffffffffffffffffffffffffffffffffff1673ffffffffffffffffffffffffffffffffffffffff163373ffffffffffffffffffffffffffffffffffffffff1614611537576040517f08c379a00000000000000000000000000000000000000000000000000000000081526004018080602001828103825260138152602001807f43616c6c6572206973206e6f74206f776e65720000000000000000000000000081525060200191505060405180910390fd5b600560008373ffffffffffffffffffffffffffffffffffffffff1673ffffffffffffffffffffffffffffffffffffffff16815260200190815260200160002060009054906101000a900460ff16156115f7576040517f08c379a00000000000000000000000000000000000000000000000000000000081526004018080602001828103825260168152602001807f6164647265737320616c72656164792062616e6e65640000000000000000000081525060200191505060405180910390fd5b6000600460008473ffffffffffffffffffffffffffffffffffffffff1673ffffffffffffffffffffffffffffffffffffffff16815260200190815260200160002060006101000a81548160ff0219169083151502179055506001600560008473ffffffffffffffffffffffffffffffffffffffff1673ffffffffffffffffffffffffffffffffffffffff16815260200190815260200160002060006101000a81548160ff0219169083151502179055508173ffffffffffffffffffffffffffffffffffffffff167fe1eb1e3d54c746594d73a0befcdfada1376ed4a97b55ce9953eea88ace04baba826040518080602001828103825283818151815260200191508051906020019080838360005b83811015611720578082015181840152602081019050611705565b50505050905090810190601f16801561174d5780820380516001836020036101000a031916815260200191505b509250505060405180910390a25050565b6002816002811061176b57fe5b016000915054906101000a900473ffffffffffffffffffffffffffffffffffffffff1681565b600160009054906101000a900473ffffffffffffffffffffffffffffffffffffffff1673ffffffffffffffffffffffffffffffffffffffff163373ffffffffffffffffffffffffffffffffffffffff16146117eb57600080fd5b600073ffffffffffffffffffffffffffffffffffffffff168273ffffffffffffffffffffffffffffffffffffffff16141561188e576040517f08c379a000000000000000000000000000000000000000000000000000000000815260040180806020018281038252600f8152602001807f496e76616c69642061646472657373000000000000000000000000000000000081525060200191505060405180910390fd5b8047101561189b57600080fd5b600060608373ffffffffffffffffffffffffffffffffffffffff168360405180600001905060006040518083038185875af1925050503d80600081146118fd576040519150601f19603f3d011682016040523d82523d6000602084013e611902565b606091505b50915091508161197a576040517f08c379a00000000000000000000000000000000000000000000000000000000081526004018080602001828103825260128152602001807f5472616e73616374696f6e206661696c6564000000000000000000000000000081525060200191505060405180910390fd5b50505050565b60066020528060005260406000206000915054906101000a900460ff1681565b6000809054906101000a900473ffffffffffffffffffffffffffffffffffffffff1673ffffffffffffffffffffffffffffffffffffffff163373ffffffffffffffffffffffffffffffffffffffff1614611a62576040517f08c379a00000000000000000000000000000000000000000000000000000000081526004018080602001828103825260138152602001807f43616c6c6572206973206e6f74206f776e65720000000000000000000000000081525060200191505060405180910390fd5b80600160006101000a81548173ffffffffffffffffffffffffffffffffffffffff021916908373ffffffffffffffffffffffffffffffffffffffff16021790555050565b60076020528060005260406000206000915090508060000160009054906101000a900473ffffffffffffffffffffffffffffffffffffffff16908060010154908060020154908060030160009054906101000a900460ff16908060030160019054906101000a900465ffffffffffff16908060030160079054906101000a900465ffffffffffff169080600301600d9054906101000a900462ffffff16908060030160109054906101000a900463ffffffff16908060030160149054906101000a900463ffffffff16908060030160189054906101000a900462ffffff169080600301601b9054906101000a900463ffffffff16908060040160009054906101000a900461ffff1690508c565b611bbb611c33565b60028080602002604051908101604052809291908260028015611c29576020028201915b8160009054906101000a900473ffffffffffffffffffffffffffffffffffffffff1673ffffffffffffffffffffffffffffffffffffffff1681526020019060010190808311611bdf575b5050505050905090565b604051806040016040528060029060208202803883398082019150509050509056fea265627a7a72315820c0ddb94bd4088beac9527a7da2b0a1c06ef3e4cec60628b940b604e6e6302c7a64736f6c63430005100032",
  "source": "pragma solidity >=0.5.0 <0.9.0;\n\nimport './Owner.sol';\n\ncontract Escrow is Owner {\n    //Storage variables\n    address public storageContract;\n    address[2] public addressesCheck;\n    mapping (address => bool) public whiteList;\n    mapping (address => bool) public blackList; //addresses which canot be added to whitelist\n    mapping (address => bool) public adminMap;\n    mapping (bytes32 => VerifyInfo) public verificationInfo;\n\n\n    event Received(address indexed _sender, uint _amount);\n    event BlackListAddition(address indexed _deviceAddress, string _reason);\n    event WhiteListAddition(address indexed _deviceAddress, address indexed _approver);\n    event AdminAdded(address indexed _added);\n\n    struct VerifyInfo {\n        address payable companyAddress;\n        bytes32 UUID;\n        uint256 dealBalance;\n        //string deviceIMEI; ///IMEI for device that will be at location\n        bool paidOut; ///flag to see if pay out has been given or not\n        ///Struct Packing rest of integers\n        uint48 timeStart; ///start of Deal\n        uint48 timeEnd; /// end of Deal\n        uint24 failedVerifyCount; ///failed verifications\n        uint32 totalCurrentCount; ///total current verifications\n        uint32 totalCountsAllowed; ///number of data points to be validated\n        uint24 minThreshold; ///minimum number of successful validations to start receiving reward\n        uint32 maxThreshold; ///number of successful validations to receive full reward;\n        uint16 gasResistanceTarget; ///target reading that is max acceptable air quality\n    }\n\n    constructor() public {\n            adminMap[msg.sender] = true;\n    }\n\n    modifier onlyStorageContract(){\n        require(msg.sender == storageContract);\n        _;\n    }\n\n    modifier onlyAdmin(){\n        require (adminMap[msg.sender], \"only admin\");\n        _;\n    }\n\n    /*receive() external payable {\n        emit Received(msg.sender, msg.value);\n    } */ //newer version of solidity   \n\n    function() external payable {\n        require(msg.value > 0);\n        emit Received(msg.sender, msg.value);\n    }\n\n    function getBalance() public view returns(uint){\n        return address(this).balance;\n    }\n\n    function setStorageContract(address _storageContract) public isOwner{\n        storageContract = _storageContract;\n    }\n\n    function addAdmin (address _addedAdmin) onlyStorageContract external {\n        adminMap[_addedAdmin] = true;\n        emit AdminAdded(_addedAdmin);\n    }\n\n    function triggerPayout(address _to, uint _amount) external onlyStorageContract{\n        require(_to !=address(0), \"Invalid address\");\n        require(address(this).balance >= _amount);\n        //(bool sent, bytes memory data) = _to.call.value(_amount);\n        (bool sent, bytes memory data) = _to.call.value(_amount)(\"\");\n        require(sent, \"Transaction failed\");\n    }\n\n    function addToWhiteList (address _deviceAddress) public onlyAdmin{\n        require(!whiteList[_deviceAddress], \"address on WhiteList\");\n        require(!blackList[_deviceAddress], \"address banned\");\n        whiteList[_deviceAddress] = true;\n        \n        emit WhiteListAddition(_deviceAddress, msg.sender);\n    }\n\n    function addToBlackList (address _deviceAddress, string memory _reason) public isOwner{\n        require(!blackList[_deviceAddress], \"address already banned\");\n        whiteList[_deviceAddress] = false;\n        blackList[_deviceAddress] = true;\n        emit BlackListAddition(_deviceAddress, _reason);\n    }\n\n    function checkSimulatorAddress (string memory jsonString, bytes32 r , bytes32 s) public {\n        //bytes32 testHash = keccak256(bytes(jsonString));\n        //string memory jsonString = '{\"message\":{\"snr\":78,\"vbat\":2.21924,\"latitude\":4605.29358,\"longitude\":5352.96463,\"gasResistance\":10,\"temperature\":33.19269,\"pressure\":1555.48425,\"humidity\":68.59576,\"light\":1762.69028,\"temperature2\":45.26462,\"gyroscope\":[14,-1808,-10],\"accelerometer\":[2689,1808,3466],\"timestamp\":\"1626009053476\",\"random\":\"ba5a38466233a778\"}}';\n        bytes32 testHash = keccak256(abi.encodePacked(jsonString));\n        address _deviceAddress;\n        bool onWhiteList = false;\n        for (uint8 v=27 ; v<29; v++){\n            _deviceAddress = ecrecover(testHash, v, r, s);\n            addressesCheck[v-27]= _deviceAddress;\n                      \n        } \n    }\n\n    function returnSimulatorAddresses() public view returns(address[2] memory){\n        return addressesCheck;\n    }\n\n    function setDealVerify(address payable _companyAddress, bytes32 _UUID, uint[] memory intInfo) public onlyStorageContract {\n            verificationInfo[_UUID] = VerifyInfo({\n            companyAddress : _companyAddress,\n            UUID : _UUID,\n            paidOut: false,\n            dealBalance: intInfo[0],\n            timeStart : uint48(intInfo[6]),\n            timeEnd : uint48(intInfo[1]),\n            failedVerifyCount : 0,\n            totalCurrentCount : 0,\n            totalCountsAllowed : uint32(intInfo[2]),\n            minThreshold : uint24(intInfo[3]), \n            maxThreshold : uint32(intInfo[4]),\n            gasResistanceTarget : uint16(intInfo[5])\n            });\n    }\n\n}",
  "sourcePath": "/home/jpick713/BlockChain_Apps/iotex-dapp/contracts/Escrow.sol",
  "compiler": {
    "name": "solc",
    "version": "0.5.16+commit.9c3226ce.Emscripten.clang"
  },
  "schemaVersion": "3.4.1",
  "updatedAt": "2021-07-13T23:47:23.450Z",
  "networkType": "ethereum",
  "devdoc": {
    "methods": {
      "changeOwner(address)": {
        "details": "Change owner",
        "params": {
          "newOwner": "address of new owner"
        }
      },
      "getOwner()": {
        "details": "Return owner address ",
        "return": "address of owner"
      }
    }
  },
  "userdoc": {
    "methods": {}
  }
}