{
  "contractName": "Escrow",
  "abi": [
    {
      "inputs": [],
      "payable": false,
      "stateMutability": "nonpayable",
      "type": "constructor"
    },
    {
      "anonymous": false,
      "inputs": [
        {
          "indexed": true,
          "internalType": "address",
          "name": "_added",
          "type": "address"
        }
      ],
      "name": "AdminAdded",
      "type": "event"
    },
    {
      "anonymous": false,
      "inputs": [
        {
          "indexed": true,
          "internalType": "address",
          "name": "_deviceAddress",
          "type": "address"
        },
        {
          "indexed": false,
          "internalType": "string",
          "name": "_reason",
          "type": "string"
        }
      ],
      "name": "BlackListAddition",
      "type": "event"
    },
    {
      "anonymous": false,
      "inputs": [
        {
          "indexed": true,
          "internalType": "bytes32",
          "name": "_UUID",
          "type": "bytes32"
        }
      ],
      "name": "DateNotValid",
      "type": "event"
    },
    {
      "anonymous": false,
      "inputs": [
        {
          "indexed": true,
          "internalType": "bytes32",
          "name": "_UUID",
          "type": "bytes32"
        }
      ],
      "name": "NotOnWhiteList",
      "type": "event"
    },
    {
      "anonymous": false,
      "inputs": [
        {
          "indexed": true,
          "internalType": "address",
          "name": "oldOwner",
          "type": "address"
        },
        {
          "indexed": true,
          "internalType": "address",
          "name": "newOwner",
          "type": "address"
        }
      ],
      "name": "OwnerSet",
      "type": "event"
    },
    {
      "anonymous": false,
      "inputs": [
        {
          "indexed": true,
          "internalType": "address",
          "name": "_sender",
          "type": "address"
        },
        {
          "indexed": false,
          "internalType": "uint256",
          "name": "_amount",
          "type": "uint256"
        }
      ],
      "name": "Received",
      "type": "event"
    },
    {
      "anonymous": false,
      "inputs": [
        {
          "indexed": false,
          "internalType": "bytes32",
          "name": "_UUID",
          "type": "bytes32"
        }
      ],
      "name": "UncleanLevel",
      "type": "event"
    },
    {
      "anonymous": false,
      "inputs": [
        {
          "indexed": true,
          "internalType": "address",
          "name": "_deviceAddress",
          "type": "address"
        },
        {
          "indexed": true,
          "internalType": "address",
          "name": "_approver",
          "type": "address"
        }
      ],
      "name": "WhiteListAddition",
      "type": "event"
    },
    {
      "payable": true,
      "stateMutability": "payable",
      "type": "fallback"
    },
    {
      "constant": true,
      "inputs": [
        {
          "internalType": "uint256",
          "name": "",
          "type": "uint256"
        }
      ],
      "name": "addressesCheck",
      "outputs": [
        {
          "internalType": "address",
          "name": "",
          "type": "address"
        }
      ],
      "payable": false,
      "stateMutability": "view",
      "type": "function"
    },
    {
      "constant": true,
      "inputs": [
        {
          "internalType": "address",
          "name": "",
          "type": "address"
        }
      ],
      "name": "adminMap",
      "outputs": [
        {
          "internalType": "bool",
          "name": "",
          "type": "bool"
        }
      ],
      "payable": false,
      "stateMutability": "view",
      "type": "function"
    },
    {
      "constant": true,
      "inputs": [
        {
          "internalType": "address",
          "name": "",
          "type": "address"
        }
      ],
      "name": "blackList",
      "outputs": [
        {
          "internalType": "bool",
          "name": "",
          "type": "bool"
        }
      ],
      "payable": false,
      "stateMutability": "view",
      "type": "function"
    },
    {
      "constant": false,
      "inputs": [
        {
          "internalType": "address",
          "name": "newOwner",
          "type": "address"
        }
      ],
      "name": "changeOwner",
      "outputs": [],
      "payable": false,
      "stateMutability": "nonpayable",
      "type": "function"
    },
    {
      "constant": true,
      "inputs": [],
      "name": "getOwner",
      "outputs": [
        {
          "internalType": "address",
          "name": "",
          "type": "address"
        }
      ],
      "payable": false,
      "stateMutability": "view",
      "type": "function"
    },
    {
      "constant": true,
      "inputs": [],
      "name": "storageContract",
      "outputs": [
        {
          "internalType": "address",
          "name": "",
          "type": "address"
        }
      ],
      "payable": false,
      "stateMutability": "view",
      "type": "function"
    },
    {
      "constant": true,
      "inputs": [
        {
          "internalType": "bytes32",
          "name": "",
          "type": "bytes32"
        }
      ],
      "name": "verificationInfo",
      "outputs": [
        {
          "internalType": "address payable",
          "name": "companyAddress",
          "type": "address"
        },
        {
          "internalType": "bytes32",
          "name": "UUID",
          "type": "bytes32"
        },
        {
          "internalType": "uint256",
          "name": "dealBalance",
          "type": "uint256"
        },
        {
          "internalType": "bool",
          "name": "paidOut",
          "type": "bool"
        },
        {
          "internalType": "uint48",
          "name": "timeStart",
          "type": "uint48"
        },
        {
          "internalType": "uint48",
          "name": "timeEnd",
          "type": "uint48"
        },
        {
          "internalType": "uint24",
          "name": "SuccessVerify",
          "type": "uint24"
        },
        {
          "internalType": "uint32",
          "name": "totalCurrentCount",
          "type": "uint32"
        },
        {
          "internalType": "uint32",
          "name": "totalCountsAllowed",
          "type": "uint32"
        },
        {
          "internalType": "uint24",
          "name": "minThreshold",
          "type": "uint24"
        },
        {
          "internalType": "uint32",
          "name": "maxThreshold",
          "type": "uint32"
        },
        {
          "internalType": "uint16",
          "name": "gasResistanceTarget",
          "type": "uint16"
        }
      ],
      "payable": false,
      "stateMutability": "view",
      "type": "function"
    },
    {
      "constant": true,
      "inputs": [
        {
          "internalType": "address",
          "name": "",
          "type": "address"
        }
      ],
      "name": "whiteList",
      "outputs": [
        {
          "internalType": "bool",
          "name": "",
          "type": "bool"
        }
      ],
      "payable": false,
      "stateMutability": "view",
      "type": "function"
    },
    {
      "constant": true,
      "inputs": [],
      "name": "getBalance",
      "outputs": [
        {
          "internalType": "uint256",
          "name": "",
          "type": "uint256"
        }
      ],
      "payable": false,
      "stateMutability": "view",
      "type": "function"
    },
    {
      "constant": false,
      "inputs": [
        {
          "internalType": "address",
          "name": "_storageContract",
          "type": "address"
        }
      ],
      "name": "setStorageContract",
      "outputs": [],
      "payable": false,
      "stateMutability": "nonpayable",
      "type": "function"
    },
    {
      "constant": false,
      "inputs": [
        {
          "internalType": "address",
          "name": "_addedAdmin",
          "type": "address"
        }
      ],
      "name": "addAdmin",
      "outputs": [],
      "payable": false,
      "stateMutability": "nonpayable",
      "type": "function"
    },
    {
      "constant": false,
      "inputs": [
        {
          "internalType": "address payable",
          "name": "_to",
          "type": "address"
        },
        {
          "internalType": "uint256",
          "name": "_balance",
          "type": "uint256"
        },
        {
          "internalType": "uint256",
          "name": "_success",
          "type": "uint256"
        },
        {
          "internalType": "uint256",
          "name": "_min",
          "type": "uint256"
        },
        {
          "internalType": "uint256",
          "name": "_max",
          "type": "uint256"
        }
      ],
      "name": "triggerPayout",
      "outputs": [],
      "payable": true,
      "stateMutability": "payable",
      "type": "function"
    },
    {
      "constant": false,
      "inputs": [
        {
          "internalType": "address",
          "name": "_deviceAddress",
          "type": "address"
        }
      ],
      "name": "addToWhiteList",
      "outputs": [],
      "payable": false,
      "stateMutability": "nonpayable",
      "type": "function"
    },
    {
      "constant": false,
      "inputs": [
        {
          "internalType": "address",
          "name": "_deviceAddress",
          "type": "address"
        },
        {
          "internalType": "string",
          "name": "_reason",
          "type": "string"
        }
      ],
      "name": "addToBlackList",
      "outputs": [],
      "payable": false,
      "stateMutability": "nonpayable",
      "type": "function"
    },
    {
      "constant": false,
      "inputs": [
        {
          "internalType": "string",
          "name": "jsonString",
          "type": "string"
        },
        {
          "internalType": "bytes32",
          "name": "r",
          "type": "bytes32"
        },
        {
          "internalType": "bytes32",
          "name": "s",
          "type": "bytes32"
        }
      ],
      "name": "checkSimulatorAddress",
      "outputs": [
        {
          "internalType": "bool",
          "name": "",
          "type": "bool"
        }
      ],
      "payable": false,
      "stateMutability": "nonpayable",
      "type": "function"
    },
    {
      "constant": false,
      "inputs": [
        {
          "internalType": "string",
          "name": "jsonString",
          "type": "string"
        },
        {
          "internalType": "bytes32",
          "name": "r",
          "type": "bytes32"
        },
        {
          "internalType": "bytes32",
          "name": "s",
          "type": "bytes32"
        },
        {
          "internalType": "bytes32",
          "name": "_UUID",
          "type": "bytes32"
        },
        {
          "internalType": "uint256",
          "name": "gasTarget",
          "type": "uint256"
        },
        {
          "internalType": "uint256",
          "name": "time",
          "type": "uint256"
        }
      ],
      "name": "checkDealInfo",
      "outputs": [],
      "payable": false,
      "stateMutability": "nonpayable",
      "type": "function"
    },
    {
      "constant": true,
      "inputs": [],
      "name": "returnSimulatorAddresses",
      "outputs": [
        {
          "internalType": "address[2]",
          "name": "",
          "type": "address[2]"
        }
      ],
      "payable": false,
      "stateMutability": "view",
      "type": "function"
    },
    {
      "constant": false,
      "inputs": [
        {
          "internalType": "address payable",
          "name": "_companyAddress",
          "type": "address"
        },
        {
          "internalType": "bytes32",
          "name": "_UUID",
          "type": "bytes32"
        },
        {
          "internalType": "uint256[]",
          "name": "intInfo",
          "type": "uint256[]"
        }
      ],
      "name": "setDealVerify",
      "outputs": [],
      "payable": false,
      "stateMutability": "nonpayable",
      "type": "function"
    }
  ],
  "bytecode": "0x608060405234801561001057600080fd5b50336000806101000a81548173ffffffffffffffffffffffffffffffffffffffff021916908373ffffffffffffffffffffffffffffffffffffffff1602179055506000809054906101000a900473ffffffffffffffffffffffffffffffffffffffff1673ffffffffffffffffffffffffffffffffffffffff16600073ffffffffffffffffffffffffffffffffffffffff167f342827c97908e5e2f71151c08502a66d44b6f758e3ac2f1de95f02eb95f0a73560405160405180910390a36001600660003373ffffffffffffffffffffffffffffffffffffffff1673ffffffffffffffffffffffffffffffffffffffff16815260200190815260200160002060006101000a81548160ff0219169083151502179055506124ca806101346000396000f3fe6080604052600436106101095760003560e01c8063893d20e811610095578063ca41ccf611610064578063ca41ccf614610844578063dbbc830b146108b0578063dc38b0a214610919578063e1fec7df1461096a578063e55c80bb14610a9657610109565b8063893d20e814610639578063a6f9dae114610690578063a97eeef8146106e1578063ac277490146107c957610109565b80632905543c116100dc5780632905543c146103d6578063372c12b1146104c557806347ee03941461052e5780634838d1651461057f57806370480275146105e857610109565b806302e4abb9146101665780630ec878531461026057806311ce02671461035457806312065fe0146103ab575b6000341161011657600080fd5b3373ffffffffffffffffffffffffffffffffffffffff167f88a5966d370b9919b20f3e2c13ff65706f196a4e32cc2c12bf57088f88525874346040518082815260200191505060405180910390a2005b34801561017257600080fd5b5061025e600480360360c081101561018957600080fd5b81019080803590602001906401000000008111156101a657600080fd5b8201836020820111156101b857600080fd5b803590602001918460018302840111640100000000831117156101da57600080fd5b91908080601f016020809104026020016040519081016040528093929190818152602001838380828437600081840152601f19601f8201169050808301925050505050505091929192908035906020019092919080359060200190929190803590602001909291908035906020019092919080359060200190929190505050610ae9565b005b34801561026c57600080fd5b5061033a6004803603606081101561028357600080fd5b81019080803590602001906401000000008111156102a057600080fd5b8201836020820111156102b257600080fd5b803590602001918460018302840111640100000000831117156102d457600080fd5b91908080601f016020809104026020016040519081016040528093929190818152602001838380828437600081840152601f19601f820116905080830192505050505050509192919290803590602001909291908035906020019092919050505061106c565b604051808215151515815260200191505060405180910390f35b34801561036057600080fd5b506103696111d8565b604051808273ffffffffffffffffffffffffffffffffffffffff1673ffffffffffffffffffffffffffffffffffffffff16815260200191505060405180910390f35b3480156103b757600080fd5b506103c06111fe565b6040518082815260200191505060405180910390f35b3480156103e257600080fd5b506104c3600480360360608110156103f957600080fd5b81019080803573ffffffffffffffffffffffffffffffffffffffff169060200190929190803590602001909291908035906020019064010000000081111561044057600080fd5b82018360208201111561045257600080fd5b8035906020019184602083028401116401000000008311171561047457600080fd5b919080806020026020016040519081016040528093929190818152602001838360200280828437600081840152601f19601f820116905080830192505050505050509192919290505050611206565b005b3480156104d157600080fd5b50610514600480360360208110156104e857600080fd5b81019080803573ffffffffffffffffffffffffffffffffffffffff16906020019092919050505061155b565b604051808215151515815260200191505060405180910390f35b34801561053a57600080fd5b5061057d6004803603602081101561055157600080fd5b81019080803573ffffffffffffffffffffffffffffffffffffffff16906020019092919050505061157b565b005b34801561058b57600080fd5b506105ce600480360360208110156105a257600080fd5b81019080803573ffffffffffffffffffffffffffffffffffffffff16906020019092919050505061186f565b604051808215151515815260200191505060405180910390f35b3480156105f457600080fd5b506106376004803603602081101561060b57600080fd5b81019080803573ffffffffffffffffffffffffffffffffffffffff16906020019092919050505061188f565b005b34801561064557600080fd5b5061064e611987565b604051808273ffffffffffffffffffffffffffffffffffffffff1673ffffffffffffffffffffffffffffffffffffffff16815260200191505060405180910390f35b34801561069c57600080fd5b506106df600480360360208110156106b357600080fd5b81019080803573ffffffffffffffffffffffffffffffffffffffff1690602001909291905050506119b0565b005b3480156106ed57600080fd5b506107c76004803603604081101561070457600080fd5b81019080803573ffffffffffffffffffffffffffffffffffffffff1690602001909291908035906020019064010000000081111561074157600080fd5b82018360208201111561075357600080fd5b8035906020019184600183028401116401000000008311171561077557600080fd5b91908080601f016020809104026020016040519081016040528093929190818152602001838380828437600081840152601f19601f820116905080830192505050505050509192919290505050611b30565b005b3480156107d557600080fd5b50610802600480360360208110156107ec57600080fd5b8101908080359060200190929190505050611e19565b604051808273ffffffffffffffffffffffffffffffffffffffff1673ffffffffffffffffffffffffffffffffffffffff16815260200191505060405180910390f35b6108ae600480360360a081101561085a57600080fd5b81019080803573ffffffffffffffffffffffffffffffffffffffff16906020019092919080359060200190929190803590602001909291908035906020019092919080359060200190929190505050611e4c565b005b3480156108bc57600080fd5b506108ff600480360360208110156108d357600080fd5b81019080803573ffffffffffffffffffffffffffffffffffffffff1690602001909291905050506121c0565b604051808215151515815260200191505060405180910390f35b34801561092557600080fd5b506109686004803603602081101561093c57600080fd5b81019080803573ffffffffffffffffffffffffffffffffffffffff1690602001909291905050506121e0565b005b34801561097657600080fd5b506109a36004803603602081101561098d57600080fd5b81019080803590602001909291905050506122e6565b604051808d73ffffffffffffffffffffffffffffffffffffffff1673ffffffffffffffffffffffffffffffffffffffff1681526020018c81526020018b81526020018a1515151581526020018965ffffffffffff1665ffffffffffff1681526020018865ffffffffffff1665ffffffffffff1681526020018762ffffff1662ffffff1681526020018663ffffffff1663ffffffff1681526020018563ffffffff1663ffffffff1681526020018462ffffff1662ffffff1681526020018363ffffffff1663ffffffff1681526020018261ffff1661ffff1681526020019c5050505050505050505050505060405180910390f35b348015610aa257600080fd5b50610aab6123f3565b6040518082600260200280838360005b83811015610ad6578082015181840152602081019050610abb565b5050505090500191505060405180910390f35b600660003373ffffffffffffffffffffffffffffffffffffffff1673ffffffffffffffffffffffffffffffffffffffff16815260200190815260200160002060009054906101000a900460ff16610ba8576040517f08c379a000000000000000000000000000000000000000000000000000000000815260040180806020018281038252600a8152602001807f6f6e6c792061646d696e0000000000000000000000000000000000000000000081525060200191505060405180910390fd5b6007600084815260200190815260200160002060030160009054906101000a900460ff1615610c3f576040517f08c379a00000000000000000000000000000000000000000000000000000000081526004018080602001828103825260158152602001807f6465616c20616c72656164792070616964206f7574000000000000000000000081525060200191505060405180910390fd5b6007600084815260200190815260200160002060030160149054906101000a900463ffffffff1663ffffffff166007600085815260200190815260200160002060030160109054906101000a900463ffffffff1663ffffffff1610610d0c576040517f08c379a000000000000000000000000000000000000000000000000000000000815260040180806020018281038252601c8152602001807f6e6f206d6f726520766572696669636174696f6e20616c6c6f7765640000000081525060200191505060405180910390fd5b60076000848152602001908152602001600020600301601081819054906101000a900463ffffffff168092919060010191906101000a81548163ffffffff021916908363ffffffff16021790555050610d6686868661106c565b610d9c57827f643cf4dabfd4a7f40124a194f8a60596ee2276f8e52a8104edfdb39f32c9f34860405160405180910390a2610efb565b6007600084815260200190815260200160002060030160079054906101000a900465ffffffffffff1665ffffffffffff16811180610e0957506007600084815260200190815260200160002060030160019054906101000a900465ffffffffffff1665ffffffffffff1681105b15610e4057827f970af5888660a16f60e51d81ec9a8c11b538f756b487bdf242984585d7e9debc60405160405180910390a2610efa565b6007600084815260200190815260200160002060040160009054906101000a900461ffff1661ffff16821115610eac577f836e864a0bfa744ea62dfa17037bc2662afba4b6b828d8ffde73fde0db3e6e3b836040518082815260200191505060405180910390a1610ef9565b60076000848152602001908152602001600020600301600d81819054906101000a900462ffffff168092919060010191906101000a81548162ffffff021916908362ffffff160217905550505b5b5b6007600084815260200190815260200160002060030160149054906101000a900463ffffffff1663ffffffff166007600085815260200190815260200160002060030160109054906101000a900463ffffffff1663ffffffff161415611064576110346007600085815260200190815260200160002060000160009054906101000a900473ffffffffffffffffffffffffffffffffffffffff16600760008681526020019081526020016000206002015460076000878152602001908152602001600020600301600d9054906101000a900462ffffff1662ffffff166007600088815260200190815260200160002060030160189054906101000a900462ffffff1662ffffff1660076000898152602001908152602001600020600301601b9054906101000a900463ffffffff1663ffffffff16611e4c565b60016007600085815260200190815260200160002060030160006101000a81548160ff0219169083151502179055505b505050505050565b600080846040516020018082805190602001908083835b602083106110a65780518252602082019150602081019050602083039250611083565b6001836020036101000a038019825116818451168082178552505050505050905001915050604051602081830303815290604052805190602001209050600080600090506000601b90505b601d8160ff1610156111ca5760018482898960405160008152602001604052604051808581526020018460ff1660ff1681526020018381526020018281526020019450505050506020604051602081039080840390855afa15801561115a573d6000803e3d6000fd5b505050602060405103519250600460008473ffffffffffffffffffffffffffffffffffffffff1673ffffffffffffffffffffffffffffffffffffffff16815260200190815260200160002060009054906101000a900460ff16156111bd57600191505b80806001019150506110f1565b508093505050509392505050565b600160009054906101000a900473ffffffffffffffffffffffffffffffffffffffff1681565b600047905090565b600160009054906101000a900473ffffffffffffffffffffffffffffffffffffffff1673ffffffffffffffffffffffffffffffffffffffff163373ffffffffffffffffffffffffffffffffffffffff161461126057600080fd5b6040518061018001604052808473ffffffffffffffffffffffffffffffffffffffff1681526020018381526020018260008151811061129b57fe5b60200260200101518152602001600015158152602001826006815181106112be57fe5b602002602001015165ffffffffffff168152602001826001815181106112e057fe5b602002602001015165ffffffffffff168152602001600062ffffff168152602001600063ffffffff1681526020018260028151811061131b57fe5b602002602001015163ffffffff1681526020018260038151811061133b57fe5b602002602001015162ffffff1681526020018260048151811061135a57fe5b602002602001015163ffffffff1681526020018260058151811061137a57fe5b602002602001015161ffff168152506007600084815260200190815260200160002060008201518160000160006101000a81548173ffffffffffffffffffffffffffffffffffffffff021916908373ffffffffffffffffffffffffffffffffffffffff160217905550602082015181600101556040820151816002015560608201518160030160006101000a81548160ff02191690831515021790555060808201518160030160016101000a81548165ffffffffffff021916908365ffffffffffff16021790555060a08201518160030160076101000a81548165ffffffffffff021916908365ffffffffffff16021790555060c082015181600301600d6101000a81548162ffffff021916908362ffffff16021790555060e08201518160030160106101000a81548163ffffffff021916908363ffffffff1602179055506101008201518160030160146101000a81548163ffffffff021916908363ffffffff1602179055506101208201518160030160186101000a81548162ffffff021916908362ffffff16021790555061014082015181600301601b6101000a81548163ffffffff021916908363ffffffff1602179055506101608201518160040160006101000a81548161ffff021916908361ffff160217905550905050505050565b60046020528060005260406000206000915054906101000a900460ff1681565b600660003373ffffffffffffffffffffffffffffffffffffffff1673ffffffffffffffffffffffffffffffffffffffff16815260200190815260200160002060009054906101000a900460ff1661163a576040517f08c379a000000000000000000000000000000000000000000000000000000000815260040180806020018281038252600a8152602001807f6f6e6c792061646d696e0000000000000000000000000000000000000000000081525060200191505060405180910390fd5b600460008273ffffffffffffffffffffffffffffffffffffffff1673ffffffffffffffffffffffffffffffffffffffff16815260200190815260200160002060009054906101000a900460ff16156116fa576040517f08c379a00000000000000000000000000000000000000000000000000000000081526004018080602001828103825260148152602001807f61646472657373206f6e2057686974654c69737400000000000000000000000081525060200191505060405180910390fd5b600560008273ffffffffffffffffffffffffffffffffffffffff1673ffffffffffffffffffffffffffffffffffffffff16815260200190815260200160002060009054906101000a900460ff16156117ba576040517f08c379a000000000000000000000000000000000000000000000000000000000815260040180806020018281038252600e8152602001807f616464726573732062616e6e656400000000000000000000000000000000000081525060200191505060405180910390fd5b6001600460008373ffffffffffffffffffffffffffffffffffffffff1673ffffffffffffffffffffffffffffffffffffffff16815260200190815260200160002060006101000a81548160ff0219169083151502179055503373ffffffffffffffffffffffffffffffffffffffff168173ffffffffffffffffffffffffffffffffffffffff167f591b6624e864e1c34d95f6c5feb870b3a0a3638153b086a1442d725ccf0e5f0f60405160405180910390a350565b60056020528060005260406000206000915054906101000a900460ff1681565b600160009054906101000a900473ffffffffffffffffffffffffffffffffffffffff1673ffffffffffffffffffffffffffffffffffffffff163373ffffffffffffffffffffffffffffffffffffffff16146118e957600080fd5b6001600660008373ffffffffffffffffffffffffffffffffffffffff1673ffffffffffffffffffffffffffffffffffffffff16815260200190815260200160002060006101000a81548160ff0219169083151502179055508073ffffffffffffffffffffffffffffffffffffffff167f44d6d25963f097ad14f29f06854a01f575648a1ef82f30e562ccd3889717e33960405160405180910390a250565b60008060009054906101000a900473ffffffffffffffffffffffffffffffffffffffff16905090565b6000809054906101000a900473ffffffffffffffffffffffffffffffffffffffff1673ffffffffffffffffffffffffffffffffffffffff163373ffffffffffffffffffffffffffffffffffffffff1614611a72576040517f08c379a00000000000000000000000000000000000000000000000000000000081526004018080602001828103825260138152602001807f43616c6c6572206973206e6f74206f776e65720000000000000000000000000081525060200191505060405180910390fd5b8073ffffffffffffffffffffffffffffffffffffffff166000809054906101000a900473ffffffffffffffffffffffffffffffffffffffff1673ffffffffffffffffffffffffffffffffffffffff167f342827c97908e5e2f71151c08502a66d44b6f758e3ac2f1de95f02eb95f0a73560405160405180910390a3806000806101000a81548173ffffffffffffffffffffffffffffffffffffffff021916908373ffffffffffffffffffffffffffffffffffffffff16021790555050565b6000809054906101000a900473ffffffffffffffffffffffffffffffffffffffff1673ffffffffffffffffffffffffffffffffffffffff163373ffffffffffffffffffffffffffffffffffffffff1614611bf2576040517f08c379a00000000000000000000000000000000000000000000000000000000081526004018080602001828103825260138152602001807f43616c6c6572206973206e6f74206f776e65720000000000000000000000000081525060200191505060405180910390fd5b600560008373ffffffffffffffffffffffffffffffffffffffff1673ffffffffffffffffffffffffffffffffffffffff16815260200190815260200160002060009054906101000a900460ff1615611cb2576040517f08c379a00000000000000000000000000000000000000000000000000000000081526004018080602001828103825260168152602001807f6164647265737320616c72656164792062616e6e65640000000000000000000081525060200191505060405180910390fd5b6000600460008473ffffffffffffffffffffffffffffffffffffffff1673ffffffffffffffffffffffffffffffffffffffff16815260200190815260200160002060006101000a81548160ff0219169083151502179055506001600560008473ffffffffffffffffffffffffffffffffffffffff1673ffffffffffffffffffffffffffffffffffffffff16815260200190815260200160002060006101000a81548160ff0219169083151502179055508173ffffffffffffffffffffffffffffffffffffffff167fe1eb1e3d54c746594d73a0befcdfada1376ed4a97b55ce9953eea88ace04baba826040518080602001828103825283818151815260200191508051906020019080838360005b83811015611ddb578082015181840152602081019050611dc0565b50505050905090810190601f168015611e085780820380516001836020036101000a031916815260200191505b509250505060405180910390a25050565b60028160028110611e2657fe5b016000915054906101000a900473ffffffffffffffffffffffffffffffffffffffff1681565b600660003373ffffffffffffffffffffffffffffffffffffffff1673ffffffffffffffffffffffffffffffffffffffff16815260200190815260200160002060009054906101000a900460ff16611f0b576040517f08c379a000000000000000000000000000000000000000000000000000000000815260040180806020018281038252600a8152602001807f6f6e6c792061646d696e0000000000000000000000000000000000000000000081525060200191505060405180910390fd5b600073ffffffffffffffffffffffffffffffffffffffff168573ffffffffffffffffffffffffffffffffffffffff161415611fae576040517f08c379a000000000000000000000000000000000000000000000000000000000815260040180806020018281038252600f8152602001807f496e76616c69642061646472657373000000000000000000000000000000000081525060200191505060405180910390fd5b83471015611fbb57600080fd5b60008184106120aa57600060608773ffffffffffffffffffffffffffffffffffffffff168760405180600001905060006040518083038185875af1925050503d8060008114612026576040519150601f19603f3d011682016040523d82523d6000602084013e61202b565b606091505b5091509150816120a3576040517f08c379a00000000000000000000000000000000000000000000000000000000081526004018080602001828103825260128152602001807f5472616e73616374696f6e206661696c6564000000000000000000000000000081525060200191505060405180910390fd5b50506121b8565b8284106121b7578260020282600202038385038602816120c657fe5b04600286816120d157fe5b04019050600060608773ffffffffffffffffffffffffffffffffffffffff168360405180600001905060006040518083038185875af1925050503d8060008114612137576040519150601f19603f3d011682016040523d82523d6000602084013e61213c565b606091505b5091509150816121b4576040517f08c379a00000000000000000000000000000000000000000000000000000000081526004018080602001828103825260128152602001807f5472616e73616374696f6e206661696c6564000000000000000000000000000081525060200191505060405180910390fd5b50505b5b505050505050565b60066020528060005260406000206000915054906101000a900460ff1681565b6000809054906101000a900473ffffffffffffffffffffffffffffffffffffffff1673ffffffffffffffffffffffffffffffffffffffff163373ffffffffffffffffffffffffffffffffffffffff16146122a2576040517f08c379a00000000000000000000000000000000000000000000000000000000081526004018080602001828103825260138152602001807f43616c6c6572206973206e6f74206f776e65720000000000000000000000000081525060200191505060405180910390fd5b80600160006101000a81548173ffffffffffffffffffffffffffffffffffffffff021916908373ffffffffffffffffffffffffffffffffffffffff16021790555050565b60076020528060005260406000206000915090508060000160009054906101000a900473ffffffffffffffffffffffffffffffffffffffff16908060010154908060020154908060030160009054906101000a900460ff16908060030160019054906101000a900465ffffffffffff16908060030160079054906101000a900465ffffffffffff169080600301600d9054906101000a900462ffffff16908060030160109054906101000a900463ffffffff16908060030160149054906101000a900463ffffffff16908060030160189054906101000a900462ffffff169080600301601b9054906101000a900463ffffffff16908060040160009054906101000a900461ffff1690508c565b6123fb612473565b60028080602002604051908101604052809291908260028015612469576020028201915b8160009054906101000a900473ffffffffffffffffffffffffffffffffffffffff1673ffffffffffffffffffffffffffffffffffffffff168152602001906001019080831161241f575b5050505050905090565b604051806040016040528060029060208202803883398082019150509050509056fea265627a7a7231582015630cdddc0d3920e586bb3ba0c56f08a4d23f1e69f53a4a9ad81197fe77d8be64736f6c63430005100032",
  "source": "pragma solidity >=0.5.0 <0.9.0;\n\nimport './Owner.sol';\n\ncontract Escrow is Owner {\n    //Storage variables\n    address public storageContract;\n    address[2] public addressesCheck;\n    mapping (address => bool) public whiteList;\n    mapping (address => bool) public blackList; //addresses which canot be added to whitelist\n    mapping (address => bool) public adminMap;\n    mapping (bytes32 => VerifyInfo) public verificationInfo;\n\n    event Received(address indexed _sender, uint _amount);\n    event BlackListAddition(address indexed _deviceAddress, string _reason);\n    event WhiteListAddition(address indexed _deviceAddress, address indexed _approver);\n    event AdminAdded(address indexed _added);\n    event NotOnWhiteList(bytes32 indexed _UUID);\n    event DateNotValid(bytes32 indexed _UUID);\n    event UncleanLevel(bytes32 _UUID);\n\n    struct VerifyInfo {\n        address payable companyAddress;\n        bytes32 UUID;\n        uint256 dealBalance;\n        //string deviceIMEI; ///IMEI for device that will be at location\n        bool paidOut; ///flag to see if pay out has been given or not\n        ///Struct Packing rest of integers\n        uint48 timeStart; ///start of Deal\n        uint48 timeEnd; /// end of Deal\n        uint24 SuccessVerify; ///successful verifications\n        uint32 totalCurrentCount; ///total current verifications\n        uint32 totalCountsAllowed; ///number of data points to be validated\n        uint24 minThreshold; ///minimum number of successful validations to start receiving reward\n        uint32 maxThreshold; ///number of successful validations to receive full reward;\n        uint16 gasResistanceTarget; ///target reading that is max acceptable air quality\n    }\n\n    constructor() public {\n            adminMap[msg.sender] = true;\n    }\n\n    modifier onlyStorageContract(){\n        require(msg.sender == storageContract);\n        _;\n    }\n\n    modifier onlyAdmin(){\n        require (adminMap[msg.sender], \"only admin\");\n        _;\n    }\n\n    /*receive() external payable {\n        emit Received(msg.sender, msg.value);\n    } */ //newer version of solidity   \n\n    function() external payable {\n        require(msg.value > 0);\n        emit Received(msg.sender, msg.value);\n    }\n\n    function getBalance() public view returns(uint){\n        return address(this).balance;\n    }\n\n    function setStorageContract(address _storageContract) public isOwner{\n        storageContract = _storageContract;\n    }\n\n    function addAdmin (address _addedAdmin) onlyStorageContract external {\n        adminMap[_addedAdmin] = true;\n        emit AdminAdded(_addedAdmin);\n    }\n\n    function triggerPayout(address payable _to, uint _balance, uint _success, uint _min, uint _max) public payable onlyAdmin{\n        require(_to !=address(0), \"Invalid address\");\n        require(address(this).balance >= _balance);\n        //(bool sent, bytes memory data) = _to.call.value(_amount);\n        uint portion;\n        if (_success >= _max){\n        (bool sent, bytes memory data) = _to.call.value(_balance)(\"\");\n        require(sent, \"Transaction failed\");\n        //_to.transfer(_balance);\n        }\n        else if(_success>=_min){\n            portion = _balance/2 + _balance*(_success-_min)/(2*_max-2*_min);\n            //_to.transfer(portion);\n            (bool sent, bytes memory data) = _to.call.value(portion)(\"\");\n            require(sent, \"Transaction failed\");\n        }  \n    }\n\n    function addToWhiteList (address _deviceAddress) public onlyAdmin{\n        require(!whiteList[_deviceAddress], \"address on WhiteList\");\n        require(!blackList[_deviceAddress], \"address banned\");\n        whiteList[_deviceAddress] = true;\n        emit WhiteListAddition(_deviceAddress, msg.sender);\n    }\n\n    function addToBlackList (address _deviceAddress, string memory _reason) public isOwner{\n        require(!blackList[_deviceAddress], \"address already banned\");\n        whiteList[_deviceAddress] = false;\n        blackList[_deviceAddress] = true;\n        emit BlackListAddition(_deviceAddress, _reason);\n    }\n\n    function checkSimulatorAddress (string memory jsonString, bytes32 r , bytes32 s) public returns (bool){\n        bytes32 testHash = keccak256(abi.encodePacked(jsonString));\n        address _deviceAddress;\n        bool onWhiteList = false;\n        for (uint8 v=27 ; v<29; v++){\n            _deviceAddress = ecrecover(testHash, v, r, s);\n            //addressesCheck[v-27]= _deviceAddress;\n            if(whiteList[_deviceAddress]){\n                onWhiteList = true;\n            }\n        }\n        return onWhiteList;\n    }\n\n    function checkDealInfo (string memory jsonString, bytes32 r , bytes32 s, bytes32 _UUID, uint gasTarget, uint time) public onlyAdmin{\n        \n        require(!verificationInfo[_UUID].paidOut, \"deal already paid out\");\n        require(verificationInfo[_UUID].totalCurrentCount < verificationInfo[_UUID].totalCountsAllowed, \"no more verification allowed\");\n        verificationInfo[_UUID].totalCurrentCount ++;\n        if(!checkSimulatorAddress(jsonString, r, s)){\n            emit NotOnWhiteList(_UUID);\n        }\n        else if(time > verificationInfo[_UUID].timeEnd || time < verificationInfo[_UUID].timeStart){\n            emit DateNotValid(_UUID);\n        }\n        else if (gasTarget > verificationInfo[_UUID].gasResistanceTarget){\n            emit UncleanLevel(_UUID);\n        }\n        else{\n            verificationInfo[_UUID].SuccessVerify ++;\n        }\n        if(verificationInfo[_UUID].totalCurrentCount == verificationInfo[_UUID].totalCountsAllowed){\n            triggerPayout(verificationInfo[_UUID].companyAddress, verificationInfo[_UUID].dealBalance, verificationInfo[_UUID].SuccessVerify, verificationInfo[_UUID].minThreshold, verificationInfo[_UUID].maxThreshold);\n            verificationInfo[_UUID].paidOut = true;\n        }   \n    }\n\n    function returnSimulatorAddresses() public view returns(address[2] memory){\n        return addressesCheck;\n    }\n\n    function setDealVerify(address payable _companyAddress, bytes32 _UUID, uint[] memory intInfo) public onlyStorageContract {\n            verificationInfo[_UUID] = VerifyInfo({\n            companyAddress : _companyAddress,\n            UUID : _UUID,\n            paidOut: false,\n            dealBalance: intInfo[0],\n            timeStart : uint48(intInfo[6]),\n            timeEnd : uint48(intInfo[1]),\n            SuccessVerify : 0,\n            totalCurrentCount : 0,\n            totalCountsAllowed : uint32(intInfo[2]),\n            minThreshold : uint24(intInfo[3]), \n            maxThreshold : uint32(intInfo[4]),\n            gasResistanceTarget : uint16(intInfo[5])\n            });\n    }\n}",
  "sourcePath": "/home/jpick713/BlockChain_Apps/iotex-dapp/contracts/Escrow.sol",
  "compiler": {
    "name": "solc",
    "version": "0.5.16+commit.9c3226ce.Emscripten.clang"
  },
  "schemaVersion": "3.4.1",
  "updatedAt": "2021-07-16T18:44:48.906Z",
  "networkType": "ethereum",
  "devdoc": {
    "methods": {
      "changeOwner(address)": {
        "details": "Change owner",
        "params": {
          "newOwner": "address of new owner"
        }
      },
      "getOwner()": {
        "details": "Return owner address ",
        "return": "address of owner"
      }
    }
  },
  "userdoc": {
    "methods": {}
  }
}