{
  "contractName": "StateMonitor",
  "abi": [
    {
      "inputs": [
        {
          "internalType": "address payable",
          "name": "_escrow",
          "type": "address"
        }
      ],
      "payable": false,
      "stateMutability": "nonpayable",
      "type": "constructor"
    },
    {
      "anonymous": false,
      "inputs": [
        {
          "indexed": false,
          "internalType": "address",
          "name": "_originator",
          "type": "address"
        },
        {
          "indexed": true,
          "internalType": "string",
          "name": "_companyID",
          "type": "string"
        },
        {
          "indexed": true,
          "internalType": "bytes32",
          "name": "_uuid",
          "type": "bytes32"
        }
      ],
      "name": "DealInitiated",
      "type": "event"
    },
    {
      "anonymous": false,
      "inputs": [
        {
          "indexed": true,
          "internalType": "address",
          "name": "_deviceOwner",
          "type": "address"
        },
        {
          "indexed": false,
          "internalType": "string",
          "name": "_IMEI",
          "type": "string"
        }
      ],
      "name": "DeviceDeleted",
      "type": "event"
    },
    {
      "anonymous": false,
      "inputs": [
        {
          "indexed": true,
          "internalType": "address",
          "name": "_deviceOwner",
          "type": "address"
        },
        {
          "indexed": true,
          "internalType": "string",
          "name": "_IMEI",
          "type": "string"
        }
      ],
      "name": "DeviceRegistered",
      "type": "event"
    },
    {
      "anonymous": false,
      "inputs": [
        {
          "indexed": true,
          "internalType": "address",
          "name": "oldOwner",
          "type": "address"
        },
        {
          "indexed": true,
          "internalType": "address",
          "name": "newOwner",
          "type": "address"
        }
      ],
      "name": "OwnerSet",
      "type": "event"
    },
    {
      "anonymous": false,
      "inputs": [
        {
          "indexed": false,
          "internalType": "address",
          "name": "_sender",
          "type": "address"
        },
        {
          "indexed": false,
          "internalType": "uint256",
          "name": "_amount",
          "type": "uint256"
        }
      ],
      "name": "Received",
      "type": "event"
    },
    {
      "payable": true,
      "stateMutability": "payable",
      "type": "fallback"
    },
    {
      "constant": true,
      "inputs": [
        {
          "internalType": "address",
          "name": "",
          "type": "address"
        }
      ],
      "name": "adminMap",
      "outputs": [
        {
          "internalType": "bool",
          "name": "",
          "type": "bool"
        }
      ],
      "payable": false,
      "stateMutability": "view",
      "type": "function"
    },
    {
      "constant": true,
      "inputs": [
        {
          "internalType": "uint256",
          "name": "",
          "type": "uint256"
        }
      ],
      "name": "admins",
      "outputs": [
        {
          "internalType": "address",
          "name": "",
          "type": "address"
        }
      ],
      "payable": false,
      "stateMutability": "view",
      "type": "function"
    },
    {
      "constant": true,
      "inputs": [
        {
          "internalType": "uint256",
          "name": "",
          "type": "uint256"
        }
      ],
      "name": "allDeals",
      "outputs": [
        {
          "internalType": "address",
          "name": "originator",
          "type": "address"
        },
        {
          "internalType": "address payable",
          "name": "companyAddress",
          "type": "address"
        },
        {
          "internalType": "bool",
          "name": "isActive",
          "type": "bool"
        },
        {
          "internalType": "bytes32",
          "name": "uuid",
          "type": "bytes32"
        },
        {
          "internalType": "string",
          "name": "companyID",
          "type": "string"
        },
        {
          "internalType": "string",
          "name": "deviceIMEI",
          "type": "string"
        }
      ],
      "payable": false,
      "stateMutability": "view",
      "type": "function"
    },
    {
      "constant": false,
      "inputs": [
        {
          "internalType": "address",
          "name": "newOwner",
          "type": "address"
        }
      ],
      "name": "changeOwner",
      "outputs": [],
      "payable": false,
      "stateMutability": "nonpayable",
      "type": "function"
    },
    {
      "constant": true,
      "inputs": [
        {
          "internalType": "bytes32",
          "name": "",
          "type": "bytes32"
        }
      ],
      "name": "deals",
      "outputs": [
        {
          "internalType": "address",
          "name": "originator",
          "type": "address"
        },
        {
          "internalType": "address payable",
          "name": "companyAddress",
          "type": "address"
        },
        {
          "internalType": "bool",
          "name": "isActive",
          "type": "bool"
        },
        {
          "internalType": "bytes32",
          "name": "uuid",
          "type": "bytes32"
        },
        {
          "internalType": "string",
          "name": "companyID",
          "type": "string"
        },
        {
          "internalType": "string",
          "name": "deviceIMEI",
          "type": "string"
        }
      ],
      "payable": false,
      "stateMutability": "view",
      "type": "function"
    },
    {
      "constant": true,
      "inputs": [
        {
          "internalType": "address",
          "name": "",
          "type": "address"
        },
        {
          "internalType": "uint256",
          "name": "",
          "type": "uint256"
        }
      ],
      "name": "dealsByCompanyAddress",
      "outputs": [
        {
          "internalType": "address",
          "name": "originator",
          "type": "address"
        },
        {
          "internalType": "address payable",
          "name": "companyAddress",
          "type": "address"
        },
        {
          "internalType": "bool",
          "name": "isActive",
          "type": "bool"
        },
        {
          "internalType": "bytes32",
          "name": "uuid",
          "type": "bytes32"
        },
        {
          "internalType": "string",
          "name": "companyID",
          "type": "string"
        },
        {
          "internalType": "string",
          "name": "deviceIMEI",
          "type": "string"
        }
      ],
      "payable": false,
      "stateMutability": "view",
      "type": "function"
    },
    {
      "constant": true,
      "inputs": [
        {
          "internalType": "address",
          "name": "",
          "type": "address"
        },
        {
          "internalType": "uint256",
          "name": "",
          "type": "uint256"
        }
      ],
      "name": "dealsOriginator",
      "outputs": [
        {
          "internalType": "address",
          "name": "originator",
          "type": "address"
        },
        {
          "internalType": "address payable",
          "name": "companyAddress",
          "type": "address"
        },
        {
          "internalType": "bool",
          "name": "isActive",
          "type": "bool"
        },
        {
          "internalType": "bytes32",
          "name": "uuid",
          "type": "bytes32"
        },
        {
          "internalType": "string",
          "name": "companyID",
          "type": "string"
        },
        {
          "internalType": "string",
          "name": "deviceIMEI",
          "type": "string"
        }
      ],
      "payable": false,
      "stateMutability": "view",
      "type": "function"
    },
    {
      "constant": true,
      "inputs": [
        {
          "internalType": "string",
          "name": "",
          "type": "string"
        }
      ],
      "name": "deviceIMEIs",
      "outputs": [
        {
          "internalType": "address",
          "name": "deviceOwner",
          "type": "address"
        },
        {
          "internalType": "string",
          "name": "IMEI",
          "type": "string"
        },
        {
          "internalType": "string",
          "name": "privKey",
          "type": "string"
        },
        {
          "internalType": "address",
          "name": "deviceAddress",
          "type": "address"
        },
        {
          "internalType": "bool",
          "name": "exists",
          "type": "bool"
        }
      ],
      "payable": false,
      "stateMutability": "view",
      "type": "function"
    },
    {
      "constant": true,
      "inputs": [
        {
          "internalType": "address",
          "name": "",
          "type": "address"
        },
        {
          "internalType": "uint256",
          "name": "",
          "type": "uint256"
        }
      ],
      "name": "deviceOwners",
      "outputs": [
        {
          "internalType": "address",
          "name": "deviceOwner",
          "type": "address"
        },
        {
          "internalType": "string",
          "name": "IMEI",
          "type": "string"
        },
        {
          "internalType": "string",
          "name": "privKey",
          "type": "string"
        },
        {
          "internalType": "address",
          "name": "deviceAddress",
          "type": "address"
        },
        {
          "internalType": "bool",
          "name": "exists",
          "type": "bool"
        }
      ],
      "payable": false,
      "stateMutability": "view",
      "type": "function"
    },
    {
      "constant": true,
      "inputs": [],
      "name": "escrow",
      "outputs": [
        {
          "internalType": "address",
          "name": "",
          "type": "address"
        }
      ],
      "payable": false,
      "stateMutability": "view",
      "type": "function"
    },
    {
      "constant": true,
      "inputs": [],
      "name": "escrowContract",
      "outputs": [
        {
          "internalType": "contract Escrow",
          "name": "",
          "type": "address"
        }
      ],
      "payable": false,
      "stateMutability": "view",
      "type": "function"
    },
    {
      "constant": true,
      "inputs": [],
      "name": "getOwner",
      "outputs": [
        {
          "internalType": "address",
          "name": "",
          "type": "address"
        }
      ],
      "payable": false,
      "stateMutability": "view",
      "type": "function"
    },
    {
      "constant": true,
      "inputs": [],
      "name": "getAllAdmins",
      "outputs": [
        {
          "internalType": "address[]",
          "name": "",
          "type": "address[]"
        }
      ],
      "payable": false,
      "stateMutability": "view",
      "type": "function"
    },
    {
      "constant": true,
      "inputs": [
        {
          "internalType": "address",
          "name": "_address",
          "type": "address"
        }
      ],
      "name": "getAllOwnersDevices",
      "outputs": [
        {
          "components": [
            {
              "internalType": "address",
              "name": "deviceOwner",
              "type": "address"
            },
            {
              "internalType": "string",
              "name": "IMEI",
              "type": "string"
            },
            {
              "internalType": "string",
              "name": "privKey",
              "type": "string"
            },
            {
              "internalType": "address",
              "name": "deviceAddress",
              "type": "address"
            },
            {
              "internalType": "bool",
              "name": "exists",
              "type": "bool"
            }
          ],
          "internalType": "struct StateMonitor.Device[]",
          "name": "",
          "type": "tuple[]"
        }
      ],
      "payable": false,
      "stateMutability": "view",
      "type": "function"
    },
    {
      "constant": true,
      "inputs": [
        {
          "internalType": "address",
          "name": "_address",
          "type": "address"
        }
      ],
      "name": "getOriginatorsDeals",
      "outputs": [
        {
          "components": [
            {
              "internalType": "address",
              "name": "originator",
              "type": "address"
            },
            {
              "internalType": "address payable",
              "name": "companyAddress",
              "type": "address"
            },
            {
              "internalType": "bool",
              "name": "isActive",
              "type": "bool"
            },
            {
              "internalType": "bytes32",
              "name": "uuid",
              "type": "bytes32"
            },
            {
              "internalType": "string",
              "name": "companyID",
              "type": "string"
            },
            {
              "internalType": "string",
              "name": "deviceIMEI",
              "type": "string"
            }
          ],
          "internalType": "struct StateMonitor.Deal[]",
          "name": "",
          "type": "tuple[]"
        }
      ],
      "payable": false,
      "stateMutability": "view",
      "type": "function"
    },
    {
      "constant": true,
      "inputs": [
        {
          "internalType": "address",
          "name": "_address",
          "type": "address"
        }
      ],
      "name": "getCompanyDeals",
      "outputs": [
        {
          "components": [
            {
              "internalType": "address",
              "name": "originator",
              "type": "address"
            },
            {
              "internalType": "address payable",
              "name": "companyAddress",
              "type": "address"
            },
            {
              "internalType": "bool",
              "name": "isActive",
              "type": "bool"
            },
            {
              "internalType": "bytes32",
              "name": "uuid",
              "type": "bytes32"
            },
            {
              "internalType": "string",
              "name": "companyID",
              "type": "string"
            },
            {
              "internalType": "string",
              "name": "deviceIMEI",
              "type": "string"
            }
          ],
          "internalType": "struct StateMonitor.Deal[]",
          "name": "",
          "type": "tuple[]"
        }
      ],
      "payable": false,
      "stateMutability": "view",
      "type": "function"
    },
    {
      "constant": false,
      "inputs": [
        {
          "internalType": "address",
          "name": "_addedAdmin",
          "type": "address"
        }
      ],
      "name": "addAdmin",
      "outputs": [],
      "payable": false,
      "stateMutability": "nonpayable",
      "type": "function"
    },
    {
      "constant": false,
      "inputs": [
        {
          "internalType": "string",
          "name": "_IMEI",
          "type": "string"
        },
        {
          "internalType": "string",
          "name": "_privKey",
          "type": "string"
        },
        {
          "internalType": "address",
          "name": "_deviceAddress",
          "type": "address"
        }
      ],
      "name": "registerDevice",
      "outputs": [],
      "payable": false,
      "stateMutability": "nonpayable",
      "type": "function"
    },
    {
      "constant": false,
      "inputs": [
        {
          "internalType": "string",
          "name": "_IMEI",
          "type": "string"
        }
      ],
      "name": "deleteDevice",
      "outputs": [],
      "payable": false,
      "stateMutability": "nonpayable",
      "type": "function"
    },
    {
      "constant": false,
      "inputs": [
        {
          "internalType": "address payable",
          "name": "_companyAddress",
          "type": "address"
        },
        {
          "internalType": "string",
          "name": "_companyID",
          "type": "string"
        },
        {
          "internalType": "uint256[]",
          "name": "dealInfoParams",
          "type": "uint256[]"
        },
        {
          "internalType": "string",
          "name": "_deviceIMEI",
          "type": "string"
        }
      ],
      "name": "initiateDeal",
      "outputs": [],
      "payable": false,
      "stateMutability": "nonpayable",
      "type": "function"
    },
    {
      "constant": true,
      "inputs": [],
      "name": "getBalance",
      "outputs": [
        {
          "internalType": "uint256",
          "name": "",
          "type": "uint256"
        }
      ],
      "payable": false,
      "stateMutability": "view",
      "type": "function"
    }
  ],
  "bytecode": "0x60806040523480156200001157600080fd5b506040516200502138038062005021833981810160405262000037919081019062000336565b336000806101000a81548173ffffffffffffffffffffffffffffffffffffffff021916908373ffffffffffffffffffffffffffffffffffffffff1602179055506000809054906101000a900473ffffffffffffffffffffffffffffffffffffffff1673ffffffffffffffffffffffffffffffffffffffff16600073ffffffffffffffffffffffffffffffffffffffff167f342827c97908e5e2f71151c08502a66d44b6f758e3ac2f1de95f02eb95f0a73560405160405180910390a3600073ffffffffffffffffffffffffffffffffffffffff168173ffffffffffffffffffffffffffffffffffffffff16141562000166576040517f08c379a00000000000000000000000000000000000000000000000000000000081526004016200015d90620003e6565b60405180910390fd5b3373ffffffffffffffffffffffffffffffffffffffff168173ffffffffffffffffffffffffffffffffffffffff161415620001d8576040517f08c379a0000000000000000000000000000000000000000000000000000000008152600401620001cf9062000408565b60405180910390fd5b80600360006101000a81548173ffffffffffffffffffffffffffffffffffffffff021916908373ffffffffffffffffffffffffffffffffffffffff16021790555080600460006101000a81548173ffffffffffffffffffffffffffffffffffffffff021916908373ffffffffffffffffffffffffffffffffffffffff16021790555060013390806001815401808255809150509060018203906000526020600020016000909192909190916101000a81548173ffffffffffffffffffffffffffffffffffffffff021916908373ffffffffffffffffffffffffffffffffffffffff160217905550506001600260003373ffffffffffffffffffffffffffffffffffffffff1673ffffffffffffffffffffffffffffffffffffffff16815260200190815260200160002060006101000a81548160ff0219169083151502179055505062000489565b60008151905062000330816200046f565b92915050565b6000602082840312156200034957600080fd5b600062000359848285016200031f565b91505092915050565b6000620003716009836200042a565b91507f7a65726f206164647200000000000000000000000000000000000000000000006000830152602082019050919050565b6000620003b3600e836200042a565b91507f63616e2774206265206f776e65720000000000000000000000000000000000006000830152602082019050919050565b60006020820190508181036000830152620004018162000362565b9050919050565b600060208201905081810360008301526200042381620003a4565b9050919050565b600082825260208201905092915050565b600062000448826200044f565b9050919050565b600073ffffffffffffffffffffffffffffffffffffffff82169050919050565b6200047a816200043b565b81146200048657600080fd5b50565b614b8880620004996000396000f3fe60806040526004361061012a5760003560e01c8063b86f1241116100ab578063e42a96e71161006f578063e42a96e714610492578063e5e1b2ef146104bd578063e9523c97146104fa578063ea4c161914610525578063f11c0c041461054e578063fb79b553146105905761012a565b8063b86f12411461037e578063c5caa257146103a7578063dbbc830b146103e8578063e07a9dd314610425578063e2fdcc17146104675761012a565b806373e0f4b5116100f257806373e0f4b51461027d57806381cd872a146102a6578063893d20e8146102e85780638a4ff66714610313578063a6f9dae1146103555761012a565b8063065317b31461017257806312065fe0146101af57806314bfd6d0146101da57806366a76eb1146102175780637048027514610254575b6000341161013757600080fd5b7f88a5966d370b9919b20f3e2c13ff65706f196a4e32cc2c12bf57088f8852587433346040516101689291906143f5565b60405180910390a1005b34801561017e57600080fd5b50610199600480360361019491908101906137d4565b6105d1565b6040516101a69190614510565b60405180910390f35b3480156101bb57600080fd5b506101c4610884565b6040516101d1919061478e565b60405180910390f35b3480156101e657600080fd5b5061020160048036036101fc9190810190613a0e565b61088c565b60405161020e9190614381565b60405180910390f35b34801561022357600080fd5b5061023e600480360361023991908101906137d4565b6108c8565b60405161024b9190614510565b60405180910390f35b34801561026057600080fd5b5061027b600480360361027691908101906137d4565b610b7b565b005b34801561028957600080fd5b506102a4600480360361029f91908101906137fd565b610e55565b005b3480156102b257600080fd5b506102cd60048036036102c891908101906138e4565b6116d2565b6040516102df9695949392919061441e565b60405180910390f35b3480156102f457600080fd5b506102fd61188b565b60405161030a9190614381565b60405180910390f35b34801561031f57600080fd5b5061033a600480360361033591908101906138a8565b6118b4565b60405161034c9695949392919061441e565b60405180910390f35b34801561036157600080fd5b5061037c600480360361037791908101906137d4565b611a87565b005b34801561038a57600080fd5b506103a560048036036103a0919081019061394e565b611bd4565b005b3480156103b357600080fd5b506103ce60048036036103c9919081019061390d565b612217565b6040516103df95949392919061448d565b60405180910390f35b3480156103f457600080fd5b5061040f600480360361040a91908101906137d4565b6123e0565b60405161041c9190614554565b60405180910390f35b34801561043157600080fd5b5061044c600480360361044791908101906138a8565b612400565b60405161045e9695949392919061441e565b60405180910390f35b34801561047357600080fd5b5061047c6125d3565b6040516104899190614381565b60405180910390f35b34801561049e57600080fd5b506104a76125f9565b6040516104b4919061456f565b60405180910390f35b3480156104c957600080fd5b506104e460048036036104df91908101906137d4565b61261f565b6040516104f19190614532565b60405180910390f35b34801561050657600080fd5b5061050f6128c8565b60405161051c91906144ee565b60405180910390f35b34801561053157600080fd5b5061054c6004803603610547919081019061398f565b612956565b005b34801561055a57600080fd5b5061057560048036036105709190810190613a0e565b612ce4565b6040516105879695949392919061441e565b60405180910390f35b34801561059c57600080fd5b506105b760048036036105b291908101906138a8565b612eaa565b6040516105c895949392919061448d565b60405180910390f35b6060600760008373ffffffffffffffffffffffffffffffffffffffff1673ffffffffffffffffffffffffffffffffffffffff168152602001908152602001600020805480602002602001604051908101604052809291908181526020016000905b8282101561087957838290600052602060002090600502016040518060c00160405290816000820160009054906101000a900473ffffffffffffffffffffffffffffffffffffffff1673ffffffffffffffffffffffffffffffffffffffff1673ffffffffffffffffffffffffffffffffffffffff1681526020016001820160009054906101000a900473ffffffffffffffffffffffffffffffffffffffff1673ffffffffffffffffffffffffffffffffffffffff1673ffffffffffffffffffffffffffffffffffffffff1681526020016001820160149054906101000a900460ff1615151515815260200160028201548152602001600382018054600181600116156101000203166002900480601f0160208091040260200160405190810160405280929190818152602001828054600181600116156101000203166002900480156107bf5780601f10610794576101008083540402835291602001916107bf565b820191906000526020600020905b8154815290600101906020018083116107a257829003601f168201915b50505050508152602001600482018054600181600116156101000203166002900480601f0160208091040260200160405190810160405280929190818152602001828054600181600116156101000203166002900480156108615780601f1061083657610100808354040283529160200191610861565b820191906000526020600020905b81548152906001019060200180831161084457829003601f168201915b50505050508152505081526020019060010190610632565b505050509050919050565b600047905090565b6001818154811061089957fe5b906000526020600020016000915054906101000a900473ffffffffffffffffffffffffffffffffffffffff1681565b6060600960008373ffffffffffffffffffffffffffffffffffffffff1673ffffffffffffffffffffffffffffffffffffffff168152602001908152602001600020805480602002602001604051908101604052809291908181526020016000905b82821015610b7057838290600052602060002090600502016040518060c00160405290816000820160009054906101000a900473ffffffffffffffffffffffffffffffffffffffff1673ffffffffffffffffffffffffffffffffffffffff1673ffffffffffffffffffffffffffffffffffffffff1681526020016001820160009054906101000a900473ffffffffffffffffffffffffffffffffffffffff1673ffffffffffffffffffffffffffffffffffffffff1673ffffffffffffffffffffffffffffffffffffffff1681526020016001820160149054906101000a900460ff1615151515815260200160028201548152602001600382018054600181600116156101000203166002900480601f016020809104026020016040519081016040528092919081815260200182805460018160011615610100020316600290048015610ab65780601f10610a8b57610100808354040283529160200191610ab6565b820191906000526020600020905b815481529060010190602001808311610a9957829003601f168201915b50505050508152602001600482018054600181600116156101000203166002900480601f016020809104026020016040519081016040528092919081815260200182805460018160011615610100020316600290048015610b585780601f10610b2d57610100808354040283529160200191610b58565b820191906000526020600020905b815481529060010190602001808311610b3b57829003601f168201915b50505050508152505081526020019060010190610929565b505050509050919050565b6000809054906101000a900473ffffffffffffffffffffffffffffffffffffffff1673ffffffffffffffffffffffffffffffffffffffff163373ffffffffffffffffffffffffffffffffffffffff1614610c0a576040517f08c379a0000000000000000000000000000000000000000000000000000000008152600401610c01906145ee565b60405180910390fd5b600073ffffffffffffffffffffffffffffffffffffffff168173ffffffffffffffffffffffffffffffffffffffff161415610c7a576040517f08c379a0000000000000000000000000000000000000000000000000000000008152600401610c719061464e565b60405180910390fd5b600260008273ffffffffffffffffffffffffffffffffffffffff1673ffffffffffffffffffffffffffffffffffffffff16815260200190815260200160002060009054906101000a900460ff1615610d07576040517f08c379a0000000000000000000000000000000000000000000000000000000008152600401610cfe9061474e565b60405180910390fd5b6001600260008373ffffffffffffffffffffffffffffffffffffffff1673ffffffffffffffffffffffffffffffffffffffff16815260200190815260200160002060006101000a81548160ff02191690831515021790555060018190806001815401808255809150509060018203906000526020600020016000909192909190916101000a81548173ffffffffffffffffffffffffffffffffffffffff021916908373ffffffffffffffffffffffffffffffffffffffff16021790555050600460009054906101000a900473ffffffffffffffffffffffffffffffffffffffff1673ffffffffffffffffffffffffffffffffffffffff166370480275826040518263ffffffff1660e01b8152600401610e209190614381565b600060405180830381600087803b158015610e3a57600080fd5b505af1158015610e4e573d6000803e3d6000fd5b5050505050565b600260003373ffffffffffffffffffffffffffffffffffffffff1673ffffffffffffffffffffffffffffffffffffffff16815260200190815260200160002060009054906101000a900460ff16610ee1576040517f08c379a0000000000000000000000000000000000000000000000000000000008152600401610ed89061462e565b60405180910390fd5b81600681518110610eee57fe5b602002602001015182600181518110610f0357fe5b602002602001015111610f4b576040517f08c379a0000000000000000000000000000000000000000000000000000000008152600401610f42906146ce565b60405180910390fd5b81600081518110610f5857fe5b6020026020010151471015610fa2576040517f08c379a0000000000000000000000000000000000000000000000000000000008152600401610f99906146ee565b60405180910390fd5b600073ffffffffffffffffffffffffffffffffffffffff168473ffffffffffffffffffffffffffffffffffffffff161415611012576040517f08c379a00000000000000000000000000000000000000000000000000000000081526004016110099061476e565b60405180910390fd5b8160038151811061101f57fe5b60200260200101518260048151811061103457fe5b6020026020010151101561107d576040517f08c379a0000000000000000000000000000000000000000000000000000000008152600401611074906145ce565b60405180910390fd5b8160028151811061108a57fe5b60200260200101518260048151811061109f57fe5b602002602001015111156110e8576040517f08c379a00000000000000000000000000000000000000000000000000000000081526004016110df9061468e565b60405180910390fd5b6005816040516110f89190614355565b908152602001604051809103902060030160149054906101000a900460ff16611156576040517f08c379a000000000000000000000000000000000000000000000000000000000815260040161114d9061466e565b60405180910390fd5b6000338360068151811061116657fe5b602002602001015160405160200161117f929190614329565b60405160208183030381529060405280519060200120905061119f6131d9565b6040518060c001604052803373ffffffffffffffffffffffffffffffffffffffff1681526020018773ffffffffffffffffffffffffffffffffffffffff168152602001600115158152602001838152602001868152602001848152509050600760003373ffffffffffffffffffffffffffffffffffffffff1673ffffffffffffffffffffffffffffffffffffffff168152602001908152602001600020819080600181540180825580915050906001820390600052602060002090600502016000909192909190915060008201518160000160006101000a81548173ffffffffffffffffffffffffffffffffffffffff021916908373ffffffffffffffffffffffffffffffffffffffff16021790555060208201518160010160006101000a81548173ffffffffffffffffffffffffffffffffffffffff021916908373ffffffffffffffffffffffffffffffffffffffff16021790555060408201518160010160146101000a81548160ff02191690831515021790555060608201518160020155608082015181600301908051906020019061133c929190613240565b5060a0820151816004019080519060200190611359929190613240565b5050505080600860008360600151815260200190815260200160002060008201518160000160006101000a81548173ffffffffffffffffffffffffffffffffffffffff021916908373ffffffffffffffffffffffffffffffffffffffff16021790555060208201518160010160006101000a81548173ffffffffffffffffffffffffffffffffffffffff021916908373ffffffffffffffffffffffffffffffffffffffff16021790555060408201518160010160146101000a81548160ff021916908315150217905550606082015181600201556080820151816003019080519060200190611449929190613240565b5060a0820151816004019080519060200190611466929190613240565b50905050600960008773ffffffffffffffffffffffffffffffffffffffff1673ffffffffffffffffffffffffffffffffffffffff168152602001908152602001600020819080600181540180825580915050906001820390600052602060002090600502016000909192909190915060008201518160000160006101000a81548173ffffffffffffffffffffffffffffffffffffffff021916908373ffffffffffffffffffffffffffffffffffffffff16021790555060208201518160010160006101000a81548173ffffffffffffffffffffffffffffffffffffffff021916908373ffffffffffffffffffffffffffffffffffffffff16021790555060408201518160010160146101000a81548160ff0219169083151502179055506060820151816002015560808201518160030190805190602001906115a9929190613240565b5060a08201518160040190805190602001906115c6929190613240565b505050506115e7846000815181106115da57fe5b6020026020010151613077565b600460009054906101000a900473ffffffffffffffffffffffffffffffffffffffff1673ffffffffffffffffffffffffffffffffffffffff16632905543c8784876040518463ffffffff1660e01b8152600401611646939291906143b7565b600060405180830381600087803b15801561166057600080fd5b505af1158015611674573d6000803e3d6000fd5b5050505080606001518560405161168b9190614355565b60405180910390207f5e4ae1d0d98f2caa0149085848550b584d8d67100a91bec6affb6298d2fe46fc336040516116c2919061439c565b60405180910390a3505050505050565b60086020528060005260406000206000915090508060000160009054906101000a900473ffffffffffffffffffffffffffffffffffffffff16908060010160009054906101000a900473ffffffffffffffffffffffffffffffffffffffff16908060010160149054906101000a900460ff1690806002015490806003018054600181600116156101000203166002900480601f0160208091040260200160405190810160405280929190818152602001828054600181600116156101000203166002900480156117e35780601f106117b8576101008083540402835291602001916117e3565b820191906000526020600020905b8154815290600101906020018083116117c657829003601f168201915b505050505090806004018054600181600116156101000203166002900480601f0160208091040260200160405190810160405280929190818152602001828054600181600116156101000203166002900480156118815780601f1061185657610100808354040283529160200191611881565b820191906000526020600020905b81548152906001019060200180831161186457829003601f168201915b5050505050905086565b60008060009054906101000a900473ffffffffffffffffffffffffffffffffffffffff16905090565b600760205281600052604060002081815481106118cd57fe5b9060005260206000209060050201600091509150508060000160009054906101000a900473ffffffffffffffffffffffffffffffffffffffff16908060010160009054906101000a900473ffffffffffffffffffffffffffffffffffffffff16908060010160149054906101000a900460ff1690806002015490806003018054600181600116156101000203166002900480601f0160208091040260200160405190810160405280929190818152602001828054600181600116156101000203166002900480156119df5780601f106119b4576101008083540402835291602001916119df565b820191906000526020600020905b8154815290600101906020018083116119c257829003601f168201915b505050505090806004018054600181600116156101000203166002900480601f016020809104026020016040519081016040528092919081815260200182805460018160011615610100020316600290048015611a7d5780601f10611a5257610100808354040283529160200191611a7d565b820191906000526020600020905b815481529060010190602001808311611a6057829003601f168201915b5050505050905086565b6000809054906101000a900473ffffffffffffffffffffffffffffffffffffffff1673ffffffffffffffffffffffffffffffffffffffff163373ffffffffffffffffffffffffffffffffffffffff1614611b16576040517f08c379a0000000000000000000000000000000000000000000000000000000008152600401611b0d906145ee565b60405180910390fd5b8073ffffffffffffffffffffffffffffffffffffffff166000809054906101000a900473ffffffffffffffffffffffffffffffffffffffff1673ffffffffffffffffffffffffffffffffffffffff167f342827c97908e5e2f71151c08502a66d44b6f758e3ac2f1de95f02eb95f0a73560405160405180910390a3806000806101000a81548173ffffffffffffffffffffffffffffffffffffffff021916908373ffffffffffffffffffffffffffffffffffffffff16021790555050565b600581604051611be49190614355565b908152602001604051809103902060030160149054906101000a900460ff16611c42576040517f08c379a0000000000000000000000000000000000000000000000000000000008152600401611c399061470e565b60405180910390fd5b600581604051611c529190614355565b908152602001604051809103902060000160009054906101000a900473ffffffffffffffffffffffffffffffffffffffff1673ffffffffffffffffffffffffffffffffffffffff163373ffffffffffffffffffffffffffffffffffffffff1614611cf1576040517f08c379a0000000000000000000000000000000000000000000000000000000008152600401611ce89061460e565b60405180910390fd5b6000600660003373ffffffffffffffffffffffffffffffffffffffff1673ffffffffffffffffffffffffffffffffffffffff168152602001908152602001600020905060008090505b81805490508110156120455782604051602001611d57919061458a565b60405160208183030381529060405280519060200120828281548110611d7957fe5b9060005260206000209060040201600101604051602001611d9a91906145ac565b6040516020818303038152906040528051906020012014156120385781600183805490500381548110611dc957fe5b9060005260206000209060040201828281548110611de357fe5b90600052602060002090600402016000820160009054906101000a900473ffffffffffffffffffffffffffffffffffffffff168160000160006101000a81548173ffffffffffffffffffffffffffffffffffffffff021916908373ffffffffffffffffffffffffffffffffffffffff16021790555060018201816001019080546001816001161561010002031660029004611e7f9291906132c0565b5060028201816002019080546001816001161561010002031660029004611ea79291906132c0565b506003820160009054906101000a900473ffffffffffffffffffffffffffffffffffffffff168160030160006101000a81548173ffffffffffffffffffffffffffffffffffffffff021916908373ffffffffffffffffffffffffffffffffffffffff1602179055506003820160149054906101000a900460ff168160030160146101000a81548160ff02191690831515021790555090505081805480611f4957fe5b6001900381819060005260206000209060040201600080820160006101000a81549073ffffffffffffffffffffffffffffffffffffffff0219169055600182016000611f959190613347565b600282016000611fa59190613347565b6003820160006101000a81549073ffffffffffffffffffffffffffffffffffffffff02191690556003820160146101000a81549060ff02191690555050905581600660003373ffffffffffffffffffffffffffffffffffffffff1673ffffffffffffffffffffffffffffffffffffffff16815260200190815260200160002090805461203292919061338f565b50612045565b8080600101915050611d3a565b506040518060a00160405280600073ffffffffffffffffffffffffffffffffffffffff168152602001604051806020016040528060008152508152602001604051806020016040528060008152508152602001600073ffffffffffffffffffffffffffffffffffffffff168152602001600015158152506005836040516120cc9190614355565b908152602001604051809103902060008201518160000160006101000a81548173ffffffffffffffffffffffffffffffffffffffff021916908373ffffffffffffffffffffffffffffffffffffffff160217905550602082015181600101908051906020019061213d929190613240565b50604082015181600201908051906020019061215a929190613240565b5060608201518160030160006101000a81548173ffffffffffffffffffffffffffffffffffffffff021916908373ffffffffffffffffffffffffffffffffffffffff16021790555060808201518160030160146101000a81548160ff0219169083151502179055509050503373ffffffffffffffffffffffffffffffffffffffff167f4e7745d23e7692ef4ad488334aca196680e28c38f8dfd6df5d9fbb6b910434368360405161220b919061458a565b60405180910390a25050565b6005818051602081018201805184825260208301602085012081835280955050505050506000915090508060000160009054906101000a900473ffffffffffffffffffffffffffffffffffffffff1690806001018054600181600116156101000203166002900480601f0160208091040260200160405190810160405280929190818152602001828054600181600116156101000203166002900480156122ff5780601f106122d4576101008083540402835291602001916122ff565b820191906000526020600020905b8154815290600101906020018083116122e257829003601f168201915b505050505090806002018054600181600116156101000203166002900480601f01602080910402602001604051908101604052809291908181526020018280546001816001161561010002031660029004801561239d5780601f106123725761010080835404028352916020019161239d565b820191906000526020600020905b81548152906001019060200180831161238057829003601f168201915b5050505050908060030160009054906101000a900473ffffffffffffffffffffffffffffffffffffffff16908060030160149054906101000a900460ff16905085565b60026020528060005260406000206000915054906101000a900460ff1681565b6009602052816000526040600020818154811061241957fe5b9060005260206000209060050201600091509150508060000160009054906101000a900473ffffffffffffffffffffffffffffffffffffffff16908060010160009054906101000a900473ffffffffffffffffffffffffffffffffffffffff16908060010160149054906101000a900460ff1690806002015490806003018054600181600116156101000203166002900480601f01602080910402602001604051908101604052809291908181526020018280546001816001161561010002031660029004801561252b5780601f106125005761010080835404028352916020019161252b565b820191906000526020600020905b81548152906001019060200180831161250e57829003601f168201915b505050505090806004018054600181600116156101000203166002900480601f0160208091040260200160405190810160405280929190818152602001828054600181600116156101000203166002900480156125c95780601f1061259e576101008083540402835291602001916125c9565b820191906000526020600020905b8154815290600101906020018083116125ac57829003601f168201915b5050505050905086565b600360009054906101000a900473ffffffffffffffffffffffffffffffffffffffff1681565b600460009054906101000a900473ffffffffffffffffffffffffffffffffffffffff1681565b6060600660008373ffffffffffffffffffffffffffffffffffffffff1673ffffffffffffffffffffffffffffffffffffffff168152602001908152602001600020805480602002602001604051908101604052809291908181526020016000905b828210156128bd57838290600052602060002090600402016040518060a00160405290816000820160009054906101000a900473ffffffffffffffffffffffffffffffffffffffff1673ffffffffffffffffffffffffffffffffffffffff1673ffffffffffffffffffffffffffffffffffffffff168152602001600182018054600181600116156101000203166002900480601f0160208091040260200160405190810160405280929190818152602001828054600181600116156101000203166002900480156127925780601f1061276757610100808354040283529160200191612792565b820191906000526020600020905b81548152906001019060200180831161277557829003601f168201915b50505050508152602001600282018054600181600116156101000203166002900480601f0160208091040260200160405190810160405280929190818152602001828054600181600116156101000203166002900480156128345780601f1061280957610100808354040283529160200191612834565b820191906000526020600020905b81548152906001019060200180831161281757829003601f168201915b505050505081526020016003820160009054906101000a900473ffffffffffffffffffffffffffffffffffffffff1673ffffffffffffffffffffffffffffffffffffffff1673ffffffffffffffffffffffffffffffffffffffff1681526020016003820160149054906101000a900460ff16151515158152505081526020019060010190612680565b505050509050919050565b6060600180548060200260200160405190810160405280929190818152602001828054801561294c57602002820191906000526020600020905b8160009054906101000a900473ffffffffffffffffffffffffffffffffffffffff1673ffffffffffffffffffffffffffffffffffffffff1681526020019060010190808311612902575b5050505050905090565b6005836040516129669190614355565b908152602001604051809103902060030160149054906101000a900460ff16156129c5576040517f08c379a00000000000000000000000000000000000000000000000000000000081526004016129bc906146ae565b60405180910390fd5b6129cd613532565b6040518060a001604052803373ffffffffffffffffffffffffffffffffffffffff1681526020018581526020018481526020018373ffffffffffffffffffffffffffffffffffffffff16815260200160011515815250905080600585604051612a369190614355565b908152602001604051809103902060008201518160000160006101000a81548173ffffffffffffffffffffffffffffffffffffffff021916908373ffffffffffffffffffffffffffffffffffffffff1602179055506020820151816001019080519060200190612aa7929190613240565b506040820151816002019080519060200190612ac4929190613240565b5060608201518160030160006101000a81548173ffffffffffffffffffffffffffffffffffffffff021916908373ffffffffffffffffffffffffffffffffffffffff16021790555060808201518160030160146101000a81548160ff021916908315150217905550905050600660003373ffffffffffffffffffffffffffffffffffffffff1673ffffffffffffffffffffffffffffffffffffffff168152602001908152602001600020819080600181540180825580915050906001820390600052602060002090600402016000909192909190915060008201518160000160006101000a81548173ffffffffffffffffffffffffffffffffffffffff021916908373ffffffffffffffffffffffffffffffffffffffff1602179055506020820151816001019080519060200190612bfd929190613240565b506040820151816002019080519060200190612c1a929190613240565b5060608201518160030160006101000a81548173ffffffffffffffffffffffffffffffffffffffff021916908373ffffffffffffffffffffffffffffffffffffffff16021790555060808201518160030160146101000a81548160ff02191690831515021790555050505083604051612c939190614355565b60405180910390203373ffffffffffffffffffffffffffffffffffffffff167f40ee62d3a0cf66ef791a7a1f9d6d563ec877b394b8f5c097b6238ac82a68c0e260405160405180910390a350505050565b600a8181548110612cf157fe5b90600052602060002090600502016000915090508060000160009054906101000a900473ffffffffffffffffffffffffffffffffffffffff16908060010160009054906101000a900473ffffffffffffffffffffffffffffffffffffffff16908060010160149054906101000a900460ff1690806002015490806003018054600181600116156101000203166002900480601f016020809104026020016040519081016040528092919081815260200182805460018160011615610100020316600290048015612e025780601f10612dd757610100808354040283529160200191612e02565b820191906000526020600020905b815481529060010190602001808311612de557829003601f168201915b505050505090806004018054600181600116156101000203166002900480601f016020809104026020016040519081016040528092919081815260200182805460018160011615610100020316600290048015612ea05780601f10612e7557610100808354040283529160200191612ea0565b820191906000526020600020905b815481529060010190602001808311612e8357829003601f168201915b5050505050905086565b60066020528160005260406000208181548110612ec357fe5b9060005260206000209060040201600091509150508060000160009054906101000a900473ffffffffffffffffffffffffffffffffffffffff1690806001018054600181600116156101000203166002900480601f016020809104026020016040519081016040528092919081815260200182805460018160011615610100020316600290048015612f965780601f10612f6b57610100808354040283529160200191612f96565b820191906000526020600020905b815481529060010190602001808311612f7957829003601f168201915b505050505090806002018054600181600116156101000203166002900480601f0160208091040260200160405190810160405280929190818152602001828054600181600116156101000203166002900480156130345780601f1061300957610100808354040283529160200191613034565b820191906000526020600020905b81548152906001019060200180831161301757829003601f168201915b5050505050908060030160009054906101000a900473ffffffffffffffffffffffffffffffffffffffff16908060030160149054906101000a900460ff16905085565b600260003373ffffffffffffffffffffffffffffffffffffffff1673ffffffffffffffffffffffffffffffffffffffff16815260200190815260200160002060009054906101000a900460ff16613103576040517f08c379a00000000000000000000000000000000000000000000000000000000081526004016130fa9061462e565b60405180910390fd5b60006060600360009054906101000a900473ffffffffffffffffffffffffffffffffffffffff1673ffffffffffffffffffffffffffffffffffffffff168360405161314d9061436c565b60006040518083038185875af1925050503d806000811461318a576040519150601f19603f3d011682016040523d82523d6000602084013e61318f565b606091505b5091509150816131d4576040517f08c379a00000000000000000000000000000000000000000000000000000000081526004016131cb9061472e565b60405180910390fd5b505050565b6040518060c00160405280600073ffffffffffffffffffffffffffffffffffffffff168152602001600073ffffffffffffffffffffffffffffffffffffffff1681526020016000151581526020016000801916815260200160608152602001606081525090565b828054600181600116156101000203166002900490600052602060002090601f016020900481019282601f1061328157805160ff19168380011785556132af565b828001600101855582156132af579182015b828111156132ae578251825591602001919060010190613293565b5b5090506132bc919061358f565b5090565b828054600181600116156101000203166002900490600052602060002090601f016020900481019282601f106132f95780548555613336565b8280016001018555821561333657600052602060002091601f016020900482015b8281111561333557825482559160010191906001019061331a565b5b509050613343919061358f565b5090565b50805460018160011615610100020316600290046000825580601f1061336d575061338c565b601f01602090049060005260206000209081019061338b919061358f565b5b50565b8280548282559060005260206000209060040281019282156135215760005260206000209160040282015b828111156135205782826000820160009054906101000a900473ffffffffffffffffffffffffffffffffffffffff168160000160006101000a81548173ffffffffffffffffffffffffffffffffffffffff021916908373ffffffffffffffffffffffffffffffffffffffff160217905550600182018160010190805460018160011615610100020316600290046134529291906132c0565b506002820181600201908054600181600116156101000203166002900461347a9291906132c0565b506003820160009054906101000a900473ffffffffffffffffffffffffffffffffffffffff168160030160006101000a81548173ffffffffffffffffffffffffffffffffffffffff021916908373ffffffffffffffffffffffffffffffffffffffff1602179055506003820160149054906101000a900460ff168160030160146101000a81548160ff0219169083151502179055505050916004019190600401906133ba565b5b50905061352e91906135b4565b5090565b6040518060a00160405280600073ffffffffffffffffffffffffffffffffffffffff1681526020016060815260200160608152602001600073ffffffffffffffffffffffffffffffffffffffff1681526020016000151581525090565b6135b191905b808211156135ad576000816000905550600101613595565b5090565b90565b61365291905b8082111561364e57600080820160006101000a81549073ffffffffffffffffffffffffffffffffffffffff02191690556001820160006135fa9190613347565b60028201600061360a9190613347565b6003820160006101000a81549073ffffffffffffffffffffffffffffffffffffffff02191690556003820160146101000a81549060ff0219169055506004016135ba565b5090565b90565b60008135905061366481614ae9565b92915050565b60008135905061367981614b00565b92915050565b600082601f83011261369057600080fd5b81356136a361369e826147d6565b6147a9565b915081818352602084019350602081019050838560208402820111156136c857600080fd5b60005b838110156136f857816136de88826137bf565b8452602084019350602083019250506001810190506136cb565b5050505092915050565b60008135905061371181614b17565b92915050565b600082601f83011261372857600080fd5b813561373b613736826147fe565b6147a9565b9150808252602083016020830185838301111561375757600080fd5b613762838284614a5b565b50505092915050565b600082601f83011261377c57600080fd5b813561378f61378a8261482a565b6147a9565b915080825260208301602083018583830111156137ab57600080fd5b6137b6838284614a5b565b50505092915050565b6000813590506137ce81614b2e565b92915050565b6000602082840312156137e657600080fd5b60006137f484828501613655565b91505092915050565b6000806000806080858703121561381357600080fd5b60006138218782880161366a565b945050602085013567ffffffffffffffff81111561383e57600080fd5b61384a8782880161376b565b935050604085013567ffffffffffffffff81111561386757600080fd5b6138738782880161367f565b925050606085013567ffffffffffffffff81111561389057600080fd5b61389c8782880161376b565b91505092959194509250565b600080604083850312156138bb57600080fd5b60006138c985828601613655565b92505060206138da858286016137bf565b9150509250929050565b6000602082840312156138f657600080fd5b600061390484828501613702565b91505092915050565b60006020828403121561391f57600080fd5b600082013567ffffffffffffffff81111561393957600080fd5b61394584828501613717565b91505092915050565b60006020828403121561396057600080fd5b600082013567ffffffffffffffff81111561397a57600080fd5b6139868482850161376b565b91505092915050565b6000806000606084860312156139a457600080fd5b600084013567ffffffffffffffff8111156139be57600080fd5b6139ca8682870161376b565b935050602084013567ffffffffffffffff8111156139e757600080fd5b6139f38682870161376b565b9250506040613a0486828701613655565b9150509250925092565b600060208284031215613a2057600080fd5b6000613a2e848285016137bf565b91505092915050565b6000613a438383613ad3565b60208301905092915050565b6000613a5b83836141e7565b905092915050565b6000613a6f8383614277565b905092915050565b6000613a8383836142f4565b60208301905092915050565b613a9881614a01565b82525050565b613aa7816149af565b82525050565b613ab6816149af565b82525050565b613acd613ac8826149af565b614a9d565b82525050565b613adc8161499d565b82525050565b613aeb8161499d565b82525050565b6000613afc826148ab565b613b068185614921565b9350613b1183614856565b8060005b83811015613b42578151613b298882613a37565b9750613b34836148ed565b925050600181019050613b15565b5085935050505092915050565b6000613b5a826148b6565b613b648185614932565b935083602082028501613b7685614866565b8060005b85811015613bb25784840389528151613b938582613a4f565b9450613b9e836148fa565b925060208a01995050600181019050613b7a565b50829750879550505050505092915050565b6000613bcf826148c1565b613bd98185614943565b935083602082028501613beb85614876565b8060005b85811015613c275784840389528151613c088582613a63565b9450613c1383614907565b925060208a01995050600181019050613bef565b50829750879550505050505092915050565b6000613c44826148cc565b613c4e8185614954565b9350613c5983614886565b8060005b83811015613c8a578151613c718882613a77565b9750613c7c83614914565b925050600181019050613c5d565b5085935050505092915050565b613ca0816149c1565b82525050565b613caf816149c1565b82525050565b613cbe816149cd565b82525050565b613ccd816149cd565b82525050565b613cdc81614a13565b82525050565b6000613ced826148e2565b613cf78185614981565b9350613d07818560208601614a6a565b613d1081614acb565b840191505092915050565b6000613d26826148e2565b613d308185614992565b9350613d40818560208601614a6a565b80840191505092915050565b6000613d57826148d7565b613d618185614970565b9350613d71818560208601614a6a565b613d7a81614acb565b840191505092915050565b6000613d90826148d7565b613d9a8185614981565b9350613daa818560208601614a6a565b613db381614acb565b840191505092915050565b600081546001811660008114613ddb5760018114613e0157613e45565b607f6002830416613dec8187614981565b955060ff198316865260208601935050613e45565b60028204613e0f8187614981565b9550613e1a85614896565b60005b82811015613e3c57815481890152600182019150602081019050613e1d565b80880195505050505b505092915050565b6000613e5a600a83614981565b91507f6d6178203e3d206d696e000000000000000000000000000000000000000000006000830152602082019050919050565b6000613e9a601383614981565b91507f43616c6c6572206973206e6f74206f776e6572000000000000000000000000006000830152602082019050919050565b6000613eda602083614981565b91507f6d75737420626520646576696365206f7220636f6e7472616374206f776e65726000830152602082019050919050565b6000613f1a600a83614981565b91507f6f6e6c792061646d696e000000000000000000000000000000000000000000006000830152602082019050919050565b6000613f5a600f83614981565b91507f696e76616c6964206164647265737300000000000000000000000000000000006000830152602082019050919050565b6000613f9a601583614981565b91507f646576696365206e6f74207265676973746572656400000000000000000000006000830152602082019050919050565b6000613fda601f83614981565b91507f5468726573686f6c642076616c756573203c3d20746f74616c20636f756e74006000830152602082019050919050565b600061401a601d83614981565b91507f64657669636520697320616c72656164792072656769737465726564210000006000830152602082019050919050565b600061405a601083614981565b91507f496e76616c696420456e642054696d65000000000000000000000000000000006000830152602082019050919050565b600061409a600083614965565b9150600082019050919050565b60006140b4601283614981565b91507f696e73756666696369656e742066756e647300000000000000000000000000006000830152602082019050919050565b60006140f4601683614981565b91507f446576696365206e6f7420696e207265676973747279000000000000000000006000830152602082019050919050565b6000614134600e83614981565b91507f4661696c656420746f2073656e640000000000000000000000000000000000006000830152602082019050919050565b6000614174601583614981565b91507f6164647265737320616c72656164792041646d696e00000000000000000000006000830152602082019050919050565b60006141b4601483614981565b91507f696e76616c696420636f6d70616e7920616464720000000000000000000000006000830152602082019050919050565b600060c0830160008301516141ff6000860182613ad3565b5060208301516142126020860182613a9e565b5060408301516142256040860182613c97565b5060608301516142386060860182613cb5565b50608083015184820360808601526142508282613d4c565b91505060a083015184820360a086015261426a8282613d4c565b9150508091505092915050565b600060a08301600083015161428f6000860182613ad3565b50602083015184820360208601526142a78282613d4c565b915050604083015184820360408601526142c18282613d4c565b91505060608301516142d66060860182613ad3565b5060808301516142e96080860182613c97565b508091505092915050565b6142fd816149f7565b82525050565b61430c816149f7565b82525050565b61432361431e826149f7565b614ac1565b82525050565b60006143358285613abc565b6014820191506143458284614312565b6020820191508190509392505050565b60006143618284613d1b565b915081905092915050565b60006143778261408d565b9150819050919050565b60006020820190506143966000830184613ae2565b92915050565b60006020820190506143b16000830184613a8f565b92915050565b60006060820190506143cc6000830186613aad565b6143d96020830185613cc4565b81810360408301526143eb8184613c39565b9050949350505050565b600060408201905061440a6000830185613a8f565b6144176020830184614303565b9392505050565b600060c0820190506144336000830189613ae2565b6144406020830188613aad565b61444d6040830187613ca6565b61445a6060830186613cc4565b818103608083015261446c8185613d85565b905081810360a08301526144808184613d85565b9050979650505050505050565b600060a0820190506144a26000830188613ae2565b81810360208301526144b48187613d85565b905081810360408301526144c88186613d85565b90506144d76060830185613ae2565b6144e46080830184613ca6565b9695505050505050565b600060208201905081810360008301526145088184613af1565b905092915050565b6000602082019050818103600083015261452a8184613b4f565b905092915050565b6000602082019050818103600083015261454c8184613bc4565b905092915050565b60006020820190506145696000830184613ca6565b92915050565b60006020820190506145846000830184613cd3565b92915050565b600060208201905081810360008301526145a48184613ce2565b905092915050565b600060208201905081810360008301526145c68184613dbe565b905092915050565b600060208201905081810360008301526145e781613e4d565b9050919050565b6000602082019050818103600083015261460781613e8d565b9050919050565b6000602082019050818103600083015261462781613ecd565b9050919050565b6000602082019050818103600083015261464781613f0d565b9050919050565b6000602082019050818103600083015261466781613f4d565b9050919050565b6000602082019050818103600083015261468781613f8d565b9050919050565b600060208201905081810360008301526146a781613fcd565b9050919050565b600060208201905081810360008301526146c78161400d565b9050919050565b600060208201905081810360008301526146e78161404d565b9050919050565b60006020820190508181036000830152614707816140a7565b9050919050565b60006020820190508181036000830152614727816140e7565b9050919050565b6000602082019050818103600083015261474781614127565b9050919050565b6000602082019050818103600083015261476781614167565b9050919050565b60006020820190508181036000830152614787816141a7565b9050919050565b60006020820190506147a36000830184614303565b92915050565b6000604051905081810181811067ffffffffffffffff821117156147cc57600080fd5b8060405250919050565b600067ffffffffffffffff8211156147ed57600080fd5b602082029050602081019050919050565b600067ffffffffffffffff82111561481557600080fd5b601f19601f8301169050602081019050919050565b600067ffffffffffffffff82111561484157600080fd5b601f19601f8301169050602081019050919050565b6000819050602082019050919050565b6000819050602082019050919050565b6000819050602082019050919050565b6000819050602082019050919050565b60008190508160005260206000209050919050565b600081519050919050565b600081519050919050565b600081519050919050565b600081519050919050565b600081519050919050565b600081519050919050565b6000602082019050919050565b6000602082019050919050565b6000602082019050919050565b6000602082019050919050565b600082825260208201905092915050565b600082825260208201905092915050565b600082825260208201905092915050565b600082825260208201905092915050565b600081905092915050565b600082825260208201905092915050565b600082825260208201905092915050565b600081905092915050565b60006149a8826149d7565b9050919050565b60006149ba826149d7565b9050919050565b60008115159050919050565b6000819050919050565b600073ffffffffffffffffffffffffffffffffffffffff82169050919050565b6000819050919050565b6000614a0c82614a37565b9050919050565b6000614a1e82614a25565b9050919050565b6000614a30826149d7565b9050919050565b6000614a4282614a49565b9050919050565b6000614a54826149d7565b9050919050565b82818337600083830152505050565b60005b83811015614a88578082015181840152602081019050614a6d565b83811115614a97576000848401525b50505050565b6000614aa882614aaf565b9050919050565b6000614aba82614adc565b9050919050565b6000819050919050565b6000601f19601f8301169050919050565b60008160601b9050919050565b614af28161499d565b8114614afd57600080fd5b50565b614b09816149af565b8114614b1457600080fd5b50565b614b20816149cd565b8114614b2b57600080fd5b50565b614b37816149f7565b8114614b4257600080fd5b5056fea365627a7a72315820ff384961044b929abff047235275baa2ddadadf50bd8bc3e8709304a347599a36c6578706572696d656e74616cf564736f6c63430005100040",
  "source": "pragma solidity >=0.5.0 <0.9.0;\r\npragma experimental ABIEncoderV2;\r\n\r\nimport './Owner.sol';\r\nimport './Escrow.sol';\r\n\r\ncontract StateMonitor is Owner {\r\n    //Storage variables\r\n\r\n    address[] public admins; ///could make multisig as option, but for competition any admin can initiate agreements\r\n    mapping (address => bool) public adminMap; ///make multisig as option, but for competiton any admin can initiate agreements\r\n    //mapping (address => bool) public whiteList; ///whiteList of device addresses that are trusted to Transmit data\r\n    //mapping (address => bool) public blackList; //addresses which canot be added to whitelist\r\n    address public escrow; ///escrow address (either trusted third-party or another contract controlled by government finance agency)\r\n    Escrow public escrowContract; ///escrow contract deployed with this contract\r\n    mapping (string => Device) public deviceIMEIs; ///allows for quick retrieval of device info from deviceIMEIs\r\n    mapping (address => Device[]) public deviceOwners; ///allows for convenient retrieval of devices by owner address\r\n    mapping (address => Deal[]) public dealsOriginator; ///deals in which the address is lead_admin, if multisig, can be just any admins\r\n    mapping (bytes32 => Deal) public deals; ///maps deal Id to deals\r\n    mapping (address => Deal[]) public dealsByCompanyAddress;///maps address of wallet (of company or whatever entity is on other side of deal) to deal\r\n    Deal[] public allDeals; ///will allow to iterate through all deals if loss of uuid, for convenience, should scan events by company name or ID\r\n    //mapping (bytes32 => DealInfo) public dealsInfo; ///DealInfo mapping from uuid to all dealInfo. \r\n\r\n    //Events\r\n\r\n    \r\n    event DeviceRegistered(address indexed _deviceOwner, string indexed _IMEI);\r\n    //event WhiteListAddition(address indexed _deviceAddress, address indexed _approver);\r\n    event DealInitiated(address _originator, string indexed _companyID, bytes32 indexed _uuid);\r\n    event Received(address _sender, uint _amount);\r\n    event DeviceDeleted(address indexed _deviceOwner, string _IMEI);\r\n    //event DealAdminAddedUUID(address indexed _addressAdded, bytes32 indexed _UUID);\r\n    \r\n    //Modifiers\r\n\r\n    modifier onlyAdmin(){\r\n        require (adminMap[msg.sender], \"only admin\");\r\n        _;\r\n    }\r\n\r\n    struct Device{\r\n        address deviceOwner;\r\n        string IMEI;\r\n        ///string did; would be used along with DID device manager \r\n        string privKey; //only for simulator, real pebble tracker remove!\r\n        address deviceAddress;//real pebble tracker this is know when registered\r\n        bool exists;\r\n    }\r\n\r\n    struct Deal{\r\n        address originator;\r\n        //address [] dealAdmins; ///if using multi-sig or just want multiple addresses able to access these\r\n        address payable companyAddress; ///address that rewards will be paid to\r\n        bool isActive; ///Is the deal still active?\r\n        bytes32 uuid; ///ID of deal\r\n        string companyID; ///Id to identify company being monitored\r\n        string deviceIMEI; ///deviceIMEI\r\n        //string companyName; ///company name\r\n        //DealInfo dealInformation;///Deal Information packed in struct to prevent too deep in stack\r\n    }\r\n\r\n    /*\r\n    struct DealInfo{\r\n        \r\n        bytes32 dealUUID;\r\n        uint256 dealBalance; ///money put into escrow by governing agency for this part of deal\r\n        string deviceIMEI; ///IMEI for device that will be at location\r\n        bool paidOut; ///flag to see if pay out has been given or not\r\n        ///Struct Packing rest of integers\r\n        uint48 timeStart; ///start of Deal\r\n        uint48 timeEnd; /// end of Deal\r\n        uint24 failedVerifyCount; ///failed verifications\r\n        uint32 totalCurrentCount; ///total current verifications\r\n        uint32 totalCountsAllowed; ///number of data points to be validated\r\n        uint24 minThreshold; ///minimum number of successful validations to start receiving reward\r\n        uint32 maxThreshold; ///number of successful validations to receive full reward;\r\n        uint16 gasResistanceTarget; ///target reading that is max acceptable air quality\r\n        \r\n    }\r\n    */\r\n\r\n    constructor (address payable _escrow) public{  \r\n        require (_escrow != address(0), \"zero addr\");\r\n        require (_escrow != msg.sender, \"can't be owner\");\r\n        escrow = _escrow;\r\n        escrowContract = Escrow(_escrow);\r\n        admins.push(msg.sender);\r\n        adminMap[msg.sender] = true;\r\n\r\n    }\r\n\r\n    /*receive() external payable {\r\n        require(msg.value >0);\r\n        emit Received(msg.sender, msg.value);\r\n    }*/\r\n\r\n    function() external payable {\r\n        require(msg.value > 0);\r\n        emit Received(msg.sender, msg.value);\r\n    }\r\n    \r\n    function getAllAdmins() public view returns(address[] memory){\r\n        return admins;\r\n    }\r\n\r\n    function getAllOwnersDevices(address _address) public view returns(Device[] memory){\r\n        return deviceOwners[_address];\r\n    }\r\n\r\n    function getOriginatorsDeals(address _address) public view returns(Deal[] memory){\r\n        return dealsOriginator[_address];\r\n    }\r\n\r\n    function getCompanyDeals(address _address) public view returns(Deal[] memory){\r\n        return dealsByCompanyAddress[_address];\r\n    }\r\n\r\n    \r\n\r\n    /*\r\n    * Add Admins to State Contract\r\n    * Note this is different than individual deal Admins!\r\n    * These admins can initiate deals and whitelist devices, but unless explicitly added on other admin deals\r\n    * then they cannot edit other admin's deals\r\n    */\r\n\r\n    function addAdmin (address _addedAdmin) isOwner public {\r\n        require(_addedAdmin != address(0), \"invalid address\");\r\n        require(!adminMap[_addedAdmin], \"address already Admin\");\r\n        adminMap[_addedAdmin] = true;\r\n        admins.push(_addedAdmin);\r\n        escrowContract.addAdmin(_addedAdmin);\r\n        \r\n    }\r\n\r\n    /*\r\n    * Easiest for a manufacturer/owner of a pebble tracker to pass or search\r\n    * IMEIs since those are on the device. In a real world situation without the\r\n    * simulator making data, privKey would NOT be passed!!! This is passed only\r\n    * so that simulator script can make sure to be consistent on a device that was already\r\n    * registered. \r\n    */\r\n\r\n    function registerDevice (string memory _IMEI, string memory _privKey, address _deviceAddress) public {\r\n        require(!deviceIMEIs[_IMEI].exists, \"device is already registered!\");\r\n        Device memory deviceToAdd = Device({\r\n            deviceOwner : msg.sender,\r\n            IMEI : _IMEI,\r\n            privKey : _privKey,\r\n            exists : true,\r\n            deviceAddress : _deviceAddress\r\n        });\r\n        deviceIMEIs[_IMEI] = deviceToAdd;\r\n        deviceOwners[msg.sender].push(deviceToAdd);\r\n        emit DeviceRegistered(msg.sender, _IMEI);\r\n    }\r\n\r\n    // Device Owner can delete a device which will set the mapping key back to the default struct\r\n    function deleteDevice (string memory _IMEI) public {\r\n        require(deviceIMEIs[_IMEI].exists, \"Device not in registry\");\r\n        require(msg.sender == deviceIMEIs[_IMEI].deviceOwner, \"must be device or contract owner\");\r\n        Device[] storage devicesArray = deviceOwners[msg.sender];\r\n        for (uint i=0; i<devicesArray.length; i++){\r\n            if(keccak256(abi.encode(devicesArray[i].IMEI)) == keccak256(abi.encode(_IMEI))){\r\n                devicesArray[i] = devicesArray[devicesArray.length-1];\r\n                devicesArray.pop();\r\n                deviceOwners[msg.sender] = devicesArray;\r\n                break;\r\n            }\r\n        }\r\n        deviceIMEIs[_IMEI] = Device({\r\n            deviceOwner : address(0),\r\n            IMEI : \"\",\r\n            privKey : \"\",\r\n            exists : false,\r\n            deviceAddress : address(0)\r\n        });\r\n        emit DeviceDeleted(msg.sender, _IMEI);\r\n    }\r\n\r\n    /** \r\n    * could use onlyOwner modifier or multiSig for adding to Whitelist, but for \r\n    * contest leaving as onlyAdmin so any admin can add to Whitelist\r\n    **/\r\n    /*\r\n    function addToWhiteList (address _deviceAddress) public onlyAdmin{\r\n        require(!whiteList[_deviceAddress], \"address on WhiteList\");\r\n        require(!blackList[_deviceAddress], \"address banned\");\r\n        whiteList[_deviceAddress] = true;\r\n        \r\n        emit WhiteListAddition(_deviceAddress, msg.sender);\r\n    }\r\n\r\n    function addToBlackList (address _deviceAddress, string memory _reason) public isOwner{\r\n        require(!blackList[_deviceAddress], \"address banned\");\r\n        whiteList[_deviceAddress] = false;\r\n        blackList[_deviceAddress] = true;\r\n        \r\n    }*/\r\n\r\n    /*\r\n    * Initiating a Deal involves an amount of money put in escrow account address\r\n    * Then when deal is complete, depending on if the company being monitored successfully passed\r\n    * enough verified data within valid timeframe, then payout is issued.\r\n    */\r\n\r\n    function initiateDeal (address payable _companyAddress, string memory _companyID, uint[] memory dealInfoParams, string memory _deviceIMEI) public onlyAdmin{\r\n        require (dealInfoParams[1] > dealInfoParams[6], \"Invalid End Time\");\r\n        require (address(this).balance >= dealInfoParams[0], \"insufficient funds\");\r\n        require (_companyAddress != address(0), \"invalid company addr\");\r\n        require (dealInfoParams[4] >= dealInfoParams[3], \"max >= min\");\r\n        require (dealInfoParams[4] <= dealInfoParams[2], \"Threshold values <= total count\");\r\n        require (deviceIMEIs[_deviceIMEI].exists, \"device not registered\");\r\n\r\n        //address[] memory initialArray;\r\n        //bytes32 newUUID = keccak256(abi.encodePacked(msg.sender, block.timestamp)); //Use this when not on ganache\r\n        bytes32 newUUID = keccak256(abi.encodePacked(msg.sender, dealInfoParams[6]));\r\n\r\n        Deal memory dealToAdd = Deal({\r\n            originator : msg.sender,\r\n            companyAddress : _companyAddress,\r\n            uuid : newUUID,\r\n            isActive : true,\r\n            companyID : _companyID,\r\n            deviceIMEI : _deviceIMEI\r\n        });\r\n        dealsOriginator[msg.sender].push(dealToAdd);\r\n        deals[dealToAdd.uuid] = dealToAdd;\r\n        dealsByCompanyAddress[_companyAddress].push(dealToAdd);\r\n        //dealsInfo[newUUID] = newDealInfo;\r\n        sendToEscrow(dealInfoParams[0]);\r\n        escrowContract.setDealVerify(_companyAddress, newUUID, dealInfoParams);\r\n\r\n        emit DealInitiated(msg.sender, _companyID, dealToAdd.uuid);\r\n    }\r\n\r\n    /*\r\n    function setDealInfo(bytes32 _dealUUID, string memory _deviceIMEI, uint[] memory intInfo) internal returns (DealInfo memory){\r\n        DealInfo memory dealInfoRet = DealInfo({\r\n            dealUUID: _dealUUID,\r\n            deviceIMEI : _deviceIMEI,\r\n            paidOut: false,\r\n            dealBalance: intInfo[0],\r\n            timeStart : uint48(block.timestamp),\r\n            timeEnd : uint48(intInfo[1]),\r\n            failedVerifyCount : 0,\r\n            totalCurrentCount : 0,\r\n            totalCountsAllowed : uint32(intInfo[2]),\r\n            minThreshold : uint24(intInfo[3]), \r\n            maxThreshold : uint32(intInfo[4]),\r\n            gasResistanceTarget : uint16(intInfo[6])\r\n        });\r\n        return dealInfoRet;\r\n    }\r\n    */\r\n\r\n\r\n    //If you want admin to be per deal uncomment this functions and the admins[]\r\n    /*\r\n    function addDealAdminUUID(address _addressToAdd, bytes32 _UUID) public {\r\n        require(_UUID.length>0, \"invalid UUID\");\r\n        require (deals[_UUID].uuid == _UUID, \"UUID invalid\");\r\n        require(deals[_UUID].isActive, \"Inactive deal\");\r\n        require(_addressToAdd != address(0), \"zero address\");\r\n        bool alreadyDealAdmin = false;\r\n        for (uint i = 0; i< deals[_UUID].dealAdmins.length; i++){\r\n            if(_addressToAdd == deals[_UUID].dealAdmins[i]){\r\n                alreadyDealAdmin = true;\r\n                break;\r\n            }\r\n        require(!alreadyDealAdmin, \"already deal admin\");\r\n        deals[_UUID].dealAdmins.push(_addressToAdd);\r\n        emit DealAdminAddedUUID(_addressToAdd, _UUID);\r\n        }\r\n    }*/\r\n\r\n\r\n    function getBalance() public view returns (uint) {\r\n        return address(this).balance;\r\n    }\r\n\r\n    //sends money to escrow contract for safe-keeping\r\n    function sendToEscrow(uint _amount) private onlyAdmin{\r\n        // Call returns a boolean value indicating success or failure.\r\n        (bool sent, bytes memory data) = escrow.call.value(_amount)(\"\");\r\n        require(sent, \"Failed to send\");\r\n    }\r\n\r\n    /*\r\n    function triggerEscrow(address _to, uint _amount) private onlyAdmin{\r\n        require(address(escrow).balance >= _amount, \"Not enough in escrow\");\r\n        require(_to != address(0), \"invalid address\");\r\n        escrowContract.triggerPayout(_to, _amount);\r\n        //bytes memory payload = abi.encodeWithSignature(\"triggerPayout(address, uint)\", _to, _amount);\r\n        //(bool success, bytes memory returnData) = address(escrow).call(payload);\r\n        //require(success);\r\n    }*/\r\n}",
  "sourcePath": "/home/jpick713/BlockChain_Apps/iotex-dapp/contracts/StateMonitor.sol",
  "compiler": {
    "name": "solc",
    "version": "0.5.16+commit.9c3226ce.Emscripten.clang"
  },
  "schemaVersion": "3.4.1",
  "updatedAt": "2021-07-16T18:44:48.921Z",
  "networkType": "ethereum",
  "devdoc": {
    "methods": {
      "changeOwner(address)": {
        "details": "Change owner",
        "params": {
          "newOwner": "address of new owner"
        }
      },
      "getOwner()": {
        "details": "Return owner address ",
        "return": "address of owner"
      }
    }
  },
  "userdoc": {
    "methods": {
      "initiateDeal(address,string,uint256[],string)": {
        "notice": "could use onlyOwner modifier or multiSig for adding to Whitelist, but for  contest leaving as onlyAdmin so any admin can add to Whitelist*"
      }
    }
  }
}