{
  "contractName": "StateMonitor",
  "abi": [
    {
      "inputs": [
        {
          "internalType": "address payable",
          "name": "_escrow",
          "type": "address"
        }
      ],
      "payable": false,
      "stateMutability": "nonpayable",
      "type": "constructor"
    },
    {
      "anonymous": false,
      "inputs": [
        {
          "indexed": false,
          "internalType": "address",
          "name": "_originator",
          "type": "address"
        },
        {
          "indexed": true,
          "internalType": "string",
          "name": "_companyID",
          "type": "string"
        },
        {
          "indexed": true,
          "internalType": "bytes32",
          "name": "_uuid",
          "type": "bytes32"
        }
      ],
      "name": "DealInitiated",
      "type": "event"
    },
    {
      "anonymous": false,
      "inputs": [
        {
          "indexed": true,
          "internalType": "address",
          "name": "_deviceOwner",
          "type": "address"
        },
        {
          "indexed": false,
          "internalType": "string",
          "name": "_IMEI",
          "type": "string"
        }
      ],
      "name": "DeviceDeleted",
      "type": "event"
    },
    {
      "anonymous": false,
      "inputs": [
        {
          "indexed": true,
          "internalType": "address",
          "name": "_deviceOwner",
          "type": "address"
        },
        {
          "indexed": true,
          "internalType": "string",
          "name": "_IMEI",
          "type": "string"
        }
      ],
      "name": "DeviceRegistered",
      "type": "event"
    },
    {
      "anonymous": false,
      "inputs": [
        {
          "indexed": true,
          "internalType": "address",
          "name": "oldOwner",
          "type": "address"
        },
        {
          "indexed": true,
          "internalType": "address",
          "name": "newOwner",
          "type": "address"
        }
      ],
      "name": "OwnerSet",
      "type": "event"
    },
    {
      "anonymous": false,
      "inputs": [
        {
          "indexed": false,
          "internalType": "address",
          "name": "_sender",
          "type": "address"
        },
        {
          "indexed": false,
          "internalType": "uint256",
          "name": "_amount",
          "type": "uint256"
        }
      ],
      "name": "Received",
      "type": "event"
    },
    {
      "payable": true,
      "stateMutability": "payable",
      "type": "fallback"
    },
    {
      "constant": true,
      "inputs": [
        {
          "internalType": "address",
          "name": "",
          "type": "address"
        }
      ],
      "name": "adminMap",
      "outputs": [
        {
          "internalType": "bool",
          "name": "",
          "type": "bool"
        }
      ],
      "payable": false,
      "stateMutability": "view",
      "type": "function"
    },
    {
      "constant": true,
      "inputs": [
        {
          "internalType": "uint256",
          "name": "",
          "type": "uint256"
        }
      ],
      "name": "admins",
      "outputs": [
        {
          "internalType": "address",
          "name": "",
          "type": "address"
        }
      ],
      "payable": false,
      "stateMutability": "view",
      "type": "function"
    },
    {
      "constant": true,
      "inputs": [
        {
          "internalType": "uint256",
          "name": "",
          "type": "uint256"
        }
      ],
      "name": "allDeals",
      "outputs": [
        {
          "internalType": "address",
          "name": "originator",
          "type": "address"
        },
        {
          "internalType": "address payable",
          "name": "companyAddress",
          "type": "address"
        },
        {
          "internalType": "bool",
          "name": "isActive",
          "type": "bool"
        },
        {
          "internalType": "bytes32",
          "name": "uuid",
          "type": "bytes32"
        },
        {
          "internalType": "string",
          "name": "companyID",
          "type": "string"
        }
      ],
      "payable": false,
      "stateMutability": "view",
      "type": "function"
    },
    {
      "constant": false,
      "inputs": [
        {
          "internalType": "address",
          "name": "newOwner",
          "type": "address"
        }
      ],
      "name": "changeOwner",
      "outputs": [],
      "payable": false,
      "stateMutability": "nonpayable",
      "type": "function"
    },
    {
      "constant": true,
      "inputs": [
        {
          "internalType": "bytes32",
          "name": "",
          "type": "bytes32"
        }
      ],
      "name": "deals",
      "outputs": [
        {
          "internalType": "address",
          "name": "originator",
          "type": "address"
        },
        {
          "internalType": "address payable",
          "name": "companyAddress",
          "type": "address"
        },
        {
          "internalType": "bool",
          "name": "isActive",
          "type": "bool"
        },
        {
          "internalType": "bytes32",
          "name": "uuid",
          "type": "bytes32"
        },
        {
          "internalType": "string",
          "name": "companyID",
          "type": "string"
        }
      ],
      "payable": false,
      "stateMutability": "view",
      "type": "function"
    },
    {
      "constant": true,
      "inputs": [
        {
          "internalType": "address",
          "name": "",
          "type": "address"
        },
        {
          "internalType": "uint256",
          "name": "",
          "type": "uint256"
        }
      ],
      "name": "dealsByCompanyAddress",
      "outputs": [
        {
          "internalType": "address",
          "name": "originator",
          "type": "address"
        },
        {
          "internalType": "address payable",
          "name": "companyAddress",
          "type": "address"
        },
        {
          "internalType": "bool",
          "name": "isActive",
          "type": "bool"
        },
        {
          "internalType": "bytes32",
          "name": "uuid",
          "type": "bytes32"
        },
        {
          "internalType": "string",
          "name": "companyID",
          "type": "string"
        }
      ],
      "payable": false,
      "stateMutability": "view",
      "type": "function"
    },
    {
      "constant": true,
      "inputs": [
        {
          "internalType": "address",
          "name": "",
          "type": "address"
        },
        {
          "internalType": "uint256",
          "name": "",
          "type": "uint256"
        }
      ],
      "name": "dealsOriginator",
      "outputs": [
        {
          "internalType": "address",
          "name": "originator",
          "type": "address"
        },
        {
          "internalType": "address payable",
          "name": "companyAddress",
          "type": "address"
        },
        {
          "internalType": "bool",
          "name": "isActive",
          "type": "bool"
        },
        {
          "internalType": "bytes32",
          "name": "uuid",
          "type": "bytes32"
        },
        {
          "internalType": "string",
          "name": "companyID",
          "type": "string"
        }
      ],
      "payable": false,
      "stateMutability": "view",
      "type": "function"
    },
    {
      "constant": true,
      "inputs": [
        {
          "internalType": "string",
          "name": "",
          "type": "string"
        }
      ],
      "name": "deviceIMEIs",
      "outputs": [
        {
          "internalType": "address",
          "name": "deviceOwner",
          "type": "address"
        },
        {
          "internalType": "string",
          "name": "IMEI",
          "type": "string"
        },
        {
          "internalType": "string",
          "name": "privKey",
          "type": "string"
        },
        {
          "internalType": "address",
          "name": "deviceAddress",
          "type": "address"
        },
        {
          "internalType": "bool",
          "name": "exists",
          "type": "bool"
        }
      ],
      "payable": false,
      "stateMutability": "view",
      "type": "function"
    },
    {
      "constant": true,
      "inputs": [
        {
          "internalType": "address",
          "name": "",
          "type": "address"
        },
        {
          "internalType": "uint256",
          "name": "",
          "type": "uint256"
        }
      ],
      "name": "deviceOwners",
      "outputs": [
        {
          "internalType": "address",
          "name": "deviceOwner",
          "type": "address"
        },
        {
          "internalType": "string",
          "name": "IMEI",
          "type": "string"
        },
        {
          "internalType": "string",
          "name": "privKey",
          "type": "string"
        },
        {
          "internalType": "address",
          "name": "deviceAddress",
          "type": "address"
        },
        {
          "internalType": "bool",
          "name": "exists",
          "type": "bool"
        }
      ],
      "payable": false,
      "stateMutability": "view",
      "type": "function"
    },
    {
      "constant": true,
      "inputs": [],
      "name": "escrow",
      "outputs": [
        {
          "internalType": "address",
          "name": "",
          "type": "address"
        }
      ],
      "payable": false,
      "stateMutability": "view",
      "type": "function"
    },
    {
      "constant": true,
      "inputs": [],
      "name": "escrowContract",
      "outputs": [
        {
          "internalType": "contract Escrow",
          "name": "",
          "type": "address"
        }
      ],
      "payable": false,
      "stateMutability": "view",
      "type": "function"
    },
    {
      "constant": true,
      "inputs": [],
      "name": "getOwner",
      "outputs": [
        {
          "internalType": "address",
          "name": "",
          "type": "address"
        }
      ],
      "payable": false,
      "stateMutability": "view",
      "type": "function"
    },
    {
      "constant": true,
      "inputs": [],
      "name": "getAllAdmins",
      "outputs": [
        {
          "internalType": "address[]",
          "name": "",
          "type": "address[]"
        }
      ],
      "payable": false,
      "stateMutability": "view",
      "type": "function"
    },
    {
      "constant": true,
      "inputs": [
        {
          "internalType": "address",
          "name": "_address",
          "type": "address"
        }
      ],
      "name": "getAllOwnersDevices",
      "outputs": [
        {
          "components": [
            {
              "internalType": "address",
              "name": "deviceOwner",
              "type": "address"
            },
            {
              "internalType": "string",
              "name": "IMEI",
              "type": "string"
            },
            {
              "internalType": "string",
              "name": "privKey",
              "type": "string"
            },
            {
              "internalType": "address",
              "name": "deviceAddress",
              "type": "address"
            },
            {
              "internalType": "bool",
              "name": "exists",
              "type": "bool"
            }
          ],
          "internalType": "struct StateMonitor.Device[]",
          "name": "",
          "type": "tuple[]"
        }
      ],
      "payable": false,
      "stateMutability": "view",
      "type": "function"
    },
    {
      "constant": true,
      "inputs": [
        {
          "internalType": "address",
          "name": "_address",
          "type": "address"
        }
      ],
      "name": "getOriginatorsDeals",
      "outputs": [
        {
          "components": [
            {
              "internalType": "address",
              "name": "originator",
              "type": "address"
            },
            {
              "internalType": "address payable",
              "name": "companyAddress",
              "type": "address"
            },
            {
              "internalType": "bool",
              "name": "isActive",
              "type": "bool"
            },
            {
              "internalType": "bytes32",
              "name": "uuid",
              "type": "bytes32"
            },
            {
              "internalType": "string",
              "name": "companyID",
              "type": "string"
            }
          ],
          "internalType": "struct StateMonitor.Deal[]",
          "name": "",
          "type": "tuple[]"
        }
      ],
      "payable": false,
      "stateMutability": "view",
      "type": "function"
    },
    {
      "constant": true,
      "inputs": [
        {
          "internalType": "address",
          "name": "_address",
          "type": "address"
        }
      ],
      "name": "getCompanyDeals",
      "outputs": [
        {
          "components": [
            {
              "internalType": "address",
              "name": "originator",
              "type": "address"
            },
            {
              "internalType": "address payable",
              "name": "companyAddress",
              "type": "address"
            },
            {
              "internalType": "bool",
              "name": "isActive",
              "type": "bool"
            },
            {
              "internalType": "bytes32",
              "name": "uuid",
              "type": "bytes32"
            },
            {
              "internalType": "string",
              "name": "companyID",
              "type": "string"
            }
          ],
          "internalType": "struct StateMonitor.Deal[]",
          "name": "",
          "type": "tuple[]"
        }
      ],
      "payable": false,
      "stateMutability": "view",
      "type": "function"
    },
    {
      "constant": false,
      "inputs": [
        {
          "internalType": "address",
          "name": "_addedAdmin",
          "type": "address"
        }
      ],
      "name": "addAdmin",
      "outputs": [],
      "payable": false,
      "stateMutability": "nonpayable",
      "type": "function"
    },
    {
      "constant": false,
      "inputs": [
        {
          "internalType": "string",
          "name": "_IMEI",
          "type": "string"
        },
        {
          "internalType": "string",
          "name": "_privKey",
          "type": "string"
        },
        {
          "internalType": "address",
          "name": "_deviceAddress",
          "type": "address"
        }
      ],
      "name": "registerDevice",
      "outputs": [],
      "payable": false,
      "stateMutability": "nonpayable",
      "type": "function"
    },
    {
      "constant": false,
      "inputs": [
        {
          "internalType": "string",
          "name": "_IMEI",
          "type": "string"
        }
      ],
      "name": "deleteDevice",
      "outputs": [],
      "payable": false,
      "stateMutability": "nonpayable",
      "type": "function"
    },
    {
      "constant": false,
      "inputs": [
        {
          "internalType": "address payable",
          "name": "_companyAddress",
          "type": "address"
        },
        {
          "internalType": "string",
          "name": "_companyID",
          "type": "string"
        },
        {
          "internalType": "uint256[]",
          "name": "dealInfoParams",
          "type": "uint256[]"
        },
        {
          "internalType": "string",
          "name": "_deviceIMEI",
          "type": "string"
        }
      ],
      "name": "initiateDeal",
      "outputs": [],
      "payable": false,
      "stateMutability": "nonpayable",
      "type": "function"
    },
    {
      "constant": true,
      "inputs": [],
      "name": "getBalance",
      "outputs": [
        {
          "internalType": "uint256",
          "name": "",
          "type": "uint256"
        }
      ],
      "payable": false,
      "stateMutability": "view",
      "type": "function"
    }
  ],
  "bytecode": "0x60806040523480156200001157600080fd5b5060405162004bce38038062004bce833981810160405262000037919081019062000336565b336000806101000a81548173ffffffffffffffffffffffffffffffffffffffff021916908373ffffffffffffffffffffffffffffffffffffffff1602179055506000809054906101000a900473ffffffffffffffffffffffffffffffffffffffff1673ffffffffffffffffffffffffffffffffffffffff16600073ffffffffffffffffffffffffffffffffffffffff167f342827c97908e5e2f71151c08502a66d44b6f758e3ac2f1de95f02eb95f0a73560405160405180910390a3600073ffffffffffffffffffffffffffffffffffffffff168173ffffffffffffffffffffffffffffffffffffffff16141562000166576040517f08c379a00000000000000000000000000000000000000000000000000000000081526004016200015d90620003e6565b60405180910390fd5b3373ffffffffffffffffffffffffffffffffffffffff168173ffffffffffffffffffffffffffffffffffffffff161415620001d8576040517f08c379a0000000000000000000000000000000000000000000000000000000008152600401620001cf9062000408565b60405180910390fd5b80600360006101000a81548173ffffffffffffffffffffffffffffffffffffffff021916908373ffffffffffffffffffffffffffffffffffffffff16021790555080600460006101000a81548173ffffffffffffffffffffffffffffffffffffffff021916908373ffffffffffffffffffffffffffffffffffffffff16021790555060013390806001815401808255809150509060018203906000526020600020016000909192909190916101000a81548173ffffffffffffffffffffffffffffffffffffffff021916908373ffffffffffffffffffffffffffffffffffffffff160217905550506001600260003373ffffffffffffffffffffffffffffffffffffffff1673ffffffffffffffffffffffffffffffffffffffff16815260200190815260200160002060006101000a81548160ff0219169083151502179055505062000489565b60008151905062000330816200046f565b92915050565b6000602082840312156200034957600080fd5b600062000359848285016200031f565b91505092915050565b6000620003716009836200042a565b91507f7a65726f206164647200000000000000000000000000000000000000000000006000830152602082019050919050565b6000620003b3600e836200042a565b91507f63616e2774206265206f776e65720000000000000000000000000000000000006000830152602082019050919050565b60006020820190508181036000830152620004018162000362565b9050919050565b600060208201905081810360008301526200042381620003a4565b9050919050565b600082825260208201905092915050565b600062000448826200044f565b9050919050565b600073ffffffffffffffffffffffffffffffffffffffff82169050919050565b6200047a816200043b565b81146200048657600080fd5b50565b61473580620004996000396000f3fe60806040526004361061012a5760003560e01c8063b86f1241116100ab578063e42a96e71161006f578063e42a96e71461048f578063e5e1b2ef146104ba578063e9523c97146104f7578063ea4c161914610522578063f11c0c041461054b578063fb79b5531461058c5761012a565b8063b86f12411461037c578063c5caa257146103a5578063dbbc830b146103e6578063e07a9dd314610423578063e2fdcc17146104645761012a565b806373e0f4b5116100f257806373e0f4b51461027d57806381cd872a146102a6578063893d20e8146102e75780638a4ff66714610312578063a6f9dae1146103535761012a565b8063065317b31461017257806312065fe0146101af57806314bfd6d0146101da57806366a76eb1146102175780637048027514610254575b6000341161013757600080fd5b7f88a5966d370b9919b20f3e2c13ff65706f196a4e32cc2c12bf57088f885258743334604051610168929190613fb7565b60405180910390a1005b34801561017e57600080fd5b50610199600480360361019491908101906133b0565b6105cd565b6040516101a691906140bd565b60405180910390f35b3480156101bb57600080fd5b506101c46107de565b6040516101d1919061433b565b60405180910390f35b3480156101e657600080fd5b5061020160048036036101fc91908101906135ea565b6107e6565b60405161020e9190613f43565b60405180910390f35b34801561022357600080fd5b5061023e600480360361023991908101906133b0565b610822565b60405161024b91906140bd565b60405180910390f35b34801561026057600080fd5b5061027b600480360361027691908101906133b0565b610a33565b005b34801561028957600080fd5b506102a4600480360361029f91908101906133d9565b610d0d565b005b3480156102b257600080fd5b506102cd60048036036102c891908101906134c0565b61152d565b6040516102de959493929190613fe0565b60405180910390f35b3480156102f357600080fd5b506102fc611648565b6040516103099190613f43565b60405180910390f35b34801561031e57600080fd5b5061033960048036036103349190810190613484565b611671565b60405161034a959493929190613fe0565b60405180910390f35b34801561035f57600080fd5b5061037a600480360361037591908101906133b0565b6117a6565b005b34801561038857600080fd5b506103a3600480360361039e919081019061352a565b6118f3565b005b3480156103b157600080fd5b506103cc60048036036103c791908101906134e9565b611f36565b6040516103dd95949392919061403a565b60405180910390f35b3480156103f257600080fd5b5061040d600480360361040891908101906133b0565b6120ff565b60405161041a9190614101565b60405180910390f35b34801561042f57600080fd5b5061044a60048036036104459190810190613484565b61211f565b60405161045b959493929190613fe0565b60405180910390f35b34801561047057600080fd5b50610479612254565b6040516104869190613f43565b60405180910390f35b34801561049b57600080fd5b506104a461227a565b6040516104b1919061411c565b60405180910390f35b3480156104c657600080fd5b506104e160048036036104dc91908101906133b0565b6122a0565b6040516104ee91906140df565b60405180910390f35b34801561050357600080fd5b5061050c612549565b604051610519919061409b565b60405180910390f35b34801561052e57600080fd5b506105496004803603610544919081019061356b565b6125d7565b005b34801561055757600080fd5b50610572600480360361056d91908101906135ea565b612965565b604051610583959493929190613fe0565b60405180910390f35b34801561059857600080fd5b506105b360048036036105ae9190810190613484565b612a8d565b6040516105c495949392919061403a565b60405180910390f35b6060600760008373ffffffffffffffffffffffffffffffffffffffff1673ffffffffffffffffffffffffffffffffffffffff168152602001908152602001600020805480602002602001604051908101604052809291908181526020016000905b828210156107d357838290600052602060002090600402016040518060a00160405290816000820160009054906101000a900473ffffffffffffffffffffffffffffffffffffffff1673ffffffffffffffffffffffffffffffffffffffff1673ffffffffffffffffffffffffffffffffffffffff1681526020016001820160009054906101000a900473ffffffffffffffffffffffffffffffffffffffff1673ffffffffffffffffffffffffffffffffffffffff1673ffffffffffffffffffffffffffffffffffffffff1681526020016001820160149054906101000a900460ff1615151515815260200160028201548152602001600382018054600181600116156101000203166002900480601f0160208091040260200160405190810160405280929190818152602001828054600181600116156101000203166002900480156107bb5780601f10610790576101008083540402835291602001916107bb565b820191906000526020600020905b81548152906001019060200180831161079e57829003601f168201915b5050505050815250508152602001906001019061062e565b505050509050919050565b600047905090565b600181815481106107f357fe5b906000526020600020016000915054906101000a900473ffffffffffffffffffffffffffffffffffffffff1681565b6060600960008373ffffffffffffffffffffffffffffffffffffffff1673ffffffffffffffffffffffffffffffffffffffff168152602001908152602001600020805480602002602001604051908101604052809291908181526020016000905b82821015610a2857838290600052602060002090600402016040518060a00160405290816000820160009054906101000a900473ffffffffffffffffffffffffffffffffffffffff1673ffffffffffffffffffffffffffffffffffffffff1673ffffffffffffffffffffffffffffffffffffffff1681526020016001820160009054906101000a900473ffffffffffffffffffffffffffffffffffffffff1673ffffffffffffffffffffffffffffffffffffffff1673ffffffffffffffffffffffffffffffffffffffff1681526020016001820160149054906101000a900460ff1615151515815260200160028201548152602001600382018054600181600116156101000203166002900480601f016020809104026020016040519081016040528092919081815260200182805460018160011615610100020316600290048015610a105780601f106109e557610100808354040283529160200191610a10565b820191906000526020600020905b8154815290600101906020018083116109f357829003601f168201915b50505050508152505081526020019060010190610883565b505050509050919050565b6000809054906101000a900473ffffffffffffffffffffffffffffffffffffffff1673ffffffffffffffffffffffffffffffffffffffff163373ffffffffffffffffffffffffffffffffffffffff1614610ac2576040517f08c379a0000000000000000000000000000000000000000000000000000000008152600401610ab9906141bb565b60405180910390fd5b600073ffffffffffffffffffffffffffffffffffffffff168173ffffffffffffffffffffffffffffffffffffffff161415610b32576040517f08c379a0000000000000000000000000000000000000000000000000000000008152600401610b299061421b565b60405180910390fd5b600260008273ffffffffffffffffffffffffffffffffffffffff1673ffffffffffffffffffffffffffffffffffffffff16815260200190815260200160002060009054906101000a900460ff1615610bbf576040517f08c379a0000000000000000000000000000000000000000000000000000000008152600401610bb6906142fb565b60405180910390fd5b6001600260008373ffffffffffffffffffffffffffffffffffffffff1673ffffffffffffffffffffffffffffffffffffffff16815260200190815260200160002060006101000a81548160ff02191690831515021790555060018190806001815401808255809150509060018203906000526020600020016000909192909190916101000a81548173ffffffffffffffffffffffffffffffffffffffff021916908373ffffffffffffffffffffffffffffffffffffffff16021790555050600460009054906101000a900473ffffffffffffffffffffffffffffffffffffffff1673ffffffffffffffffffffffffffffffffffffffff166370480275826040518263ffffffff1660e01b8152600401610cd89190613f43565b600060405180830381600087803b158015610cf257600080fd5b505af1158015610d06573d6000803e3d6000fd5b5050505050565b600260003373ffffffffffffffffffffffffffffffffffffffff1673ffffffffffffffffffffffffffffffffffffffff16815260200190815260200160002060009054906101000a900460ff16610d99576040517f08c379a0000000000000000000000000000000000000000000000000000000008152600401610d90906141fb565b60405180910390fd5b81600681518110610da657fe5b602002602001015182600181518110610dbb57fe5b602002602001015111610e03576040517f08c379a0000000000000000000000000000000000000000000000000000000008152600401610dfa9061429b565b60405180910390fd5b81600081518110610e1057fe5b6020026020010151471015610e5a576040517f08c379a0000000000000000000000000000000000000000000000000000000008152600401610e519061419b565b60405180910390fd5b600073ffffffffffffffffffffffffffffffffffffffff168473ffffffffffffffffffffffffffffffffffffffff161415610eca576040517f08c379a0000000000000000000000000000000000000000000000000000000008152600401610ec19061431b565b60405180910390fd5b81600381518110610ed757fe5b602002602001015182600481518110610eec57fe5b60200260200101511015610f35576040517f08c379a0000000000000000000000000000000000000000000000000000000008152600401610f2c9061417b565b60405180910390fd5b81600281518110610f4257fe5b602002602001015182600481518110610f5757fe5b60200260200101511115610fa0576040517f08c379a0000000000000000000000000000000000000000000000000000000008152600401610f979061425b565b60405180910390fd5b600581604051610fb09190613f17565b908152602001604051809103902060030160149054906101000a900460ff1661100e576040517f08c379a00000000000000000000000000000000000000000000000000000000081526004016110059061423b565b60405180910390fd5b6000338360068151811061101e57fe5b6020026020010151604051602001611037929190613eeb565b604051602081830303815290604052805190602001209050611057612dbc565b6040518060a001604052803373ffffffffffffffffffffffffffffffffffffffff1681526020018773ffffffffffffffffffffffffffffffffffffffff168152602001600115158152602001838152602001868152509050600760003373ffffffffffffffffffffffffffffffffffffffff1673ffffffffffffffffffffffffffffffffffffffff168152602001908152602001600020819080600181540180825580915050906001820390600052602060002090600402016000909192909190915060008201518160000160006101000a81548173ffffffffffffffffffffffffffffffffffffffff021916908373ffffffffffffffffffffffffffffffffffffffff16021790555060208201518160010160006101000a81548173ffffffffffffffffffffffffffffffffffffffff021916908373ffffffffffffffffffffffffffffffffffffffff16021790555060408201518160010160146101000a81548160ff0219169083151502179055506060820151816002015560808201518160030190805190602001906111ee929190612e1c565b5050505080600860008360600151815260200190815260200160002060008201518160000160006101000a81548173ffffffffffffffffffffffffffffffffffffffff021916908373ffffffffffffffffffffffffffffffffffffffff16021790555060208201518160010160006101000a81548173ffffffffffffffffffffffffffffffffffffffff021916908373ffffffffffffffffffffffffffffffffffffffff16021790555060408201518160010160146101000a81548160ff0219169083151502179055506060820151816002015560808201518160030190805190602001906112de929190612e1c565b50905050600960008773ffffffffffffffffffffffffffffffffffffffff1673ffffffffffffffffffffffffffffffffffffffff168152602001908152602001600020819080600181540180825580915050906001820390600052602060002090600402016000909192909190915060008201518160000160006101000a81548173ffffffffffffffffffffffffffffffffffffffff021916908373ffffffffffffffffffffffffffffffffffffffff16021790555060208201518160010160006101000a81548173ffffffffffffffffffffffffffffffffffffffff021916908373ffffffffffffffffffffffffffffffffffffffff16021790555060408201518160010160146101000a81548160ff021916908315150217905550606082015181600201556080820151816003019080519060200190611421929190612e1c565b505050506114428460008151811061143557fe5b6020026020010151612c5a565b600460009054906101000a900473ffffffffffffffffffffffffffffffffffffffff1673ffffffffffffffffffffffffffffffffffffffff16632905543c8784876040518463ffffffff1660e01b81526004016114a193929190613f79565b600060405180830381600087803b1580156114bb57600080fd5b505af11580156114cf573d6000803e3d6000fd5b505050508060600151856040516114e69190613f17565b60405180910390207f5e4ae1d0d98f2caa0149085848550b584d8d67100a91bec6affb6298d2fe46fc3360405161151d9190613f5e565b60405180910390a3505050505050565b60086020528060005260406000206000915090508060000160009054906101000a900473ffffffffffffffffffffffffffffffffffffffff16908060010160009054906101000a900473ffffffffffffffffffffffffffffffffffffffff16908060010160149054906101000a900460ff1690806002015490806003018054600181600116156101000203166002900480601f01602080910402602001604051908101604052809291908181526020018280546001816001161561010002031660029004801561163e5780601f106116135761010080835404028352916020019161163e565b820191906000526020600020905b81548152906001019060200180831161162157829003601f168201915b5050505050905085565b60008060009054906101000a900473ffffffffffffffffffffffffffffffffffffffff16905090565b6007602052816000526040600020818154811061168a57fe5b9060005260206000209060040201600091509150508060000160009054906101000a900473ffffffffffffffffffffffffffffffffffffffff16908060010160009054906101000a900473ffffffffffffffffffffffffffffffffffffffff16908060010160149054906101000a900460ff1690806002015490806003018054600181600116156101000203166002900480601f01602080910402602001604051908101604052809291908181526020018280546001816001161561010002031660029004801561179c5780601f106117715761010080835404028352916020019161179c565b820191906000526020600020905b81548152906001019060200180831161177f57829003601f168201915b5050505050905085565b6000809054906101000a900473ffffffffffffffffffffffffffffffffffffffff1673ffffffffffffffffffffffffffffffffffffffff163373ffffffffffffffffffffffffffffffffffffffff1614611835576040517f08c379a000000000000000000000000000000000000000000000000000000000815260040161182c906141bb565b60405180910390fd5b8073ffffffffffffffffffffffffffffffffffffffff166000809054906101000a900473ffffffffffffffffffffffffffffffffffffffff1673ffffffffffffffffffffffffffffffffffffffff167f342827c97908e5e2f71151c08502a66d44b6f758e3ac2f1de95f02eb95f0a73560405160405180910390a3806000806101000a81548173ffffffffffffffffffffffffffffffffffffffff021916908373ffffffffffffffffffffffffffffffffffffffff16021790555050565b6005816040516119039190613f17565b908152602001604051809103902060030160149054906101000a900460ff16611961576040517f08c379a0000000000000000000000000000000000000000000000000000000008152600401611958906142bb565b60405180910390fd5b6005816040516119719190613f17565b908152602001604051809103902060000160009054906101000a900473ffffffffffffffffffffffffffffffffffffffff1673ffffffffffffffffffffffffffffffffffffffff163373ffffffffffffffffffffffffffffffffffffffff1614611a10576040517f08c379a0000000000000000000000000000000000000000000000000000000008152600401611a07906141db565b60405180910390fd5b6000600660003373ffffffffffffffffffffffffffffffffffffffff1673ffffffffffffffffffffffffffffffffffffffff168152602001908152602001600020905060008090505b8180549050811015611d645782604051602001611a769190614137565b60405160208183030381529060405280519060200120828281548110611a9857fe5b9060005260206000209060040201600101604051602001611ab99190614159565b604051602081830303815290604052805190602001201415611d575781600183805490500381548110611ae857fe5b9060005260206000209060040201828281548110611b0257fe5b90600052602060002090600402016000820160009054906101000a900473ffffffffffffffffffffffffffffffffffffffff168160000160006101000a81548173ffffffffffffffffffffffffffffffffffffffff021916908373ffffffffffffffffffffffffffffffffffffffff16021790555060018201816001019080546001816001161561010002031660029004611b9e929190612e9c565b5060028201816002019080546001816001161561010002031660029004611bc6929190612e9c565b506003820160009054906101000a900473ffffffffffffffffffffffffffffffffffffffff168160030160006101000a81548173ffffffffffffffffffffffffffffffffffffffff021916908373ffffffffffffffffffffffffffffffffffffffff1602179055506003820160149054906101000a900460ff168160030160146101000a81548160ff02191690831515021790555090505081805480611c6857fe5b6001900381819060005260206000209060040201600080820160006101000a81549073ffffffffffffffffffffffffffffffffffffffff0219169055600182016000611cb49190612f23565b600282016000611cc49190612f23565b6003820160006101000a81549073ffffffffffffffffffffffffffffffffffffffff02191690556003820160146101000a81549060ff02191690555050905581600660003373ffffffffffffffffffffffffffffffffffffffff1673ffffffffffffffffffffffffffffffffffffffff168152602001908152602001600020908054611d51929190612f6b565b50611d64565b8080600101915050611a59565b506040518060a00160405280600073ffffffffffffffffffffffffffffffffffffffff168152602001604051806020016040528060008152508152602001604051806020016040528060008152508152602001600073ffffffffffffffffffffffffffffffffffffffff16815260200160001515815250600583604051611deb9190613f17565b908152602001604051809103902060008201518160000160006101000a81548173ffffffffffffffffffffffffffffffffffffffff021916908373ffffffffffffffffffffffffffffffffffffffff1602179055506020820151816001019080519060200190611e5c929190612e1c565b506040820151816002019080519060200190611e79929190612e1c565b5060608201518160030160006101000a81548173ffffffffffffffffffffffffffffffffffffffff021916908373ffffffffffffffffffffffffffffffffffffffff16021790555060808201518160030160146101000a81548160ff0219169083151502179055509050503373ffffffffffffffffffffffffffffffffffffffff167f4e7745d23e7692ef4ad488334aca196680e28c38f8dfd6df5d9fbb6b9104343683604051611f2a9190614137565b60405180910390a25050565b6005818051602081018201805184825260208301602085012081835280955050505050506000915090508060000160009054906101000a900473ffffffffffffffffffffffffffffffffffffffff1690806001018054600181600116156101000203166002900480601f01602080910402602001604051908101604052809291908181526020018280546001816001161561010002031660029004801561201e5780601f10611ff35761010080835404028352916020019161201e565b820191906000526020600020905b81548152906001019060200180831161200157829003601f168201915b505050505090806002018054600181600116156101000203166002900480601f0160208091040260200160405190810160405280929190818152602001828054600181600116156101000203166002900480156120bc5780601f10612091576101008083540402835291602001916120bc565b820191906000526020600020905b81548152906001019060200180831161209f57829003601f168201915b5050505050908060030160009054906101000a900473ffffffffffffffffffffffffffffffffffffffff16908060030160149054906101000a900460ff16905085565b60026020528060005260406000206000915054906101000a900460ff1681565b6009602052816000526040600020818154811061213857fe5b9060005260206000209060040201600091509150508060000160009054906101000a900473ffffffffffffffffffffffffffffffffffffffff16908060010160009054906101000a900473ffffffffffffffffffffffffffffffffffffffff16908060010160149054906101000a900460ff1690806002015490806003018054600181600116156101000203166002900480601f01602080910402602001604051908101604052809291908181526020018280546001816001161561010002031660029004801561224a5780601f1061221f5761010080835404028352916020019161224a565b820191906000526020600020905b81548152906001019060200180831161222d57829003601f168201915b5050505050905085565b600360009054906101000a900473ffffffffffffffffffffffffffffffffffffffff1681565b600460009054906101000a900473ffffffffffffffffffffffffffffffffffffffff1681565b6060600660008373ffffffffffffffffffffffffffffffffffffffff1673ffffffffffffffffffffffffffffffffffffffff168152602001908152602001600020805480602002602001604051908101604052809291908181526020016000905b8282101561253e57838290600052602060002090600402016040518060a00160405290816000820160009054906101000a900473ffffffffffffffffffffffffffffffffffffffff1673ffffffffffffffffffffffffffffffffffffffff1673ffffffffffffffffffffffffffffffffffffffff168152602001600182018054600181600116156101000203166002900480601f0160208091040260200160405190810160405280929190818152602001828054600181600116156101000203166002900480156124135780601f106123e857610100808354040283529160200191612413565b820191906000526020600020905b8154815290600101906020018083116123f657829003601f168201915b50505050508152602001600282018054600181600116156101000203166002900480601f0160208091040260200160405190810160405280929190818152602001828054600181600116156101000203166002900480156124b55780601f1061248a576101008083540402835291602001916124b5565b820191906000526020600020905b81548152906001019060200180831161249857829003601f168201915b505050505081526020016003820160009054906101000a900473ffffffffffffffffffffffffffffffffffffffff1673ffffffffffffffffffffffffffffffffffffffff1673ffffffffffffffffffffffffffffffffffffffff1681526020016003820160149054906101000a900460ff16151515158152505081526020019060010190612301565b505050509050919050565b606060018054806020026020016040519081016040528092919081815260200182805480156125cd57602002820191906000526020600020905b8160009054906101000a900473ffffffffffffffffffffffffffffffffffffffff1673ffffffffffffffffffffffffffffffffffffffff1681526020019060010190808311612583575b5050505050905090565b6005836040516125e79190613f17565b908152602001604051809103902060030160149054906101000a900460ff1615612646576040517f08c379a000000000000000000000000000000000000000000000000000000000815260040161263d9061427b565b60405180910390fd5b61264e61310e565b6040518060a001604052803373ffffffffffffffffffffffffffffffffffffffff1681526020018581526020018481526020018373ffffffffffffffffffffffffffffffffffffffff168152602001600115158152509050806005856040516126b79190613f17565b908152602001604051809103902060008201518160000160006101000a81548173ffffffffffffffffffffffffffffffffffffffff021916908373ffffffffffffffffffffffffffffffffffffffff1602179055506020820151816001019080519060200190612728929190612e1c565b506040820151816002019080519060200190612745929190612e1c565b5060608201518160030160006101000a81548173ffffffffffffffffffffffffffffffffffffffff021916908373ffffffffffffffffffffffffffffffffffffffff16021790555060808201518160030160146101000a81548160ff021916908315150217905550905050600660003373ffffffffffffffffffffffffffffffffffffffff1673ffffffffffffffffffffffffffffffffffffffff168152602001908152602001600020819080600181540180825580915050906001820390600052602060002090600402016000909192909190915060008201518160000160006101000a81548173ffffffffffffffffffffffffffffffffffffffff021916908373ffffffffffffffffffffffffffffffffffffffff160217905550602082015181600101908051906020019061287e929190612e1c565b50604082015181600201908051906020019061289b929190612e1c565b5060608201518160030160006101000a81548173ffffffffffffffffffffffffffffffffffffffff021916908373ffffffffffffffffffffffffffffffffffffffff16021790555060808201518160030160146101000a81548160ff021916908315150217905550505050836040516129149190613f17565b60405180910390203373ffffffffffffffffffffffffffffffffffffffff167f40ee62d3a0cf66ef791a7a1f9d6d563ec877b394b8f5c097b6238ac82a68c0e260405160405180910390a350505050565b600a818154811061297257fe5b90600052602060002090600402016000915090508060000160009054906101000a900473ffffffffffffffffffffffffffffffffffffffff16908060010160009054906101000a900473ffffffffffffffffffffffffffffffffffffffff16908060010160149054906101000a900460ff1690806002015490806003018054600181600116156101000203166002900480601f016020809104026020016040519081016040528092919081815260200182805460018160011615610100020316600290048015612a835780601f10612a5857610100808354040283529160200191612a83565b820191906000526020600020905b815481529060010190602001808311612a6657829003601f168201915b5050505050905085565b60066020528160005260406000208181548110612aa657fe5b9060005260206000209060040201600091509150508060000160009054906101000a900473ffffffffffffffffffffffffffffffffffffffff1690806001018054600181600116156101000203166002900480601f016020809104026020016040519081016040528092919081815260200182805460018160011615610100020316600290048015612b795780601f10612b4e57610100808354040283529160200191612b79565b820191906000526020600020905b815481529060010190602001808311612b5c57829003601f168201915b505050505090806002018054600181600116156101000203166002900480601f016020809104026020016040519081016040528092919081815260200182805460018160011615610100020316600290048015612c175780601f10612bec57610100808354040283529160200191612c17565b820191906000526020600020905b815481529060010190602001808311612bfa57829003601f168201915b5050505050908060030160009054906101000a900473ffffffffffffffffffffffffffffffffffffffff16908060030160149054906101000a900460ff16905085565b600260003373ffffffffffffffffffffffffffffffffffffffff1673ffffffffffffffffffffffffffffffffffffffff16815260200190815260200160002060009054906101000a900460ff16612ce6576040517f08c379a0000000000000000000000000000000000000000000000000000000008152600401612cdd906141fb565b60405180910390fd5b60006060600360009054906101000a900473ffffffffffffffffffffffffffffffffffffffff1673ffffffffffffffffffffffffffffffffffffffff1683604051612d3090613f2e565b60006040518083038185875af1925050503d8060008114612d6d576040519150601f19603f3d011682016040523d82523d6000602084013e612d72565b606091505b509150915081612db7576040517f08c379a0000000000000000000000000000000000000000000000000000000008152600401612dae906142db565b60405180910390fd5b505050565b6040518060a00160405280600073ffffffffffffffffffffffffffffffffffffffff168152602001600073ffffffffffffffffffffffffffffffffffffffff16815260200160001515815260200160008019168152602001606081525090565b828054600181600116156101000203166002900490600052602060002090601f016020900481019282601f10612e5d57805160ff1916838001178555612e8b565b82800160010185558215612e8b579182015b82811115612e8a578251825591602001919060010190612e6f565b5b509050612e98919061316b565b5090565b828054600181600116156101000203166002900490600052602060002090601f016020900481019282601f10612ed55780548555612f12565b82800160010185558215612f1257600052602060002091601f016020900482015b82811115612f11578254825591600101919060010190612ef6565b5b509050612f1f919061316b565b5090565b50805460018160011615610100020316600290046000825580601f10612f495750612f68565b601f016020900490600052602060002090810190612f67919061316b565b5b50565b8280548282559060005260206000209060040281019282156130fd5760005260206000209160040282015b828111156130fc5782826000820160009054906101000a900473ffffffffffffffffffffffffffffffffffffffff168160000160006101000a81548173ffffffffffffffffffffffffffffffffffffffff021916908373ffffffffffffffffffffffffffffffffffffffff1602179055506001820181600101908054600181600116156101000203166002900461302e929190612e9c565b5060028201816002019080546001816001161561010002031660029004613056929190612e9c565b506003820160009054906101000a900473ffffffffffffffffffffffffffffffffffffffff168160030160006101000a81548173ffffffffffffffffffffffffffffffffffffffff021916908373ffffffffffffffffffffffffffffffffffffffff1602179055506003820160149054906101000a900460ff168160030160146101000a81548160ff021916908315150217905550505091600401919060040190612f96565b5b50905061310a9190613190565b5090565b6040518060a00160405280600073ffffffffffffffffffffffffffffffffffffffff1681526020016060815260200160608152602001600073ffffffffffffffffffffffffffffffffffffffff1681526020016000151581525090565b61318d91905b80821115613189576000816000905550600101613171565b5090565b90565b61322e91905b8082111561322a57600080820160006101000a81549073ffffffffffffffffffffffffffffffffffffffff02191690556001820160006131d69190612f23565b6002820160006131e69190612f23565b6003820160006101000a81549073ffffffffffffffffffffffffffffffffffffffff02191690556003820160146101000a81549060ff021916905550600401613196565b5090565b90565b60008135905061324081614696565b92915050565b600081359050613255816146ad565b92915050565b600082601f83011261326c57600080fd5b813561327f61327a82614383565b614356565b915081818352602084019350602081019050838560208402820111156132a457600080fd5b60005b838110156132d457816132ba888261339b565b8452602084019350602083019250506001810190506132a7565b5050505092915050565b6000813590506132ed816146c4565b92915050565b600082601f83011261330457600080fd5b8135613317613312826143ab565b614356565b9150808252602083016020830185838301111561333357600080fd5b61333e838284614608565b50505092915050565b600082601f83011261335857600080fd5b813561336b613366826143d7565b614356565b9150808252602083016020830185838301111561338757600080fd5b613392838284614608565b50505092915050565b6000813590506133aa816146db565b92915050565b6000602082840312156133c257600080fd5b60006133d084828501613231565b91505092915050565b600080600080608085870312156133ef57600080fd5b60006133fd87828801613246565b945050602085013567ffffffffffffffff81111561341a57600080fd5b61342687828801613347565b935050604085013567ffffffffffffffff81111561344357600080fd5b61344f8782880161325b565b925050606085013567ffffffffffffffff81111561346c57600080fd5b61347887828801613347565b91505092959194509250565b6000806040838503121561349757600080fd5b60006134a585828601613231565b92505060206134b68582860161339b565b9150509250929050565b6000602082840312156134d257600080fd5b60006134e0848285016132de565b91505092915050565b6000602082840312156134fb57600080fd5b600082013567ffffffffffffffff81111561351557600080fd5b613521848285016132f3565b91505092915050565b60006020828403121561353c57600080fd5b600082013567ffffffffffffffff81111561355657600080fd5b61356284828501613347565b91505092915050565b60008060006060848603121561358057600080fd5b600084013567ffffffffffffffff81111561359a57600080fd5b6135a686828701613347565b935050602084013567ffffffffffffffff8111156135c357600080fd5b6135cf86828701613347565b92505060406135e086828701613231565b9150509250925092565b6000602082840312156135fc57600080fd5b600061360a8482850161339b565b91505092915050565b600061361f83836136af565b60208301905092915050565b60006136378383613dc3565b905092915050565b600061364b8383613e39565b905092915050565b600061365f8383613eb6565b60208301905092915050565b613674816145ae565b82525050565b6136838161455c565b82525050565b6136928161455c565b82525050565b6136a96136a48261455c565b61464a565b82525050565b6136b88161454a565b82525050565b6136c78161454a565b82525050565b60006136d882614458565b6136e281856144ce565b93506136ed83614403565b8060005b8381101561371e5781516137058882613613565b97506137108361449a565b9250506001810190506136f1565b5085935050505092915050565b600061373682614463565b61374081856144df565b93508360208202850161375285614413565b8060005b8581101561378e578484038952815161376f858261362b565b945061377a836144a7565b925060208a01995050600181019050613756565b50829750879550505050505092915050565b60006137ab8261446e565b6137b581856144f0565b9350836020820285016137c785614423565b8060005b8581101561380357848403895281516137e4858261363f565b94506137ef836144b4565b925060208a019950506001810190506137cb565b50829750879550505050505092915050565b600061382082614479565b61382a8185614501565b935061383583614433565b8060005b8381101561386657815161384d8882613653565b9750613858836144c1565b925050600181019050613839565b5085935050505092915050565b61387c8161456e565b82525050565b61388b8161456e565b82525050565b61389a8161457a565b82525050565b6138a98161457a565b82525050565b6138b8816145c0565b82525050565b60006138c98261448f565b6138d3818561452e565b93506138e3818560208601614617565b6138ec81614678565b840191505092915050565b60006139028261448f565b61390c818561453f565b935061391c818560208601614617565b80840191505092915050565b600061393382614484565b61393d818561451d565b935061394d818560208601614617565b61395681614678565b840191505092915050565b600061396c82614484565b613976818561452e565b9350613986818560208601614617565b61398f81614678565b840191505092915050565b6000815460018116600081146139b757600181146139dd57613a21565b607f60028304166139c8818761452e565b955060ff198316865260208601935050613a21565b600282046139eb818761452e565b95506139f685614443565b60005b82811015613a18578154818901526001820191506020810190506139f9565b80880195505050505b505092915050565b6000613a36600a8361452e565b91507f6d6178203e3d206d696e000000000000000000000000000000000000000000006000830152602082019050919050565b6000613a76601c8361452e565b91507f696e73756666696369656e742066756e647320696e20657363726f77000000006000830152602082019050919050565b6000613ab660138361452e565b91507f43616c6c6572206973206e6f74206f776e6572000000000000000000000000006000830152602082019050919050565b6000613af660208361452e565b91507f6d75737420626520646576696365206f7220636f6e7472616374206f776e65726000830152602082019050919050565b6000613b36600a8361452e565b91507f6f6e6c792061646d696e000000000000000000000000000000000000000000006000830152602082019050919050565b6000613b76600f8361452e565b91507f696e76616c6964206164647265737300000000000000000000000000000000006000830152602082019050919050565b6000613bb660158361452e565b91507f646576696365206e6f74207265676973746572656400000000000000000000006000830152602082019050919050565b6000613bf6601f8361452e565b91507f5468726573686f6c642076616c756573203c3d20746f74616c20636f756e74006000830152602082019050919050565b6000613c36601d8361452e565b91507f64657669636520697320616c72656164792072656769737465726564210000006000830152602082019050919050565b6000613c7660108361452e565b91507f496e76616c696420456e642054696d65000000000000000000000000000000006000830152602082019050919050565b6000613cb6600083614512565b9150600082019050919050565b6000613cd060168361452e565b91507f446576696365206e6f7420696e207265676973747279000000000000000000006000830152602082019050919050565b6000613d10600e8361452e565b91507f4661696c656420746f2073656e640000000000000000000000000000000000006000830152602082019050919050565b6000613d5060158361452e565b91507f6164647265737320616c72656164792041646d696e00000000000000000000006000830152602082019050919050565b6000613d9060148361452e565b91507f696e76616c696420636f6d70616e7920616464720000000000000000000000006000830152602082019050919050565b600060a083016000830151613ddb60008601826136af565b506020830151613dee602086018261367a565b506040830151613e016040860182613873565b506060830151613e146060860182613891565b5060808301518482036080860152613e2c8282613928565b9150508091505092915050565b600060a083016000830151613e5160008601826136af565b5060208301518482036020860152613e698282613928565b91505060408301518482036040860152613e838282613928565b9150506060830151613e9860608601826136af565b506080830151613eab6080860182613873565b508091505092915050565b613ebf816145a4565b82525050565b613ece816145a4565b82525050565b613ee5613ee0826145a4565b61466e565b82525050565b6000613ef78285613698565b601482019150613f078284613ed4565b6020820191508190509392505050565b6000613f2382846138f7565b915081905092915050565b6000613f3982613ca9565b9150819050919050565b6000602082019050613f5860008301846136be565b92915050565b6000602082019050613f73600083018461366b565b92915050565b6000606082019050613f8e6000830186613689565b613f9b60208301856138a0565b8181036040830152613fad8184613815565b9050949350505050565b6000604082019050613fcc600083018561366b565b613fd96020830184613ec5565b9392505050565b600060a082019050613ff560008301886136be565b6140026020830187613689565b61400f6040830186613882565b61401c60608301856138a0565b818103608083015261402e8184613961565b90509695505050505050565b600060a08201905061404f60008301886136be565b81810360208301526140618187613961565b905081810360408301526140758186613961565b905061408460608301856136be565b6140916080830184613882565b9695505050505050565b600060208201905081810360008301526140b581846136cd565b905092915050565b600060208201905081810360008301526140d7818461372b565b905092915050565b600060208201905081810360008301526140f981846137a0565b905092915050565b60006020820190506141166000830184613882565b92915050565b600060208201905061413160008301846138af565b92915050565b6000602082019050818103600083015261415181846138be565b905092915050565b60006020820190508181036000830152614173818461399a565b905092915050565b6000602082019050818103600083015261419481613a29565b9050919050565b600060208201905081810360008301526141b481613a69565b9050919050565b600060208201905081810360008301526141d481613aa9565b9050919050565b600060208201905081810360008301526141f481613ae9565b9050919050565b6000602082019050818103600083015261421481613b29565b9050919050565b6000602082019050818103600083015261423481613b69565b9050919050565b6000602082019050818103600083015261425481613ba9565b9050919050565b6000602082019050818103600083015261427481613be9565b9050919050565b6000602082019050818103600083015261429481613c29565b9050919050565b600060208201905081810360008301526142b481613c69565b9050919050565b600060208201905081810360008301526142d481613cc3565b9050919050565b600060208201905081810360008301526142f481613d03565b9050919050565b6000602082019050818103600083015261431481613d43565b9050919050565b6000602082019050818103600083015261433481613d83565b9050919050565b60006020820190506143506000830184613ec5565b92915050565b6000604051905081810181811067ffffffffffffffff8211171561437957600080fd5b8060405250919050565b600067ffffffffffffffff82111561439a57600080fd5b602082029050602081019050919050565b600067ffffffffffffffff8211156143c257600080fd5b601f19601f8301169050602081019050919050565b600067ffffffffffffffff8211156143ee57600080fd5b601f19601f8301169050602081019050919050565b6000819050602082019050919050565b6000819050602082019050919050565b6000819050602082019050919050565b6000819050602082019050919050565b60008190508160005260206000209050919050565b600081519050919050565b600081519050919050565b600081519050919050565b600081519050919050565b600081519050919050565b600081519050919050565b6000602082019050919050565b6000602082019050919050565b6000602082019050919050565b6000602082019050919050565b600082825260208201905092915050565b600082825260208201905092915050565b600082825260208201905092915050565b600082825260208201905092915050565b600081905092915050565b600082825260208201905092915050565b600082825260208201905092915050565b600081905092915050565b600061455582614584565b9050919050565b600061456782614584565b9050919050565b60008115159050919050565b6000819050919050565b600073ffffffffffffffffffffffffffffffffffffffff82169050919050565b6000819050919050565b60006145b9826145e4565b9050919050565b60006145cb826145d2565b9050919050565b60006145dd82614584565b9050919050565b60006145ef826145f6565b9050919050565b600061460182614584565b9050919050565b82818337600083830152505050565b60005b8381101561463557808201518184015260208101905061461a565b83811115614644576000848401525b50505050565b60006146558261465c565b9050919050565b600061466782614689565b9050919050565b6000819050919050565b6000601f19601f8301169050919050565b60008160601b9050919050565b61469f8161454a565b81146146aa57600080fd5b50565b6146b68161455c565b81146146c157600080fd5b50565b6146cd8161457a565b81146146d857600080fd5b50565b6146e4816145a4565b81146146ef57600080fd5b5056fea365627a7a723158201c4eb9b2b8dcdd1a90ce09c92ca5d1113abab0fee903cef9f17a5a0df2607e676c6578706572696d656e74616cf564736f6c63430005100040",
  "source": "pragma solidity >=0.5.0 <0.9.0;\r\npragma experimental ABIEncoderV2;\r\n\r\nimport './Owner.sol';\r\nimport './Escrow.sol';\r\n\r\ncontract StateMonitor is Owner {\r\n    //Storage variables\r\n\r\n    address[] public admins; ///could make multisig as option, but for competition any admin can initiate agreements\r\n    mapping (address => bool) public adminMap; ///make multisig as option, but for competiton any admin can initiate agreements\r\n    //mapping (address => bool) public whiteList; ///whiteList of device addresses that are trusted to Transmit data\r\n    //mapping (address => bool) public blackList; //addresses which canot be added to whitelist\r\n    address public escrow; ///escrow address (either trusted third-party or another contract controlled by government finance agency)\r\n    Escrow public escrowContract; ///escrow contract deployed with this contract\r\n    mapping (string => Device) public deviceIMEIs; ///allows for quick retrieval of device info from deviceIMEIs\r\n    mapping (address => Device[]) public deviceOwners; ///allows for convenient retrieval of devices by owner address\r\n    mapping (address => Deal[]) public dealsOriginator; ///deals in which the address is lead_admin, if multisig, can be just any admins\r\n    mapping (bytes32 => Deal) public deals; ///maps deal Id to deals\r\n    mapping (address => Deal[]) public dealsByCompanyAddress;///maps address of wallet (of company or whatever entity is on other side of deal) to deal\r\n    Deal[] public allDeals; ///will allow to iterate through all deals if loss of uuid, for convenience, should scan events by company name or ID\r\n    //mapping (bytes32 => DealInfo) public dealsInfo; ///DealInfo mapping from uuid to all dealInfo. \r\n\r\n    //Events\r\n\r\n    \r\n    event DeviceRegistered(address indexed _deviceOwner, string indexed _IMEI);\r\n    //event WhiteListAddition(address indexed _deviceAddress, address indexed _approver);\r\n    event DealInitiated(address _originator, string indexed _companyID, bytes32 indexed _uuid);\r\n    event Received(address _sender, uint _amount);\r\n    event DeviceDeleted(address indexed _deviceOwner, string _IMEI);\r\n    //event DealAdminAddedUUID(address indexed _addressAdded, bytes32 indexed _UUID);\r\n    \r\n    //Modifiers\r\n\r\n    modifier onlyAdmin(){\r\n        require (adminMap[msg.sender], \"only admin\");\r\n        _;\r\n    }\r\n\r\n    struct Device{\r\n        address deviceOwner;\r\n        string IMEI;\r\n        ///string did; would be used along with DID device manager \r\n        string privKey; //only for simulator, real pebble tracker remove!\r\n        address deviceAddress;//real pebble tracker this is know when registered\r\n        bool exists;\r\n    }\r\n\r\n    struct Deal{\r\n        address originator;\r\n        //address [] dealAdmins; ///if using multi-sig or just want multiple addresses able to access these\r\n        address payable companyAddress; ///address that rewards will be paid to\r\n        bool isActive; ///Is the deal still active?\r\n        bytes32 uuid; ///ID of deal\r\n        string companyID; ///Id to identify company being monitored\r\n        //string companyName; ///company name\r\n        //DealInfo dealInformation;///Deal Information packed in struct to prevent too deep in stack\r\n    }\r\n\r\n    /*\r\n    struct DealInfo{\r\n        \r\n        bytes32 dealUUID;\r\n        uint256 dealBalance; ///money put into escrow by governing agency for this part of deal\r\n        string deviceIMEI; ///IMEI for device that will be at location\r\n        bool paidOut; ///flag to see if pay out has been given or not\r\n        ///Struct Packing rest of integers\r\n        uint48 timeStart; ///start of Deal\r\n        uint48 timeEnd; /// end of Deal\r\n        uint24 failedVerifyCount; ///failed verifications\r\n        uint32 totalCurrentCount; ///total current verifications\r\n        uint32 totalCountsAllowed; ///number of data points to be validated\r\n        uint24 minThreshold; ///minimum number of successful validations to start receiving reward\r\n        uint32 maxThreshold; ///number of successful validations to receive full reward;\r\n        uint16 gasResistanceTarget; ///target reading that is max acceptable air quality\r\n        \r\n    }\r\n    */\r\n\r\n    constructor (address payable _escrow) public{  \r\n        require (_escrow != address(0), \"zero addr\");\r\n        require (_escrow != msg.sender, \"can't be owner\");\r\n        escrow = _escrow;\r\n        escrowContract = Escrow(_escrow);\r\n        admins.push(msg.sender);\r\n        adminMap[msg.sender] = true;\r\n\r\n    }\r\n\r\n    /*receive() external payable {\r\n        require(msg.value >0);\r\n        emit Received(msg.sender, msg.value);\r\n    }*/\r\n\r\n    function() external payable {\r\n        require(msg.value > 0);\r\n        emit Received(msg.sender, msg.value);\r\n    }\r\n    \r\n    function getAllAdmins() public view returns(address[] memory){\r\n        return admins;\r\n    }\r\n\r\n    function getAllOwnersDevices(address _address) public view returns(Device[] memory){\r\n        return deviceOwners[_address];\r\n    }\r\n\r\n    function getOriginatorsDeals(address _address) public view returns(Deal[] memory){\r\n        return dealsOriginator[_address];\r\n    }\r\n\r\n    function getCompanyDeals(address _address) public view returns(Deal[] memory){\r\n        return dealsByCompanyAddress[_address];\r\n    }\r\n\r\n    \r\n\r\n    /*\r\n    * Add Admins to State Contract\r\n    * Note this is different than individual deal Admins!\r\n    * These admins can initiate deals and whitelist devices, but unless explicitly added on other admin deals\r\n    * then they cannot edit other admin's deals\r\n    */\r\n\r\n    function addAdmin (address _addedAdmin) isOwner public {\r\n        require(_addedAdmin != address(0), \"invalid address\");\r\n        require(!adminMap[_addedAdmin], \"address already Admin\");\r\n        adminMap[_addedAdmin] = true;\r\n        admins.push(_addedAdmin);\r\n        escrowContract.addAdmin(_addedAdmin);\r\n        \r\n    }\r\n\r\n    /*\r\n    * Easiest for a manufacturer/owner of a pebble tracker to pass or search\r\n    * IMEIs since those are on the device. In a real world situation without the\r\n    * simulator making data, privKey would NOT be passed!!! This is passed only\r\n    * so that simulator script can make sure to be consistent on a device that was already\r\n    * registered. \r\n    */\r\n\r\n    function registerDevice (string memory _IMEI, string memory _privKey, address _deviceAddress) public {\r\n        require(!deviceIMEIs[_IMEI].exists, \"device is already registered!\");\r\n        Device memory deviceToAdd = Device({\r\n            deviceOwner : msg.sender,\r\n            IMEI : _IMEI,\r\n            privKey : _privKey,\r\n            exists : true,\r\n            deviceAddress : _deviceAddress\r\n        });\r\n        deviceIMEIs[_IMEI] = deviceToAdd;\r\n        deviceOwners[msg.sender].push(deviceToAdd);\r\n        emit DeviceRegistered(msg.sender, _IMEI);\r\n    }\r\n\r\n    // Device Owner can delete a device which will set the mapping key back to the default struct\r\n    function deleteDevice (string memory _IMEI) public {\r\n        require(deviceIMEIs[_IMEI].exists, \"Device not in registry\");\r\n        require(msg.sender == deviceIMEIs[_IMEI].deviceOwner, \"must be device or contract owner\");\r\n        Device[] storage devicesArray = deviceOwners[msg.sender];\r\n        for (uint i=0; i<devicesArray.length; i++){\r\n            if(keccak256(abi.encode(devicesArray[i].IMEI)) == keccak256(abi.encode(_IMEI))){\r\n                devicesArray[i] = devicesArray[devicesArray.length-1];\r\n                devicesArray.pop();\r\n                deviceOwners[msg.sender] = devicesArray;\r\n                break;\r\n            }\r\n        }\r\n        deviceIMEIs[_IMEI] = Device({\r\n            deviceOwner : address(0),\r\n            IMEI : \"\",\r\n            privKey : \"\",\r\n            exists : false,\r\n            deviceAddress : address(0)\r\n        });\r\n        emit DeviceDeleted(msg.sender, _IMEI);\r\n    }\r\n\r\n    /** \r\n    * could use onlyOwner modifier or multiSig for adding to Whitelist, but for \r\n    * contest leaving as onlyAdmin so any admin can add to Whitelist\r\n    **/\r\n    /*\r\n    function addToWhiteList (address _deviceAddress) public onlyAdmin{\r\n        require(!whiteList[_deviceAddress], \"address on WhiteList\");\r\n        require(!blackList[_deviceAddress], \"address banned\");\r\n        whiteList[_deviceAddress] = true;\r\n        \r\n        emit WhiteListAddition(_deviceAddress, msg.sender);\r\n    }\r\n\r\n    function addToBlackList (address _deviceAddress, string memory _reason) public isOwner{\r\n        require(!blackList[_deviceAddress], \"address banned\");\r\n        whiteList[_deviceAddress] = false;\r\n        blackList[_deviceAddress] = true;\r\n        \r\n    }*/\r\n\r\n    /*\r\n    * Initiating a Deal involves an amount of money put in escrow account address\r\n    * Then when deal is complete, depending on if the company being monitored successfully passed\r\n    * enough verified data within valid timeframe, then payout is issued.\r\n    */\r\n\r\n    function initiateDeal (address payable _companyAddress, string memory _companyID, uint[] memory dealInfoParams, string memory _deviceIMEI) public onlyAdmin{\r\n        require (dealInfoParams[1] > dealInfoParams[6], \"Invalid End Time\");\r\n        require (address(this).balance >= dealInfoParams[0], \"insufficient funds in escrow\");\r\n        require (_companyAddress != address(0), \"invalid company addr\");\r\n        require (dealInfoParams[4] >= dealInfoParams[3], \"max >= min\");\r\n        require (dealInfoParams[4] <= dealInfoParams[2], \"Threshold values <= total count\");\r\n        require (deviceIMEIs[_deviceIMEI].exists, \"device not registered\");\r\n\r\n        //address[] memory initialArray;\r\n        //bytes32 newUUID = keccak256(abi.encodePacked(msg.sender, block.timestamp)); //Use this when not on ganache\r\n        bytes32 newUUID = keccak256(abi.encodePacked(msg.sender, dealInfoParams[6]));\r\n\r\n        Deal memory dealToAdd = Deal({\r\n            originator : msg.sender,\r\n            companyAddress : _companyAddress,\r\n            uuid : newUUID,\r\n            isActive : true,\r\n            companyID : _companyID\r\n        });\r\n        dealsOriginator[msg.sender].push(dealToAdd);\r\n        deals[dealToAdd.uuid] = dealToAdd;\r\n        dealsByCompanyAddress[_companyAddress].push(dealToAdd);\r\n        //dealsInfo[newUUID] = newDealInfo;\r\n        sendToEscrow(dealInfoParams[0]);\r\n        escrowContract.setDealVerify(_companyAddress, newUUID, dealInfoParams);\r\n\r\n        emit DealInitiated(msg.sender, _companyID, dealToAdd.uuid);\r\n    }\r\n\r\n    /*\r\n    function setDealInfo(bytes32 _dealUUID, string memory _deviceIMEI, uint[] memory intInfo) internal returns (DealInfo memory){\r\n        DealInfo memory dealInfoRet = DealInfo({\r\n            dealUUID: _dealUUID,\r\n            deviceIMEI : _deviceIMEI,\r\n            paidOut: false,\r\n            dealBalance: intInfo[0],\r\n            timeStart : uint48(block.timestamp),\r\n            timeEnd : uint48(intInfo[1]),\r\n            failedVerifyCount : 0,\r\n            totalCurrentCount : 0,\r\n            totalCountsAllowed : uint32(intInfo[2]),\r\n            minThreshold : uint24(intInfo[3]), \r\n            maxThreshold : uint32(intInfo[4]),\r\n            gasResistanceTarget : uint16(intInfo[6])\r\n        });\r\n        return dealInfoRet;\r\n    }\r\n    */\r\n\r\n\r\n    //If you want admin to be per deal uncomment this functions and the admins[]\r\n    /*\r\n    function addDealAdminUUID(address _addressToAdd, bytes32 _UUID) public {\r\n        require(_UUID.length>0, \"invalid UUID\");\r\n        require (deals[_UUID].uuid == _UUID, \"UUID invalid\");\r\n        require(deals[_UUID].isActive, \"Inactive deal\");\r\n        require(_addressToAdd != address(0), \"zero address\");\r\n        bool alreadyDealAdmin = false;\r\n        for (uint i = 0; i< deals[_UUID].dealAdmins.length; i++){\r\n            if(_addressToAdd == deals[_UUID].dealAdmins[i]){\r\n                alreadyDealAdmin = true;\r\n                break;\r\n            }\r\n        require(!alreadyDealAdmin, \"already deal admin\");\r\n        deals[_UUID].dealAdmins.push(_addressToAdd);\r\n        emit DealAdminAddedUUID(_addressToAdd, _UUID);\r\n        }\r\n    }*/\r\n\r\n\r\n    function getBalance() public view returns (uint) {\r\n        return address(this).balance;\r\n    }\r\n\r\n    //sends money to escrow contract for safe-keeping\r\n    function sendToEscrow(uint _amount) private onlyAdmin{\r\n        // Call returns a boolean value indicating success or failure.\r\n        (bool sent, bytes memory data) = escrow.call.value(_amount)(\"\");\r\n        require(sent, \"Failed to send\");\r\n    }\r\n\r\n    function triggerEscrow(address _to, uint _amount) private onlyAdmin{\r\n        require(address(escrow).balance >= _amount, \"Not enough in escrow\");\r\n        require(_to != address(0), \"invalid address\");\r\n        escrowContract.triggerPayout(_to, _amount);\r\n        //bytes memory payload = abi.encodeWithSignature(\"triggerPayout(address, uint)\", _to, _amount);\r\n        //(bool success, bytes memory returnData) = address(escrow).call(payload);\r\n        //require(success);\r\n    }\r\n}",
  "sourcePath": "/home/jpick713/BlockChain_Apps/iotex-dapp/contracts/StateMonitor.sol",
  "compiler": {
    "name": "solc",
    "version": "0.5.16+commit.9c3226ce.Emscripten.clang"
  },
  "schemaVersion": "3.4.1",
  "updatedAt": "2021-07-13T23:47:23.470Z",
  "networkType": "ethereum",
  "devdoc": {
    "methods": {
      "changeOwner(address)": {
        "details": "Change owner",
        "params": {
          "newOwner": "address of new owner"
        }
      },
      "getOwner()": {
        "details": "Return owner address ",
        "return": "address of owner"
      }
    }
  },
  "userdoc": {
    "methods": {
      "initiateDeal(address,string,uint256[],string)": {
        "notice": "could use onlyOwner modifier or multiSig for adding to Whitelist, but for  contest leaving as onlyAdmin so any admin can add to Whitelist*"
      }
    }
  }
}